{
  "contractName": "lira",
  "abi": [
    {
      "inputs": [
        {
          "internalType": "uint256",
          "name": "_game_id",
          "type": "uint256"
        },
        {
          "internalType": "string",
          "name": "_name",
          "type": "string"
        },
        {
          "internalType": "uint256",
          "name": "_game_times",
          "type": "uint256"
        },
        {
          "internalType": "uint256",
          "name": "_price",
          "type": "uint256"
        },
        {
          "internalType": "uint256",
          "name": "_price_upper_rate",
          "type": "uint256"
        }
      ],
      "payable": false,
      "stateMutability": "nonpayable",
      "type": "constructor"
    },
    {
      "anonymous": false,
      "inputs": [
        {
          "indexed": true,
          "internalType": "address",
          "name": "owner",
          "type": "address"
        },
        {
          "indexed": true,
          "internalType": "address",
          "name": "spender",
          "type": "address"
        },
        {
          "indexed": false,
          "internalType": "uint256",
          "name": "value",
          "type": "uint256"
        }
      ],
      "name": "Approval",
      "type": "event"
    },
    {
      "anonymous": false,
      "inputs": [
        {
          "indexed": false,
          "internalType": "address",
          "name": "bidder",
          "type": "address"
        },
        {
          "indexed": false,
          "internalType": "uint256",
          "name": "amount",
          "type": "uint256"
        },
        {
          "indexed": false,
          "internalType": "uint256",
          "name": "buy_time",
          "type": "uint256"
        },
        {
          "indexed": false,
          "internalType": "string",
          "name": "event_msg",
          "type": "string"
        }
      ],
      "name": "BuyGameEvent",
      "type": "event"
    },
    {
      "anonymous": false,
      "inputs": [
        {
          "indexed": false,
          "internalType": "address",
          "name": "bidder",
          "type": "address"
        },
        {
          "indexed": false,
          "internalType": "uint256",
          "name": "amount",
          "type": "uint256"
        },
        {
          "indexed": false,
          "internalType": "string",
          "name": "event_msg",
          "type": "string"
        }
      ],
      "name": "CalcBonus",
      "type": "event"
    },
    {
      "anonymous": false,
      "inputs": [
        {
          "indexed": false,
          "internalType": "address",
          "name": "target",
          "type": "address"
        },
        {
          "indexed": false,
          "internalType": "bool",
          "name": "frozen",
          "type": "bool"
        }
      ],
      "name": "FrozenFunds",
      "type": "event"
    },
    {
      "anonymous": false,
      "inputs": [
        {
          "indexed": false,
          "internalType": "address",
          "name": "bidder",
          "type": "address"
        },
        {
          "indexed": false,
          "internalType": "uint256",
          "name": "amount",
          "type": "uint256"
        },
        {
          "indexed": false,
          "internalType": "string",
          "name": "event_msg",
          "type": "string"
        }
      ],
      "name": "SendFeeBack",
      "type": "event"
    },
    {
      "anonymous": false,
      "inputs": [
        {
          "indexed": false,
          "internalType": "address",
          "name": "bidder",
          "type": "address"
        },
        {
          "indexed": false,
          "internalType": "uint256",
          "name": "amount",
          "type": "uint256"
        },
        {
          "indexed": false,
          "internalType": "string",
          "name": "event_msg",
          "type": "string"
        }
      ],
      "name": "SendPlatformFee",
      "type": "event"
    },
    {
      "anonymous": false,
      "inputs": [
        {
          "indexed": false,
          "internalType": "address",
          "name": "bidder",
          "type": "address"
        },
        {
          "indexed": false,
          "internalType": "uint256",
          "name": "amount",
          "type": "uint256"
        },
        {
          "indexed": false,
          "internalType": "string",
          "name": "event_msg",
          "type": "string"
        }
      ],
      "name": "SendRecommend",
      "type": "event"
    },
    {
      "anonymous": false,
      "inputs": [
        {
          "indexed": true,
          "internalType": "address",
          "name": "from",
          "type": "address"
        },
        {
          "indexed": true,
          "internalType": "address",
          "name": "to",
          "type": "address"
        },
        {
          "indexed": false,
          "internalType": "uint256",
          "name": "value",
          "type": "uint256"
        }
      ],
      "name": "Transfer",
      "type": "event"
    },
    {
      "anonymous": false,
      "inputs": [
        {
          "indexed": false,
          "internalType": "address",
          "name": "bidder",
          "type": "address"
        },
        {
          "indexed": false,
          "internalType": "uint256",
          "name": "amount",
          "type": "uint256"
        },
        {
          "indexed": false,
          "internalType": "string",
          "name": "event_msg",
          "type": "string"
        }
      ],
      "name": "TransferAmount",
      "type": "event"
    },
    {
      "constant": true,
      "inputs": [
        {
          "internalType": "address",
          "name": "owner",
          "type": "address"
        },
        {
          "internalType": "address",
          "name": "spender",
          "type": "address"
        }
      ],
      "name": "allowance",
      "outputs": [
        {
          "internalType": "uint256",
          "name": "",
          "type": "uint256"
        }
      ],
      "payable": false,
      "stateMutability": "view",
      "type": "function"
    },
    {
      "constant": false,
      "inputs": [
        {
          "internalType": "address",
          "name": "spender",
          "type": "address"
        },
        {
          "internalType": "uint256",
          "name": "value",
          "type": "uint256"
        }
      ],
      "name": "approve",
      "outputs": [
        {
          "internalType": "bool",
          "name": "",
          "type": "bool"
        }
      ],
      "payable": false,
      "stateMutability": "nonpayable",
      "type": "function"
    },
    {
      "constant": true,
      "inputs": [
        {
          "internalType": "address",
          "name": "account",
          "type": "address"
        }
      ],
      "name": "balanceOf",
      "outputs": [
        {
          "internalType": "uint256",
          "name": "",
          "type": "uint256"
        }
      ],
      "payable": false,
      "stateMutability": "view",
      "type": "function"
    },
    {
      "constant": true,
      "inputs": [
        {
          "internalType": "address",
          "name": "sender",
          "type": "address"
        }
      ],
      "name": "checkFreeze",
      "outputs": [
        {
          "internalType": "bool",
          "name": "",
          "type": "bool"
        }
      ],
      "payable": false,
      "stateMutability": "view",
      "type": "function"
    },
    {
      "constant": true,
      "inputs": [],
      "name": "decimals",
      "outputs": [
        {
          "internalType": "uint8",
          "name": "",
          "type": "uint8"
        }
      ],
      "payable": false,
      "stateMutability": "view",
      "type": "function"
    },
    {
      "constant": false,
      "inputs": [
        {
          "internalType": "address",
          "name": "spender",
          "type": "address"
        },
        {
          "internalType": "uint256",
          "name": "subtractedValue",
          "type": "uint256"
        }
      ],
      "name": "decreaseAllowance",
      "outputs": [
        {
          "internalType": "bool",
          "name": "",
          "type": "bool"
        }
      ],
      "payable": false,
      "stateMutability": "nonpayable",
      "type": "function"
    },
    {
      "constant": false,
      "inputs": [
        {
          "internalType": "address",
          "name": "spender",
          "type": "address"
        },
        {
          "internalType": "uint256",
          "name": "addedValue",
          "type": "uint256"
        }
      ],
      "name": "increaseAllowance",
      "outputs": [
        {
          "internalType": "bool",
          "name": "",
          "type": "bool"
        }
      ],
      "payable": false,
      "stateMutability": "nonpayable",
      "type": "function"
    },
    {
      "constant": true,
      "inputs": [],
      "name": "name",
      "outputs": [
        {
          "internalType": "string",
          "name": "",
          "type": "string"
        }
      ],
      "payable": false,
      "stateMutability": "view",
      "type": "function"
    },
    {
      "constant": true,
      "inputs": [],
      "name": "symbol",
      "outputs": [
        {
          "internalType": "string",
          "name": "",
          "type": "string"
        }
      ],
      "payable": false,
      "stateMutability": "view",
      "type": "function"
    },
    {
      "constant": true,
      "inputs": [],
      "name": "totalSupply",
      "outputs": [
        {
          "internalType": "uint256",
          "name": "",
          "type": "uint256"
        }
      ],
      "payable": false,
      "stateMutability": "view",
      "type": "function"
    },
    {
      "constant": false,
      "inputs": [
        {
          "internalType": "address",
          "name": "recipient",
          "type": "address"
        },
        {
          "internalType": "uint256",
          "name": "amount",
          "type": "uint256"
        }
      ],
      "name": "transfer",
      "outputs": [
        {
          "internalType": "bool",
          "name": "",
          "type": "bool"
        }
      ],
      "payable": false,
      "stateMutability": "nonpayable",
      "type": "function"
    },
    {
      "constant": false,
      "inputs": [
        {
          "internalType": "address",
          "name": "sender",
          "type": "address"
        },
        {
          "internalType": "address",
          "name": "recipient",
          "type": "address"
        },
        {
          "internalType": "uint256",
          "name": "amount",
          "type": "uint256"
        }
      ],
      "name": "transferFrom",
      "outputs": [
        {
          "internalType": "bool",
          "name": "",
          "type": "bool"
        }
      ],
      "payable": false,
      "stateMutability": "nonpayable",
      "type": "function"
    },
    {
      "constant": true,
      "inputs": [],
      "name": "getNow",
      "outputs": [
        {
          "internalType": "uint256",
          "name": "nowvalue",
          "type": "uint256"
        }
      ],
      "payable": false,
      "stateMutability": "view",
      "type": "function"
    },
    {
      "constant": true,
      "inputs": [],
      "name": "getDecimals",
      "outputs": [
        {
          "internalType": "uint256",
          "name": "",
          "type": "uint256"
        }
      ],
      "payable": false,
      "stateMutability": "view",
      "type": "function"
    },
    {
      "constant": true,
      "inputs": [],
      "name": "getOwner",
      "outputs": [
        {
          "internalType": "address",
          "name": "",
          "type": "address"
        }
      ],
      "payable": false,
      "stateMutability": "view",
      "type": "function"
    },
    {
      "constant": true,
      "inputs": [],
      "name": "getCurrentRoundInfo",
      "outputs": [
        {
          "internalType": "uint256",
          "name": "game_id",
          "type": "uint256"
        },
        {
          "internalType": "string",
          "name": "name",
          "type": "string"
        },
        {
          "internalType": "uint256",
          "name": "begin_time",
          "type": "uint256"
        },
        {
          "internalType": "uint256",
          "name": "game_times",
          "type": "uint256"
        },
        {
          "internalType": "uint256",
          "name": "last_buy_time",
          "type": "uint256"
        },
        {
          "internalType": "uint256",
          "name": "over_time",
          "type": "uint256"
        },
        {
          "internalType": "uint256",
          "name": "price",
          "type": "uint256"
        },
        {
          "internalType": "uint256",
          "name": "price_upper_rate",
          "type": "uint256"
        },
        {
          "internalType": "enum Entitys.GameStatus",
          "name": "status",
          "type": "uint8"
        },
        {
          "internalType": "uint256",
          "name": "prize_value",
          "type": "uint256"
        },
        {
          "internalType": "uint256",
          "name": "bonus_value",
          "type": "uint256"
        },
        {
          "internalType": "uint256",
          "name": "buy_count",
          "type": "uint256"
        },
        {
          "internalType": "address",
          "name": "last_buy_user_address",
          "type": "address"
        },
        {
          "internalType": "uint256",
          "name": "next_change_rate_count",
          "type": "uint256"
        }
      ],
      "payable": false,
      "stateMutability": "view",
      "type": "function"
    },
    {
      "constant": true,
      "inputs": [],
      "name": "askprice",
      "outputs": [
        {
          "internalType": "uint256",
          "name": "price",
          "type": "uint256"
        }
      ],
      "payable": false,
      "stateMutability": "view",
      "type": "function"
    },
    {
      "constant": false,
      "inputs": [
        {
          "internalType": "address",
          "name": "recommend_user",
          "type": "address"
        }
      ],
      "name": "buy_token",
      "outputs": [
        {
          "internalType": "bool",
          "name": "success",
          "type": "bool"
        }
      ],
      "payable": true,
      "stateMutability": "payable",
      "type": "function"
    },
    {
      "constant": true,
      "inputs": [
        {
          "internalType": "address",
          "name": "buyer",
          "type": "address"
        }
      ],
      "name": "getBuyerBuyCount",
      "outputs": [
        {
          "internalType": "uint256",
          "name": "",
          "type": "uint256"
        }
      ],
      "payable": false,
      "stateMutability": "view",
      "type": "function"
    },
    {
      "constant": true,
      "inputs": [
        {
          "internalType": "address",
          "name": "buyer",
          "type": "address"
        }
      ],
      "name": "getBuerIncomeInvestment",
      "outputs": [
        {
          "internalType": "uint256",
          "name": "income",
          "type": "uint256"
        },
        {
          "internalType": "uint256",
          "name": "investment",
          "type": "uint256"
        },
        {
          "internalType": "uint256",
          "name": "recommend_value",
          "type": "uint256"
        },
        {
          "internalType": "uint256",
          "name": "buy_count",
          "type": "uint256"
        }
      ],
      "payable": false,
      "stateMutability": "view",
      "type": "function"
    },
    {
      "constant": true,
      "inputs": [],
      "name": "checkGameAndPrize",
      "outputs": [
        {
          "internalType": "bool",
          "name": "",
          "type": "bool"
        }
      ],
      "payable": false,
      "stateMutability": "view",
      "type": "function"
    },
    {
      "constant": false,
      "inputs": [],
      "name": "PrizeGame",
      "outputs": [
        {
          "internalType": "bool",
          "name": "",
          "type": "bool"
        }
      ],
      "payable": false,
      "stateMutability": "nonpayable",
      "type": "function"
    },
    {
      "constant": false,
      "inputs": [],
      "name": "kill",
      "outputs": [
        {
          "internalType": "bool",
          "name": "",
          "type": "bool"
        }
      ],
      "payable": false,
      "stateMutability": "nonpayable",
      "type": "function"
    },
    {
      "constant": false,
      "inputs": [
        {
          "internalType": "address",
          "name": "target",
          "type": "address"
        },
        {
          "internalType": "bool",
          "name": "freeze",
          "type": "bool"
        }
      ],
      "name": "freezeAccount",
      "outputs": [
        {
          "internalType": "bool",
          "name": "",
          "type": "bool"
        }
      ],
      "payable": false,
      "stateMutability": "nonpayable",
      "type": "function"
    },
    {
      "constant": false,
      "inputs": [
        {
          "internalType": "uint256",
          "name": "mintedAmount",
          "type": "uint256"
        }
      ],
      "name": "mintToken",
      "outputs": [
        {
          "internalType": "bool",
          "name": "",
          "type": "bool"
        }
      ],
      "payable": false,
      "stateMutability": "nonpayable",
      "type": "function"
    }
  ],
  "bytecode": "0x608060405260126007556012600855600a600955600a8055602d600c556005600d55620f42406023553480156200003557600080fd5b5060405162005e0338038062005e03833981810160405260a08110156200005b57600080fd5b8101908080519060200190929190805160405193929190846401000000008211156200008657600080fd5b838201915060208201858111156200009d57600080fd5b8251866001820283011164010000000082111715620000bb57600080fd5b8083526020830192505050908051906020019080838360005b83811015620000f1578082015181840152602081019050620000d4565b50505050905090810190601f1680156200011f5780820380516001836020036101000a031916815260200191505b506040526020018051906020019092919080519060200190929190805190602001909291905050506040518060400160405280600481526020017f4c495241000000000000000000000000000000000000000000000000000000008152506040518060400160405280600481526020017f4c495241000000000000000000000000000000000000000000000000000000008152506007548260049080519060200190620001ce92919062000868565b508160059080519060200190620001e792919062000868565b5080600660006101000a81548160ff021916908360ff16021790555050505033600b60006101000a81548173ffffffffffffffffffffffffffffffffffffffff021916908373ffffffffffffffffffffffffffffffffffffffff1602179055506000429050600081905060006200026d8684620004ce60201b62003fb41790919060201c565b90506000620002916064600754600a0a6200055760201b620048e31790919060201c565b860290506000620002b6600854600a0a87620005e860201b6200484b1790919060201c565b90506000604690506040518061020001604052808c81526020018b81526020018781526020018a8152602001868152602001858152602001848152602001848152602001838152602001838152602001600060018111156200031457fe5b8152602001600081526020016000815260200160008152602001600b60009054906101000a900473ffffffffffffffffffffffffffffffffffffffff1673ffffffffffffffffffffffffffffffffffffffff16815260200182815250600e6000820151816000015560208201518160010190805190602001906200039a929190620008ef565b5060408201518160020155606082015181600301556080820151816004015560a0820151816005015560c0820151816006015560e082015181600701556101008201518160080155610120820151816009015561014082015181600a0160006101000a81548160ff021916908360018111156200041357fe5b021790555061016082015181600b015561018082015181600c01556101a082015181600d01556101c082015181600e0160006101000a81548173ffffffffffffffffffffffffffffffffffffffff021916908373ffffffffffffffffffffffffffffffffffffffff1602179055506101e082015181600f0155905050620004bd33620004a46200068760201b60201c565b60ff16600a0a6402540be400026200069e60201b60201c565b50505050505050505050506200099e565b6000808284019050838110156200054d576040517f08c379a000000000000000000000000000000000000000000000000000000000815260040180806020018281038252601b8152602001807f536166654d6174683a206164646974696f6e206f766572666c6f77000000000081525060200191505060405180910390fd5b8091505092915050565b6000808211620005cf576040517f08c379a000000000000000000000000000000000000000000000000000000000815260040180806020018281038252601a8152602001807f536166654d6174683a206469766973696f6e206279207a65726f00000000000081525060200191505060405180910390fd5b6000828481620005db57fe5b0490508091505092915050565b600080831415620005fd576000905062000681565b600082141562000611576000905062000681565b60008284029050828482816200062357fe5b04146200067c576040517f08c379a000000000000000000000000000000000000000000000000000000000815260040180806020018281038252602181526020018062005de26021913960400191505060405180910390fd5b809150505b92915050565b6000600660009054906101000a900460ff16905090565b600073ffffffffffffffffffffffffffffffffffffffff168273ffffffffffffffffffffffffffffffffffffffff16141562000742576040517f08c379a000000000000000000000000000000000000000000000000000000000815260040180806020018281038252601f8152602001807f45524332303a206d696e7420746f20746865207a65726f20616464726573730081525060200191505060405180910390fd5b6200075e81600254620004ce60201b62003fb41790919060201c565b600281905550620007bc816000808573ffffffffffffffffffffffffffffffffffffffff1673ffffffffffffffffffffffffffffffffffffffff16815260200190815260200160002054620004ce60201b62003fb41790919060201c565b6000808473ffffffffffffffffffffffffffffffffffffffff1673ffffffffffffffffffffffffffffffffffffffff168152602001908152602001600020819055508173ffffffffffffffffffffffffffffffffffffffff16600073ffffffffffffffffffffffffffffffffffffffff167fddf252ad1be2c89b69c2b068fc378daa952ba7f163c4a11628f55a4df523b3ef836040518082815260200191505060405180910390a35050565b828054600181600116156101000203166002900490600052602060002090601f016020900481019282601f10620008ab57805160ff1916838001178555620008dc565b82800160010185558215620008dc579182015b82811115620008db578251825591602001919060010190620008be565b5b509050620008eb919062000976565b5090565b828054600181600116156101000203166002900490600052602060002090601f016020900481019282601f106200093257805160ff191683800117855562000963565b8280016001018555821562000963579182015b828111156200096257825182559160200191906001019062000945565b5b50905062000972919062000976565b5090565b6200099b91905b80821115620009975760008160009055506001016200097d565b5090565b90565b61543480620009ae6000396000f3fe6080604052600436106101665760003560e01c806372e2f8f5116100d1578063a457c2d71161008a578063c634d03211610064578063c634d032146109ae578063dd62ed3e14610a01578063e724529c14610a86578063f0141d8414610afb57610166565b8063a457c2d71461089d578063a9059cbb14610910578063bbe4fd501461098357610166565b806372e2f8f51461059d578063747dff42146106065780637beeee091461072b578063893d20e81461075a57806395d89b41146107b1578063a155e2041461084157610166565b806330a218121161012357806330a2181214610386578063313ce56714610400578063332e64e714610431578063395093511461049657806341c0e1b51461050957806370a082311461053857610166565b806306fdde031461016b578063095ea7b3146101fb57806318160ddd1461026e5780631986c8111461029957806323b872dd146102c857806325527ece1461035b575b600080fd5b34801561017757600080fd5b50610180610b26565b6040518080602001828103825283818151815260200191508051906020019080838360005b838110156101c05780820151818401526020810190506101a5565b50505050905090810190601f1680156101ed5780820380516001836020036101000a031916815260200191505b509250505060405180910390f35b34801561020757600080fd5b506102546004803603604081101561021e57600080fd5b81019080803573ffffffffffffffffffffffffffffffffffffffff16906020019092919080359060200190929190505050610bc8565b604051808215151515815260200191505060405180910390f35b34801561027a57600080fd5b50610283610bdf565b6040518082815260200191505060405180910390f35b3480156102a557600080fd5b506102ae610be9565b604051808215151515815260200191505060405180910390f35b3480156102d457600080fd5b50610341600480360360608110156102eb57600080fd5b81019080803573ffffffffffffffffffffffffffffffffffffffff169060200190929190803573ffffffffffffffffffffffffffffffffffffffff16906020019092919080359060200190929190505050611387565b604051808215151515815260200191505060405180910390f35b34801561036757600080fd5b50610370611438565b6040518082815260200191505060405180910390f35b34801561039257600080fd5b506103d5600480360360208110156103a957600080fd5b81019080803573ffffffffffffffffffffffffffffffffffffffff169060200190929190505050611604565b6040518085815260200184815260200183815260200182815260200194505050505060405180910390f35b34801561040c57600080fd5b50610415611789565b604051808260ff1660ff16815260200191505060405180910390f35b34801561043d57600080fd5b506104806004803603602081101561045457600080fd5b81019080803573ffffffffffffffffffffffffffffffffffffffff1690602001909291905050506117a0565b6040518082815260200191505060405180910390f35b3480156104a257600080fd5b506104ef600480360360408110156104b957600080fd5b81019080803573ffffffffffffffffffffffffffffffffffffffff169060200190929190803590602001909291905050506117e9565b604051808215151515815260200191505060405180910390f35b34801561051557600080fd5b5061051e61188e565b604051808215151515815260200191505060405180910390f35b34801561054457600080fd5b506105876004803603602081101561055b57600080fd5b81019080803573ffffffffffffffffffffffffffffffffffffffff169060200190929190505050611be9565b6040518082815260200191505060405180910390f35b3480156105a957600080fd5b506105ec600480360360208110156105c057600080fd5b81019080803573ffffffffffffffffffffffffffffffffffffffff169060200190929190505050611c31565b604051808215151515815260200191505060405180910390f35b34801561061257600080fd5b5061061b611c87565b604051808f8152602001806020018e81526020018d81526020018c81526020018b81526020018a815260200189815260200188600181111561065957fe5b60ff1681526020018781526020018681526020018581526020018473ffffffffffffffffffffffffffffffffffffffff1673ffffffffffffffffffffffffffffffffffffffff16815260200183815260200182810382528f818151815260200191508051906020019080838360005b838110156106e35780820151818401526020810190506106c8565b50505050905090810190601f1680156107105780820380516001836020036101000a031916815260200191505b509f5050505050505050505050505050505060405180910390f35b34801561073757600080fd5b50610740611f00565b604051808215151515815260200191505060405180910390f35b34801561076657600080fd5b5061076f61224f565b604051808273ffffffffffffffffffffffffffffffffffffffff1673ffffffffffffffffffffffffffffffffffffffff16815260200191505060405180910390f35b3480156107bd57600080fd5b506107c6612279565b6040518080602001828103825283818151815260200191508051906020019080838360005b838110156108065780820151818401526020810190506107eb565b50505050905090810190601f1680156108335780820380516001836020036101000a031916815260200191505b509250505060405180910390f35b6108836004803603602081101561085757600080fd5b81019080803573ffffffffffffffffffffffffffffffffffffffff16906020019092919050505061231b565b604051808215151515815260200191505060405180910390f35b3480156108a957600080fd5b506108f6600480360360408110156108c057600080fd5b81019080803573ffffffffffffffffffffffffffffffffffffffff169060200190929190803590602001909291905050506139fe565b604051808215151515815260200191505060405180910390f35b34801561091c57600080fd5b506109696004803603604081101561093357600080fd5b81019080803573ffffffffffffffffffffffffffffffffffffffff16906020019092919080359060200190929190505050613aa3565b604051808215151515815260200191505060405180910390f35b34801561098f57600080fd5b50610998613aba565b6040518082815260200191505060405180910390f35b3480156109ba57600080fd5b506109e7600480360360208110156109d157600080fd5b8101908080359060200190929190505050613ac2565b604051808215151515815260200191505060405180910390f35b348015610a0d57600080fd5b50610a7060048036036040811015610a2457600080fd5b81019080803573ffffffffffffffffffffffffffffffffffffffff169060200190929190803573ffffffffffffffffffffffffffffffffffffffff169060200190929190505050613bae565b6040518082815260200191505060405180910390f35b348015610a9257600080fd5b50610ae160048036036040811015610aa957600080fd5b81019080803573ffffffffffffffffffffffffffffffffffffffff169060200190929190803515159060200190929190505050613c35565b604051808215151515815260200191505060405180910390f35b348015610b0757600080fd5b50610b10613db3565b6040518082815260200191505060405180910390f35b606060048054600181600116156101000203166002900480601f016020809104026020016040519081016040528092919081815260200182805460018160011615610100020316600290048015610bbe5780601f10610b9357610100808354040283529160200191610bbe565b820191906000526020600020905b815481529060010190602001808311610ba157829003601f168201915b5050505050905090565b6000610bd5338484613dbd565b6001905092915050565b6000600254905090565b6000600b60009054906101000a900473ffffffffffffffffffffffffffffffffffffffff1673ffffffffffffffffffffffffffffffffffffffff163373ffffffffffffffffffffffffffffffffffffffff1614610c91576040517f08c379a00000000000000000000000000000000000000000000000000000000081526004018080602001828103825260228152602001806153526022913960400191505060405180910390fd5b3373ffffffffffffffffffffffffffffffffffffffff16600b60009054906101000a900473ffffffffffffffffffffffffffffffffffffffff1673ffffffffffffffffffffffffffffffffffffffff1614610d54576040517f08c379a00000000000000000000000000000000000000000000000000000000081526004018080602001828103825260128152602001807f4d757374204f776e65722045786563757465000000000000000000000000000081525060200191505060405180910390fd5b6000429050610d6161518a565b600e6040518061020001604052908160008201548152602001600182018054600181600116156101000203166002900480601f016020809104026020016040519081016040528092919081815260200182805460018160011615610100020316600290048015610e125780601f10610de757610100808354040283529160200191610e12565b820191906000526020600020905b815481529060010190602001808311610df557829003601f168201915b505050505081526020016002820154815260200160038201548152602001600482015481526020016005820154815260200160068201548152602001600782015481526020016008820154815260200160098201548152602001600a820160009054906101000a900460ff166001811115610e8957fe5b6001811115610e9457fe5b8152602001600b8201548152602001600c8201548152602001600d8201548152602001600e820160009054906101000a900473ffffffffffffffffffffffffffffffffffffffff1673ffffffffffffffffffffffffffffffffffffffff1673ffffffffffffffffffffffffffffffffffffffff168152602001600f820154815250509050818160a001511161137d57600073ffffffffffffffffffffffffffffffffffffffff16816101c0015173ffffffffffffffffffffffffffffffffffffffff1614610fbd5760008161016001511115610fbc57806101c0015173ffffffffffffffffffffffffffffffffffffffff166108fc8261016001519081150290604051600060405180830381858888f19350505050158015610fba573d6000803e3d6000fd5b505b5b60008090505b601e8054905081101561112d576000601e8281548110610fdf57fe5b9060005260206000200160009054906101000a900473ffffffffffffffffffffffffffffffffffffffff169050601f60008273ffffffffffffffffffffffffffffffffffffffff1673ffffffffffffffffffffffffffffffffffffffff16815260200190815260200160002060008082016000905560018201600090556002820160006101000a81549073ffffffffffffffffffffffffffffffffffffffff02191690556002820160146101000a81549060ff02191690555050602060008273ffffffffffffffffffffffffffffffffffffffff1673ffffffffffffffffffffffffffffffffffffffff16815260200190815260200160002060009055602160008273ffffffffffffffffffffffffffffffffffffffff1673ffffffffffffffffffffffffffffffffffffffff16815260200190815260200160002060009055508080600101915050610fc3565b50601e600061113c9190615228565b60004290506000819050600061115f846060015184613fb490919063ffffffff16565b905060008460c00151905060008561010001519050600060469050600061119460018960000151613fb490919063ffffffff16565b90506040518061020001604052808281526020018960200151815260200188815260200189606001518152602001878152602001868152602001858152602001858152602001848152602001848152602001600060018111156111f357fe5b8152602001600081526020016000815260200160008152602001600b60009054906101000a900473ffffffffffffffffffffffffffffffffffffffff1673ffffffffffffffffffffffffffffffffffffffff16815260200183815250600e600082015181600001556020820151816001019080519060200190611277929190615249565b5060408201518160020155606082015181600301556080820151816004015560a0820151816005015560c0820151816006015560e082015181600701556101008201518160080155610120820151816009015561014082015181600a0160006101000a81548160ff021916908360018111156112ef57fe5b021790555061016082015181600b015561018082015181600c01556101a082015181600d01556101c082015181600e0160006101000a81548173ffffffffffffffffffffffffffffffffffffffff021916908373ffffffffffffffffffffffffffffffffffffffff1602179055506101e082015181600f015590505060019950505050505050505050611384565b6000925050505b90565b600061139484848461403c565b61142d843361142885600160008a73ffffffffffffffffffffffffffffffffffffffff1673ffffffffffffffffffffffffffffffffffffffff16815260200190815260200160002060003373ffffffffffffffffffffffffffffffffffffffff1673ffffffffffffffffffffffffffffffffffffffff1681526020019081526020016000205461444c90919063ffffffff16565b613dbd565b600190509392505050565b600061144261518a565b600e6040518061020001604052908160008201548152602001600182018054600181600116156101000203166002900480601f0160208091040260200160405190810160405280929190818152602001828054600181600116156101000203166002900480156114f35780601f106114c8576101008083540402835291602001916114f3565b820191906000526020600020905b8154815290600101906020018083116114d657829003601f168201915b505050505081526020016002820154815260200160038201548152602001600482015481526020016005820154815260200160068201548152602001600782015481526020016008820154815260200160098201548152602001600a820160009054906101000a900460ff16600181111561156a57fe5b600181111561157557fe5b8152602001600b8201548152602001600c8201548152602001600d8201548152602001600e820160009054906101000a900473ffffffffffffffffffffffffffffffffffffffff1673ffffffffffffffffffffffffffffffffffffffff1673ffffffffffffffffffffffffffffffffffffffff168152602001600f8201548152505090508060e0015191505090565b6000806000806116126152c9565b601f60008773ffffffffffffffffffffffffffffffffffffffff1673ffffffffffffffffffffffffffffffffffffffff16815260200190815260200160002060405180608001604052908160008201548152602001600182015481526020016002820160009054906101000a900473ffffffffffffffffffffffffffffffffffffffff1673ffffffffffffffffffffffffffffffffffffffff1673ffffffffffffffffffffffffffffffffffffffff1681526020016002820160149054906101000a900460ff16151515158152505090508060200151945080600001519350602160008773ffffffffffffffffffffffffffffffffffffffff1673ffffffffffffffffffffffffffffffffffffffff168152602001908152602001600020549250602060008773ffffffffffffffffffffffffffffffffffffffff1673ffffffffffffffffffffffffffffffffffffffff168152602001908152602001600020549150848484849450945094509450509193509193565b6000600660009054906101000a900460ff16905090565b6000602060008373ffffffffffffffffffffffffffffffffffffffff1673ffffffffffffffffffffffffffffffffffffffff168152602001908152602001600020549050919050565b6000611884338461187f85600160003373ffffffffffffffffffffffffffffffffffffffff1673ffffffffffffffffffffffffffffffffffffffff16815260200190815260200160002060008973ffffffffffffffffffffffffffffffffffffffff1673ffffffffffffffffffffffffffffffffffffffff16815260200190815260200160002054613fb490919063ffffffff16565b613dbd565b6001905092915050565b6000600b60009054906101000a900473ffffffffffffffffffffffffffffffffffffffff1673ffffffffffffffffffffffffffffffffffffffff163373ffffffffffffffffffffffffffffffffffffffff1614611936576040517f08c379a00000000000000000000000000000000000000000000000000000000081526004018080602001828103825260228152602001806153526022913960400191505060405180910390fd5b3373ffffffffffffffffffffffffffffffffffffffff16600b60009054906101000a900473ffffffffffffffffffffffffffffffffffffffff1673ffffffffffffffffffffffffffffffffffffffff161415611be25761199461518a565b600e6040518061020001604052908160008201548152602001600182018054600181600116156101000203166002900480601f016020809104026020016040519081016040528092919081815260200182805460018160011615610100020316600290048015611a455780601f10611a1a57610100808354040283529160200191611a45565b820191906000526020600020905b815481529060010190602001808311611a2857829003601f168201915b505050505081526020016002820154815260200160038201548152602001600482015481526020016005820154815260200160068201548152602001600782015481526020016008820154815260200160098201548152602001600a820160009054906101000a900460ff166001811115611abc57fe5b6001811115611ac757fe5b8152602001600b8201548152602001600c8201548152602001600d8201548152602001600e820160009054906101000a900473ffffffffffffffffffffffffffffffffffffffff1673ffffffffffffffffffffffffffffffffffffffff1673ffffffffffffffffffffffffffffffffffffffff168152602001600f82015481525050905060008161016001511115611be057600b60009054906101000a900473ffffffffffffffffffffffffffffffffffffffff1673ffffffffffffffffffffffffffffffffffffffff166108fc8261016001519081150290604051600060405180830381858888f19350505050158015611bc6573d6000803e3d6000fd5b503373ffffffffffffffffffffffffffffffffffffffff16ff5b505b6000905090565b60008060008373ffffffffffffffffffffffffffffffffffffffff1673ffffffffffffffffffffffffffffffffffffffff168152602001908152602001600020549050919050565b6000600360008373ffffffffffffffffffffffffffffffffffffffff1673ffffffffffffffffffffffffffffffffffffffff16815260200190815260200160002060009054906101000a900460ff169050919050565b60006060600080600080600080600080600080600080611ca561518a565b600e6040518061020001604052908160008201548152602001600182018054600181600116156101000203166002900480601f016020809104026020016040519081016040528092919081815260200182805460018160011615610100020316600290048015611d565780601f10611d2b57610100808354040283529160200191611d56565b820191906000526020600020905b815481529060010190602001808311611d3957829003601f168201915b505050505081526020016002820154815260200160038201548152602001600482015481526020016005820154815260200160068201548152602001600782015481526020016008820154815260200160098201548152602001600a820160009054906101000a900460ff166001811115611dcd57fe5b6001811115611dd857fe5b8152602001600b8201548152602001600c8201548152602001600d8201548152602001600e820160009054906101000a900473ffffffffffffffffffffffffffffffffffffffff1673ffffffffffffffffffffffffffffffffffffffff1673ffffffffffffffffffffffffffffffffffffffff168152602001600f82015481525050905080600001519e5080602001519d5080604001519c5080606001519b5080608001519a508060a0015199508060e001519850806101200151975080610140015196508061016001519550806101a0015193508061018001519450806101c001519250806101e0015191508e8e8e8e8e8e8e8e8e8e8e8e8e8e9e509e509e509e509e509e509e509e509e509e509e509e509e509e5050909192939495969798999a9b9c9d565b6000600b60009054906101000a900473ffffffffffffffffffffffffffffffffffffffff1673ffffffffffffffffffffffffffffffffffffffff163373ffffffffffffffffffffffffffffffffffffffff1614611fa8576040517f08c379a00000000000000000000000000000000000000000000000000000000081526004018080602001828103825260228152602001806153526022913960400191505060405180910390fd5b3373ffffffffffffffffffffffffffffffffffffffff16600b60009054906101000a900473ffffffffffffffffffffffffffffffffffffffff1673ffffffffffffffffffffffffffffffffffffffff161461206b576040517f08c379a00000000000000000000000000000000000000000000000000000000081526004018080602001828103825260128152602001807f4d757374204f776e65722045786563757465000000000000000000000000000081525060200191505060405180910390fd5b600042905061207861518a565b600e6040518061020001604052908160008201548152602001600182018054600181600116156101000203166002900480601f0160208091040260200160405190810160405280929190818152602001828054600181600116156101000203166002900480156121295780601f106120fe57610100808354040283529160200191612129565b820191906000526020600020905b81548152906001019060200180831161210c57829003601f168201915b505050505081526020016002820154815260200160038201548152602001600482015481526020016005820154815260200160068201548152602001600782015481526020016008820154815260200160098201548152602001600a820160009054906101000a900460ff1660018111156121a057fe5b60018111156121ab57fe5b8152602001600b8201548152602001600c8201548152602001600d8201548152602001600e820160009054906101000a900473ffffffffffffffffffffffffffffffffffffffff1673ffffffffffffffffffffffffffffffffffffffff1673ffffffffffffffffffffffffffffffffffffffff168152602001600f820154815250509050818160a00151116122455760019250505061224c565b6000925050505b90565b6000600b60009054906101000a900473ffffffffffffffffffffffffffffffffffffffff16905090565b606060058054600181600116156101000203166002900480601f0160208091040260200160405190810160405280929190818152602001828054600181600116156101000203166002900480156123115780601f106122e657610100808354040283529160200191612311565b820191906000526020600020905b8154815290600101906020018083116122f457829003601f168201915b5050505050905090565b6000612326826144d5565b612398576040517f08c379a00000000000000000000000000000000000000000000000000000000081526004018080602001828103825260148152602001807f7265636f6d6d656e645f75736572204572726f7200000000000000000000000081525060200191505060405180910390fd5b6123a061518a565b600e6040518061020001604052908160008201548152602001600182018054600181600116156101000203166002900480601f0160208091040260200160405190810160405280929190818152602001828054600181600116156101000203166002900480156124515780601f1061242657610100808354040283529160200191612451565b820191906000526020600020905b81548152906001019060200180831161243457829003601f168201915b505050505081526020016002820154815260200160038201548152602001600482015481526020016005820154815260200160068201548152602001600782015481526020016008820154815260200160098201548152602001600a820160009054906101000a900460ff1660018111156124c857fe5b60018111156124d357fe5b8152602001600b8201548152602001600c8201548152602001600d8201548152602001600e820160009054906101000a900473ffffffffffffffffffffffffffffffffffffffff1673ffffffffffffffffffffffffffffffffffffffff1673ffffffffffffffffffffffffffffffffffffffff168152602001600f8201548152505090506000816000015114156125d2576040517f08c379a000000000000000000000000000000000000000000000000000000000815260040180806020018281038252600e8152602001807f67616d65206e6f7420657869737400000000000000000000000000000000000081525060200191505060405180910390fd5b6000349050600033905060008360e0015190506000846101a00151905060008114156125fd57600190505b612606816145db565b90506000600181111561261557fe5b856101400151600181111561262657fe5b14612699576040517f08c379a00000000000000000000000000000000000000000000000000000000081526004018080602001828103825260118152602001807f546869732047616d65204e6f7420496e6700000000000000000000000000000081525060200191505060405180910390fd5b428560a0015111612712576040517f08c379a000000000000000000000000000000000000000000000000000000000815260040180806020018281038252600c8152602001807f47616d65204973204f766572000000000000000000000000000000000000000081525060200191505060405180910390fd5b83821115612788576040517f08c379a00000000000000000000000000000000000000000000000000000000081526004018080602001828103825260208152602001807f546869732047616d6520427579205072696365206973206e6f74206c696d697481525060200191505060405180910390fd5b60006127b260646127a4600a548861484b90919063ffffffff16565b6148e390919063ffffffff16565b905060006127de60646127d06009548961484b90919063ffffffff16565b6148e390919063ffffffff16565b9050600061280a60646127fc600c548a61484b90919063ffffffff16565b6148e390919063ffffffff16565b905060006128366064612828600d548b61484b90919063ffffffff16565b6148e390919063ffffffff16565b90506000600b60009054906101000a900473ffffffffffffffffffffffffffffffffffffffff1690506128676152c9565b601f60008a73ffffffffffffffffffffffffffffffffffffffff1673ffffffffffffffffffffffffffffffffffffffff16815260200190815260200160002060405180608001604052908160008201548152602001600182015481526020016002820160009054906101000a900473ffffffffffffffffffffffffffffffffffffffff1673ffffffffffffffffffffffffffffffffffffffff1673ffffffffffffffffffffffffffffffffffffffff1681526020016002820160149054906101000a900460ff16151515158152505090508c91508c816040019073ffffffffffffffffffffffffffffffffffffffff16908173ffffffffffffffffffffffffffffffffffffffff1681525050806060015180156129b55750600073ffffffffffffffffffffffffffffffffffffffff16816040015173ffffffffffffffffffffffffffffffffffffffff1614155b156129c257806040015191505b60008090505b601e80549050811015612a62576000601e82815481106129e457fe5b9060005260206000200160009054906101000a900473ffffffffffffffffffffffffffffffffffffffff169050602260008273ffffffffffffffffffffffffffffffffffffffff1673ffffffffffffffffffffffffffffffffffffffff168152602001908152602001600020600090555080806001019150506129c8565b50600b60009054906101000a900473ffffffffffffffffffffffffffffffffffffffff1673ffffffffffffffffffffffffffffffffffffffff1673ffffffffffffffffffffffffffffffffffffffff166108fc869081150290604051600060405180830381858888f19350505050158015612ae1573d6000803e3d6000fd5b507fc0d91c82e97814aa565f0d03c18f64ee424f76125f42d94ddfceff120b4f8995600b60009054906101000a900473ffffffffffffffffffffffffffffffffffffffff1686604051808373ffffffffffffffffffffffffffffffffffffffff1673ffffffffffffffffffffffffffffffffffffffff168152602001828152602001806020018281038252600e8152602001807f5365727669636520636861726765000000000000000000000000000000000000815250602001935050505060405180910390a18173ffffffffffffffffffffffffffffffffffffffff166108fc879081150290604051600060405180830381858888f19350505050158015612bee573d6000803e3d6000fd5b50612c4186602160008573ffffffffffffffffffffffffffffffffffffffff1673ffffffffffffffffffffffffffffffffffffffff16815260200190815260200160002054613fb490919063ffffffff16565b602160008473ffffffffffffffffffffffffffffffffffffffff1673ffffffffffffffffffffffffffffffffffffffff168152602001908152602001600020819055507f4374886bfaca751b7f029933ffc2bad8439bbbb974547c4d1bf00d230c04ca068287604051808373ffffffffffffffffffffffffffffffffffffffff1673ffffffffffffffffffffffffffffffffffffffff16815260200182815260200180602001828103825260178152602001807f4177617264206f66207265636f6d6d656e646174696f6e000000000000000000815250602001935050505060405180910390a1600b60009054906101000a900473ffffffffffffffffffffffffffffffffffffffff1673ffffffffffffffffffffffffffffffffffffffff168273ffffffffffffffffffffffffffffffffffffffff161415612eb257600b60009054906101000a900473ffffffffffffffffffffffffffffffffffffffff1673ffffffffffffffffffffffffffffffffffffffff166108fc849081150290604051600060405180830381858888f19350505050158015612de6573d6000803e3d6000fd5b507f6b4d7266512708fa68ea31c0b0828f3fca58f0fabf63d5301e3b79dde007fdc1600b60009054906101000a900473ffffffffffffffffffffffffffffffffffffffff1684604051808373ffffffffffffffffffffffffffffffffffffffff1673ffffffffffffffffffffffffffffffffffffffff168152602001828152602001806020018281038252600f8152602001807f52656261746520706c6174666f726d0000000000000000000000000000000000815250602001935050505060405180910390a1612f9e565b8873ffffffffffffffffffffffffffffffffffffffff166108fc849081150290604051600060405180830381858888f19350505050158015612ef8573d6000803e3d6000fd5b507f6b4d7266512708fa68ea31c0b0828f3fca58f0fabf63d5301e3b79dde007fdc18984604051808373ffffffffffffffffffffffffffffffffffffffff1673ffffffffffffffffffffffffffffffffffffffff168152602001828152602001806020018281038252600f8152602001807f52656261746520746f2075736572730000000000000000000000000000000000815250602001935050505060405180910390a15b600080905060008090505b601e8054905081101561312b576000601e8281548110612fc557fe5b9060005260206000200160009054906101000a900473ffffffffffffffffffffffffffffffffffffffff1690506000602060008373ffffffffffffffffffffffffffffffffffffffff1673ffffffffffffffffffffffffffffffffffffffff168152602001908152602001600020549050600080905061304483614972565b156130715761306e8c613060848c61484b90919063ffffffff16565b6148e390919063ffffffff16565b90505b6130848186613fb490919063ffffffff16565b94506130d881602260008673ffffffffffffffffffffffffffffffffffffffff1673ffffffffffffffffffffffffffffffffffffffff16815260200190815260200160002054613fb490919063ffffffff16565b602260008573ffffffffffffffffffffffffffffffffffffffff1673ffffffffffffffffffffffffffffffffffffffff168152602001908152602001600020819055505050508080600101915050612fa9565b506000613141888d61444c90919063ffffffff16565b9050613156878261444c90919063ffffffff16565b905061316b828261444c90919063ffffffff16565b9050613180858261444c90919063ffffffff16565b905082606001511561329a57601f60008c73ffffffffffffffffffffffffffffffffffffffff1673ffffffffffffffffffffffffffffffffffffffff16815260200190815260200160002060405180608001604052908160008201548152602001600182015481526020016002820160009054906101000a900473ffffffffffffffffffffffffffffffffffffffff1673ffffffffffffffffffffffffffffffffffffffff1673ffffffffffffffffffffffffffffffffffffffff1681526020016002820160149054906101000a900460ff161515151581525050925083836040019073ffffffffffffffffffffffffffffffffffffffff16908173ffffffffffffffffffffffffffffffffffffffff168152505061333f565b604051806080016040528060008152602001600081526020018573ffffffffffffffffffffffffffffffffffffffff168152602001600115158152509250601e8b90806001815401808255809150509060018203906000526020600020016000909192909190916101000a81548173ffffffffffffffffffffffffffffffffffffffff021916908373ffffffffffffffffffffffffffffffffffffffff160217905550505b6133568c8460200151613fb490919063ffffffff16565b83602001818152505082601f60008d73ffffffffffffffffffffffffffffffffffffffff1673ffffffffffffffffffffffffffffffffffffffff168152602001908152602001600020600082015181600001556020820151816001015560408201518160020160006101000a81548173ffffffffffffffffffffffffffffffffffffffff021916908373ffffffffffffffffffffffffffffffffffffffff16021790555060608201518160020160146101000a81548160ff02191690831515021790555090505060008090505b601e805490508110156137ba576000601e828154811061343f57fe5b9060005260206000200160009054906101000a900473ffffffffffffffffffffffffffffffffffffffff1690506000602260008373ffffffffffffffffffffffffffffffffffffffff1673ffffffffffffffffffffffffffffffffffffffff16815260200190815260200160002054905060008111156137ab576134c16152c9565b601f60008473ffffffffffffffffffffffffffffffffffffffff1673ffffffffffffffffffffffffffffffffffffffff16815260200190815260200160002060405180608001604052908160008201548152602001600182015481526020016002820160009054906101000a900473ffffffffffffffffffffffffffffffffffffffff1673ffffffffffffffffffffffffffffffffffffffff1673ffffffffffffffffffffffffffffffffffffffff1681526020016002820160149054906101000a900460ff16151515158152505090508060600151156135c1576135b3828260000151613fb490919063ffffffff16565b816000018181525050613600565b604051806080016040528083815260200160008152602001600073ffffffffffffffffffffffffffffffffffffffff1681526020016001151581525090505b80601f60008573ffffffffffffffffffffffffffffffffffffffff1673ffffffffffffffffffffffffffffffffffffffff168152602001908152602001600020600082015181600001556020820151816001015560408201518160020160006101000a81548173ffffffffffffffffffffffffffffffffffffffff021916908373ffffffffffffffffffffffffffffffffffffffff16021790555060608201518160020160146101000a81548160ff0219169083151502179055509050508273ffffffffffffffffffffffffffffffffffffffff166108fc839081150290604051600060405180830381858888f19350505050158015613704573d6000803e3d6000fd5b507fde3810754a10190424b293c24463eeaa95fa7548782a204075a6acb2170e40e48383604051808373ffffffffffffffffffffffffffffffffffffffff1673ffffffffffffffffffffffffffffffffffffffff16815260200182815260200180602001828103825260108152602001807f53656e6420626f6e757320617761726400000000000000000000000000000000815250602001935050505060405180910390a1505b50508080600101915050613423565b5060008090505b601e8054905081101561385b576000601e82815481106137dd57fe5b9060005260206000200160009054906101000a900473ffffffffffffffffffffffffffffffffffffffff169050602260008273ffffffffffffffffffffffffffffffffffffffff1673ffffffffffffffffffffffffffffffffffffffff168152602001908152602001600020600090555080806001019150506137c1565b506138af6001602060008e73ffffffffffffffffffffffffffffffffffffffff1673ffffffffffffffffffffffffffffffffffffffff16815260200190815260200160002054613fb490919063ffffffff16565b602060008d73ffffffffffffffffffffffffffffffffffffffff1673ffffffffffffffffffffffffffffffffffffffff168152602001908152602001600020819055506138fd8b8284614b77565b507fb6668bab6642a507a81c08f30893aaa47e0c29df8e88ad6b9c19ffd3a2296cf38b8d42604051808473ffffffffffffffffffffffffffffffffffffffff1673ffffffffffffffffffffffffffffffffffffffff16815260200183815260200182815260200180602001828103825260038152602001807f427579000000000000000000000000000000000000000000000000000000000081525060200194505050505060405180910390a16139e8600b60009054906101000a900473ffffffffffffffffffffffffffffffffffffffff168c6139d9611789565b60ff16600a0a6023540261403c565b60019d5050505050505050505050505050919050565b6000613a993384613a9485600160003373ffffffffffffffffffffffffffffffffffffffff1673ffffffffffffffffffffffffffffffffffffffff16815260200190815260200160002060008973ffffffffffffffffffffffffffffffffffffffff1673ffffffffffffffffffffffffffffffffffffffff1681526020019081526020016000205461444c90919063ffffffff16565b613dbd565b6001905092915050565b6000613ab033848461403c565b6001905092915050565b600042905090565b6000600b60009054906101000a900473ffffffffffffffffffffffffffffffffffffffff1673ffffffffffffffffffffffffffffffffffffffff163373ffffffffffffffffffffffffffffffffffffffff1614613b6a576040517f08c379a00000000000000000000000000000000000000000000000000000000081526004018080602001828103825260228152602001806153526022913960400191505060405180910390fd5b613ba5600b60009054906101000a900473ffffffffffffffffffffffffffffffffffffffff16613b98611789565b60ff16600a0a8402614efd565b60019050919050565b6000600160008473ffffffffffffffffffffffffffffffffffffffff1673ffffffffffffffffffffffffffffffffffffffff16815260200190815260200160002060008373ffffffffffffffffffffffffffffffffffffffff1673ffffffffffffffffffffffffffffffffffffffff16815260200190815260200160002054905092915050565b6000600b60009054906101000a900473ffffffffffffffffffffffffffffffffffffffff1673ffffffffffffffffffffffffffffffffffffffff163373ffffffffffffffffffffffffffffffffffffffff1614613cdd576040517f08c379a00000000000000000000000000000000000000000000000000000000081526004018080602001828103825260228152602001806153526022913960400191505060405180910390fd5b8273ffffffffffffffffffffffffffffffffffffffff16600b60009054906101000a900473ffffffffffffffffffffffffffffffffffffffff1673ffffffffffffffffffffffffffffffffffffffff161415613da1576040517f08c379a00000000000000000000000000000000000000000000000000000000081526004018080602001828103825260148152602001807f63616e206e6f7420667265657a65206f776e657200000000000000000000000081525060200191505060405180910390fd5b613dab83836150b8565b905092915050565b6000600754905090565b600073ffffffffffffffffffffffffffffffffffffffff168373ffffffffffffffffffffffffffffffffffffffff161415613e43576040517f08c379a00000000000000000000000000000000000000000000000000000000081526004018080602001828103825260248152602001806153dc6024913960400191505060405180910390fd5b600073ffffffffffffffffffffffffffffffffffffffff168273ffffffffffffffffffffffffffffffffffffffff161415613ec9576040517f08c379a00000000000000000000000000000000000000000000000000000000081526004018080602001828103825260228152602001806153746022913960400191505060405180910390fd5b80600160008573ffffffffffffffffffffffffffffffffffffffff1673ffffffffffffffffffffffffffffffffffffffff16815260200190815260200160002060008473ffffffffffffffffffffffffffffffffffffffff1673ffffffffffffffffffffffffffffffffffffffff168152602001908152602001600020819055508173ffffffffffffffffffffffffffffffffffffffff168373ffffffffffffffffffffffffffffffffffffffff167f8c5be1e5ebec7d5bd14f71427d1e84f3dd0314c0f7b2291e5b200ac8c7c3b925836040518082815260200191505060405180910390a3505050565b600080828401905083811015614032576040517f08c379a000000000000000000000000000000000000000000000000000000000815260040180806020018281038252601b8152602001807f536166654d6174683a206164646974696f6e206f766572666c6f77000000000081525060200191505060405180910390fd5b8091505092915050565b600360008473ffffffffffffffffffffffffffffffffffffffff1673ffffffffffffffffffffffffffffffffffffffff16815260200190815260200160002060009054906101000a900460ff16156140fc576040517f08c379a00000000000000000000000000000000000000000000000000000000081526004018080602001828103825260178152602001807f74686973206163636f756e74206861732066726f7a656e00000000000000000081525060200191505060405180910390fd5b600073ffffffffffffffffffffffffffffffffffffffff168373ffffffffffffffffffffffffffffffffffffffff161415614182576040517f08c379a00000000000000000000000000000000000000000000000000000000081526004018080602001828103825260258152602001806153b76025913960400191505060405180910390fd5b600073ffffffffffffffffffffffffffffffffffffffff168273ffffffffffffffffffffffffffffffffffffffff161415614208576040517f08c379a000000000000000000000000000000000000000000000000000000000815260040180806020018281038252602381526020018061532f6023913960400191505060405180910390fd5b806000808573ffffffffffffffffffffffffffffffffffffffff1673ffffffffffffffffffffffffffffffffffffffff1681526020019081526020016000205410156142bc576040517f08c379a00000000000000000000000000000000000000000000000000000000081526004018080602001828103825260188152602001807f73656e64657220616d6f756e74204e6f7420656e6f756768000000000000000081525060200191505060405180910390fd5b61430d816000808673ffffffffffffffffffffffffffffffffffffffff1673ffffffffffffffffffffffffffffffffffffffff1681526020019081526020016000205461444c90919063ffffffff16565b6000808573ffffffffffffffffffffffffffffffffffffffff1673ffffffffffffffffffffffffffffffffffffffff168152602001908152602001600020819055506143a0816000808573ffffffffffffffffffffffffffffffffffffffff1673ffffffffffffffffffffffffffffffffffffffff16815260200190815260200160002054613fb490919063ffffffff16565b6000808473ffffffffffffffffffffffffffffffffffffffff1673ffffffffffffffffffffffffffffffffffffffff168152602001908152602001600020819055508173ffffffffffffffffffffffffffffffffffffffff168373ffffffffffffffffffffffffffffffffffffffff167fddf252ad1be2c89b69c2b068fc378daa952ba7f163c4a11628f55a4df523b3ef836040518082815260200191505060405180910390a3505050565b6000828211156144c4576040517f08c379a000000000000000000000000000000000000000000000000000000000815260040180806020018281038252601e8152602001807f536166654d6174683a207375627472616374696f6e206f766572666c6f77000081525060200191505060405180910390fd5b600082840390508091505092915050565b60008073ffffffffffffffffffffffffffffffffffffffff168273ffffffffffffffffffffffffffffffffffffffff16141561451457600090506145d6565b600b60009054906101000a900473ffffffffffffffffffffffffffffffffffffffff1673ffffffffffffffffffffffffffffffffffffffff168273ffffffffffffffffffffffffffffffffffffffff16141561457357600190506145d6565b601f60008373ffffffffffffffffffffffffffffffffffffffff1673ffffffffffffffffffffffffffffffffffffffff16815260200190815260200160002060020160149054906101000a900460ff16156145d157600190506145d6565b600090505b919050565b600081905060006145fb600754600a0a600361484b90919063ffffffff16565b905060008090505b601e80549050811015614841576000601e828154811061461f57fe5b9060005260206000200160009054906101000a900473ffffffffffffffffffffffffffffffffffffffff169050600b60009054906101000a900473ffffffffffffffffffffffffffffffffffffffff1673ffffffffffffffffffffffffffffffffffffffff168173ffffffffffffffffffffffffffffffffffffffff1614156146a85750614834565b6146b06152c9565b601f60008373ffffffffffffffffffffffffffffffffffffffff1673ffffffffffffffffffffffffffffffffffffffff16815260200190815260200160002060405180608001604052908160008201548152602001600182015481526020016002820160009054906101000a900473ffffffffffffffffffffffffffffffffffffffff1673ffffffffffffffffffffffffffffffffffffffff1673ffffffffffffffffffffffffffffffffffffffff1681526020016002820160149054906101000a900460ff16151515158152505090506000602060008473ffffffffffffffffffffffffffffffffffffffff1673ffffffffffffffffffffffffffffffffffffffff168152602001908152602001600020549050816060015180156147d65750600081115b1561483057600061480f600754600a0a614801856020015186600001516148e390919063ffffffff16565b61484b90919063ffffffff16565b905085811061482e5761482b828961444c90919063ffffffff16565b96505b505b5050505b8080600101915050614603565b5081915050919050565b60008083141561485e57600090506148dd565b600082141561487057600090506148dd565b600082840290508284828161488157fe5b04146148d8576040517f08c379a00000000000000000000000000000000000000000000000000000000081526004018080602001828103825260218152602001806153966021913960400191505060405180910390fd5b809150505b92915050565b600080821161495a576040517f08c379a000000000000000000000000000000000000000000000000000000000815260040180806020018281038252601a8152602001807f536166654d6174683a206469766973696f6e206279207a65726f00000000000081525060200191505060405180910390fd5b600082848161496557fe5b0490508091505092915050565b600060019050600b60009054906101000a900473ffffffffffffffffffffffffffffffffffffffff1673ffffffffffffffffffffffffffffffffffffffff168273ffffffffffffffffffffffffffffffffffffffff1614156149d75760019050614b72565b60006149f2600754600a0a600361484b90919063ffffffff16565b90506149fc6152c9565b601f60008573ffffffffffffffffffffffffffffffffffffffff1673ffffffffffffffffffffffffffffffffffffffff16815260200190815260200160002060405180608001604052908160008201548152602001600182015481526020016002820160009054906101000a900473ffffffffffffffffffffffffffffffffffffffff1673ffffffffffffffffffffffffffffffffffffffff1673ffffffffffffffffffffffffffffffffffffffff1681526020016002820160149054906101000a900460ff16151515158152505090506000602060008673ffffffffffffffffffffffffffffffffffffffff1673ffffffffffffffffffffffffffffffffffffffff16815260200190815260200160002054905081606001518015614b225750600081115b15614b6b576000614b5b600754600a0a614b4d856020015186600001516148e390919063ffffffff16565b61484b90919063ffffffff16565b9050838110614b6957600094505b505b8393505050505b919050565b600080429050614b8561518a565b600e6040518061020001604052908160008201548152602001600182018054600181600116156101000203166002900480601f016020809104026020016040519081016040528092919081815260200182805460018160011615610100020316600290048015614c365780601f10614c0b57610100808354040283529160200191614c36565b820191906000526020600020905b815481529060010190602001808311614c1957829003601f168201915b505050505081526020016002820154815260200160038201548152602001600482015481526020016005820154815260200160068201548152602001600782015481526020016008820154815260200160098201548152602001600a820160009054906101000a900460ff166001811115614cad57fe5b6001811115614cb857fe5b8152602001600b8201548152602001600c8201548152602001600d8201548152602001600e820160009054906101000a900473ffffffffffffffffffffffffffffffffffffffff1673ffffffffffffffffffffffffffffffffffffffff1673ffffffffffffffffffffffffffffffffffffffff168152602001600f82015481525050905085600e800160006101000a81548173ffffffffffffffffffffffffffffffffffffffff021916908373ffffffffffffffffffffffffffffffffffffffff160217905550614d9785826101600151613fb490919063ffffffff16565b600e600b01819055506000614dbb6001836101a00151613fb490919063ffffffff16565b905080600e600d018190555082600e60040181905550614de8826060015184613fb490919063ffffffff16565b600e60050181905550816101e00151811415614e64576000614e1960028461012001516148e390919063ffffffff16565b90508083610120018181525050614e3f6002846101e0015161484b90919063ffffffff16565b836101e001818152505080600e60090181905550826101e00151600e600f0181905550505b6000614e966064614e88600854600a0a8661012001516148e390919063ffffffff16565b613fb490919063ffffffff16565b905060008360e001519050614ec76064614eb9848461484b90919063ffffffff16565b6148e390919063ffffffff16565b600e60070181905550614ee887600e600c0154613fb490919063ffffffff16565b600e600c018190555050505050509392505050565b600073ffffffffffffffffffffffffffffffffffffffff168273ffffffffffffffffffffffffffffffffffffffff161415614fa0576040517f08c379a000000000000000000000000000000000000000000000000000000000815260040180806020018281038252601f8152602001807f45524332303a206d696e7420746f20746865207a65726f20616464726573730081525060200191505060405180910390fd5b614fb581600254613fb490919063ffffffff16565b60028190555061500c816000808573ffffffffffffffffffffffffffffffffffffffff1673ffffffffffffffffffffffffffffffffffffffff16815260200190815260200160002054613fb490919063ffffffff16565b6000808473ffffffffffffffffffffffffffffffffffffffff1673ffffffffffffffffffffffffffffffffffffffff168152602001908152602001600020819055508173ffffffffffffffffffffffffffffffffffffffff16600073ffffffffffffffffffffffffffffffffffffffff167fddf252ad1be2c89b69c2b068fc378daa952ba7f163c4a11628f55a4df523b3ef836040518082815260200191505060405180910390a35050565b600081600360008573ffffffffffffffffffffffffffffffffffffffff1673ffffffffffffffffffffffffffffffffffffffff16815260200190815260200160002060006101000a81548160ff0219169083151502179055507f48335238b4855f35377ed80f164e8c6f3c366e54ac00b96a6402d4a9814a03a58383604051808373ffffffffffffffffffffffffffffffffffffffff1673ffffffffffffffffffffffffffffffffffffffff168152602001821515151581526020019250505060405180910390a16001905092915050565b60405180610200016040528060008152602001606081526020016000815260200160008152602001600081526020016000815260200160008152602001600081526020016000815260200160008152602001600060018111156151e957fe5b8152602001600081526020016000815260200160008152602001600073ffffffffffffffffffffffffffffffffffffffff168152602001600081525090565b50805460008255906000526020600020908101906152469190615309565b50565b828054600181600116156101000203166002900490600052602060002090601f016020900481019282601f1061528a57805160ff19168380011785556152b8565b828001600101855582156152b8579182015b828111156152b757825182559160200191906001019061529c565b5b5090506152c59190615309565b5090565b60405180608001604052806000815260200160008152602001600073ffffffffffffffffffffffffffffffffffffffff1681526020016000151581525090565b61532b91905b8082111561532757600081600090555060010161530f565b5090565b9056fe45524332303a207472616e7366657220746f20746865207a65726f20616464726573734f6e6c79206f776e65722063616e2063616c6c20746869732066756e6374696f6e2e45524332303a20617070726f766520746f20746865207a65726f2061646472657373536166654d6174683a206d756c7469706c69636174696f6e206f766572666c6f7745524332303a207472616e736665722066726f6d20746865207a65726f206164647265737345524332303a20617070726f76652066726f6d20746865207a65726f2061646472657373a265627a7a723158204f7c8ed2a69c1cead1470be14317f608a8ed13f7a0f593317c0bb3ebf1e47f7264736f6c63430005110032536166654d6174683a206d756c7469706c69636174696f6e206f766572666c6f77",
  "source": "pragma solidity ^0.5.4;\r\n\r\nimport \"./SafeMath.sol\";\r\nimport \"./Entitys.sol\";\r\n\r\nimport \"./ERC20.sol\";\r\nimport \"./ERC20Detailed.sol\";\r\n\r\n/***\r\n    \r\n */\r\ncontract lira is ERC20, ERC20Detailed {\r\n    modifier onlyOwner {\r\n        require(msg.sender == _owner, \"Only owner can call this function.\");\r\n        _;\r\n    }\r\n\r\n    using SafeMath for uint256;\r\n\r\n    /** */\r\n    //assert(1 wei == 1);\r\n    //assert(1 szabo == 1e12);\r\n    //assert(1 finney == 1e15);\r\n    //assert(1 ether == 1e18);\r\n    uint256 private _trx_decimals = 18;\r\n    uint256 private _price_upper_decimals = 18;\r\n\r\n    /** */\r\n    uint256 private _fee_rate = 10;\r\n    /** */\r\n    uint256 private _recommend_rate = 10;\r\n    address private _owner;\r\n\r\n    /** */\r\n    uint256 private _bonus_rate = 45;\r\n\r\n    /* */\r\n    uint256 private _feeback_rate = 5;\r\n    //10% 10% 5% 30% 45%\r\n    /**\r\n        \r\n     */\r\n    Entitys.GameStruct private current_game;\r\n\r\n    //\r\n    address[] private game_buy_users;\r\n\r\n    /***\r\n    ->->\r\n    */\r\n    mapping(address => Entitys.UserBenefitAndInvestment)\r\n        private game_investment_benefit;\r\n    /**\r\n    ->->\r\n     */\r\n    mapping(address => uint256) private game_user_buy_count;\r\n\r\n    /**\r\n    ->\r\n     */\r\n    mapping(address => uint256) private user_recommend_value;\r\n\r\n    //\r\n    mapping(address => uint256) private user_credit_log;\r\n\r\n    //MTB\r\n    uint256 private buy_airdrop_mtb_count = uint256(1000000);\r\n\r\n    constructor(\r\n        uint256 _game_id,\r\n        string memory _name,\r\n        uint256 _game_times,\r\n        uint256 _price,\r\n        uint256 _price_upper_rate\r\n    ) public ERC20Detailed(\"LIRA\", \"LIRA\", uint8(_trx_decimals)) {\r\n        _owner = msg.sender;\r\n        uint256 temp_now = now;\r\n        uint256 _last_buy_time = temp_now;\r\n        uint256 _over_time = temp_now.add(_game_times);\r\n        uint256 _buy_price = _price * (10**uint256(_trx_decimals)).div(10**2);\r\n        uint256 price_upper_rate = _price_upper_rate.mul(\r\n            10**_price_upper_decimals\r\n        ); //1^18\r\n        uint256 _next_change_rate_count = 70;\r\n        current_game = Entitys.GameStruct({\r\n            game_id: _game_id,\r\n            name: _name,\r\n            begin_time: temp_now,\r\n            game_times: _game_times,\r\n            last_buy_time: _last_buy_time,\r\n            over_time: _over_time,\r\n            base_prce: _buy_price,\r\n            price: _buy_price,\r\n            base_price_upper_rate: price_upper_rate,\r\n            price_upper_rate: price_upper_rate,\r\n            status: Entitys.GameStatus.Ing,\r\n            prize_value: 0,\r\n            bonus_value: 0,\r\n            buy_count: 0,\r\n            last_buy_user_address: _owner,\r\n            next_change_rate_count: _next_change_rate_count\r\n        });\r\n\r\n        _mint(msg.sender, 10_000_000_000 * (10**uint256(decimals())));\r\n    }\r\n\r\n    /**\r\n        \r\n        \r\n    */\r\n    function getNow() public view returns (uint256 nowvalue) {\r\n        return now;\r\n    }\r\n\r\n    /***\r\n     *  \r\n     * */\r\n    function getDecimals() public view returns (uint256) {\r\n        return _trx_decimals;\r\n    }\r\n\r\n    /***\r\n     *  \r\n     * */\r\n    function getOwner() public view returns (address) {\r\n        return _owner;\r\n    }\r\n\r\n    /**\r\n     * \r\n     */\r\n    function getCurrentRoundInfo()\r\n        public\r\n        view\r\n        returns (\r\n            uint256 game_id,\r\n            string memory name,\r\n            uint256 begin_time,\r\n            uint256 game_times,\r\n            uint256 last_buy_time,\r\n            uint256 over_time,\r\n            uint256 price,\r\n            uint256 price_upper_rate,\r\n            Entitys.GameStatus status,\r\n            uint256 prize_value,\r\n            uint256 bonus_value,\r\n            uint256 buy_count,\r\n            address last_buy_user_address,\r\n            uint256 next_change_rate_count\r\n        )\r\n    {\r\n        Entitys.GameStruct memory game = current_game;\r\n        game_id = game.game_id;\r\n        name = game.name;\r\n        begin_time = game.begin_time;\r\n        game_times = game.game_times;\r\n        last_buy_time = game.last_buy_time;\r\n        over_time = game.over_time;\r\n        price = game.price;\r\n        price_upper_rate = game.price_upper_rate;\r\n        status = game.status;\r\n        prize_value = game.prize_value;\r\n        buy_count = game.buy_count;\r\n        bonus_value = game.bonus_value;\r\n        last_buy_user_address = game.last_buy_user_address;\r\n        next_change_rate_count = game.next_change_rate_count;\r\n        return (\r\n            game_id,\r\n            name,\r\n            begin_time,\r\n            game_times,\r\n            last_buy_time,\r\n            over_time,\r\n            price,\r\n            price_upper_rate,\r\n            status,\r\n            prize_value,\r\n            bonus_value,\r\n            buy_count,\r\n            last_buy_user_address,\r\n            next_change_rate_count\r\n        );\r\n    }\r\n\r\n    function askprice() public view returns (uint256 price) {\r\n        Entitys.GameStruct memory game = current_game;\r\n        return game.price;\r\n    }\r\n\r\n    //\r\n    event SendRecommend(address bidder, uint256 amount, string event_msg);\r\n\r\n    //\r\n    event SendFeeBack(address bidder, uint256 amount, string event_msg);\r\n    //\r\n    event SendPlatformFee(address bidder, uint256 amount, string event_msg);\r\n    //\r\n    event CalcBonus(address bidder, uint256 amount, string event_msg);\r\n\r\n    //\r\n    event TransferAmount(address bidder, uint256 amount, string event_msg);\r\n\r\n    //\r\n    event BuyGameEvent(\r\n        address bidder,\r\n        uint256 amount,\r\n        uint256 buy_time,\r\n        string event_msg\r\n    );\r\n\r\n    function checkRecommend(address recommend_user)\r\n        private\r\n        view\r\n        returns (bool)\r\n    {\r\n        if (recommend_user == address(0)) {\r\n            return false;\r\n        }\r\n        if (recommend_user == _owner) {\r\n            return true;\r\n        }\r\n        if (game_investment_benefit[recommend_user].isValue) {\r\n            return true;\r\n        }\r\n        return false;\r\n    }\r\n\r\n    /**\r\n     *@recommend_user \r\n     * token\r\n     *1TRX           =\"TJBHq5um63GPdmmjhmSppuep69bygK7cJE====1000000\"\r\n     *0.1TRX         =\"TJBHq5um63GPdmmjhmSppuep69bygK7cJE====100000\"\r\n     *0.000001TRX    =\"TJBHq5um63GPdmmjhmSppuep69bygK7cJE====1\"\r\n     */\r\n    function buy_token(address recommend_user)\r\n        public\r\n        payable\r\n        returns (bool success)\r\n    {\r\n        require(checkRecommend(recommend_user), \"recommend_user Error\");\r\n        // grab time\r\n        //uint256 _now = now;\r\n        Entitys.GameStruct memory game = current_game;\r\n        require(game.game_id != uint256(0), \"game not exist\");\r\n        //1 TRX           =\"TJBHq5um63GPdmmjhmSppuep69bygK7cJE====1000000\"\r\n        //0.1 TRX         =\"TJBHq5um63GPdmmjhmSppuep69bygK7cJE====100000\"\r\n        //0.000001 TRX    =\"TJBHq5um63GPdmmjhmSppuep69bygK7cJE====1\"\r\n        uint256 amount = msg.value; //\r\n        address buyer = msg.sender; //\r\n        uint256 current_price = game.price; //\r\n        uint256 current_buy_count = game.buy_count; //\r\n        if (current_buy_count == uint256(0)) {\r\n            current_buy_count = 1;\r\n        }\r\n        //300%\r\n        current_buy_count = GetEffectiveBuyCount(current_buy_count); //\r\n\r\n        require(game.status == Entitys.GameStatus.Ing, \"This Game Not Ing\");\r\n        require(game.over_time > now, \"Game Is Over\");\r\n        //\r\n        require(current_price <= amount, \"This Game Buy Price is not limit\");\r\n\r\n        //\r\n        uint256 recommend_value = amount.mul(_recommend_rate).div(100);\r\n\r\n        //\r\n        uint256 platform_value = amount.mul(_fee_rate).div(100);\r\n        //\r\n        uint256 bonus_value = amount.mul(_bonus_rate).div(100);\r\n\r\n        //\r\n        uint256 fee_back_value = amount.mul(_feeback_rate).div(100);\r\n\r\n        //\r\n        address temp_recommend_user = _owner; //\r\n        //--/\r\n        Entitys.UserBenefitAndInvestment memory bi = game_investment_benefit[\r\n            buyer\r\n        ];\r\n\r\n        temp_recommend_user = recommend_user; //\r\n        bi.recommend_user_address = recommend_user; //\r\n\r\n        if (bi.isValue && bi.recommend_user_address != address(0)) {\r\n            temp_recommend_user = bi.recommend_user_address;\r\n        }\r\n\r\n        for (uint256 i = 0; i < game_buy_users.length; i++) {\r\n            address temp_user = game_buy_users[i];\r\n            delete user_credit_log[temp_user];\r\n        }\r\n        \r\n        address(uint256(_owner)).transfer(platform_value); //\r\n        emit SendPlatformFee(_owner, platform_value, \"Service charge\");\r\n\r\n        address(uint160(temp_recommend_user)).transfer(recommend_value); //\r\n        user_recommend_value[temp_recommend_user] = user_recommend_value[\r\n            temp_recommend_user\r\n        ]\r\n        .add(recommend_value);\r\n\r\n        emit SendRecommend(\r\n            temp_recommend_user,\r\n            recommend_value,\r\n            \"Award of recommendation\"\r\n        );\r\n        if (temp_recommend_user == _owner) {\r\n            //\r\n            address(uint160(_owner)).transfer(fee_back_value); //\r\n            emit SendFeeBack(_owner, fee_back_value, \"Rebate platform\");\r\n        } else {\r\n            //\r\n            address(uint160(buyer)).transfer(fee_back_value); //\r\n            emit SendFeeBack(buyer, fee_back_value, \"Rebate to users\");\r\n        }\r\n\r\n        uint256 used_bonus_value = uint256(0);\r\n\r\n        // \r\n        for (uint256 i = 0; i < game_buy_users.length; i++) {\r\n            address temp_user = game_buy_users[i];\r\n            uint256 user_buy_count = game_user_buy_count[temp_user];\r\n            //=*/\r\n            uint256 temp_bonus_value = uint256(0);\r\n            //\r\n            if (CheckUserCanBonus(temp_user)) {\r\n                temp_bonus_value = bonus_value.mul(user_buy_count).div(\r\n                    current_buy_count\r\n                );\r\n            }\r\n            //emit CalcBonus(temp_user,temp_bonus_value,\"\");\r\n            used_bonus_value = used_bonus_value.add(temp_bonus_value);\r\n            user_credit_log[temp_user] = user_credit_log[temp_user].add(\r\n                temp_bonus_value\r\n            );\r\n        }\r\n        //\r\n        //=----\r\n        uint256 temp_prize_value = amount.sub(recommend_value); //\r\n        temp_prize_value = temp_prize_value.sub(platform_value); //\r\n        temp_prize_value = temp_prize_value.sub(used_bonus_value); //\r\n        temp_prize_value = temp_prize_value.sub(fee_back_value); //\r\n\r\n        if (bi.isValue) {\r\n            bi = game_investment_benefit[buyer];\r\n            bi.recommend_user_address = temp_recommend_user;\r\n        } else {\r\n            //-\r\n            bi = Entitys.UserBenefitAndInvestment(\r\n                0,\r\n                0,\r\n                temp_recommend_user,\r\n                true\r\n            );\r\n            //\r\n            game_buy_users.push(buyer);\r\n        }\r\n        bi.touru = bi.touru.add(amount);\r\n        //\r\n        game_investment_benefit[buyer] = bi;\r\n        for (uint256 i = 0; i < game_buy_users.length; i++) {\r\n            address temp_user = game_buy_users[i];\r\n            uint256 t_amount = user_credit_log[temp_user]; //\r\n            //RTX To User\r\n            if (t_amount > 0) {\r\n                //\r\n\r\n                    Entitys.UserBenefitAndInvestment memory temp_bi\r\n                 = game_investment_benefit[temp_user];\r\n                if (temp_bi.isValue) {\r\n                    temp_bi.shouyi = temp_bi.shouyi.add(t_amount);\r\n                } else {\r\n                    //-\r\n                    temp_bi = Entitys.UserBenefitAndInvestment(\r\n                        t_amount,\r\n                        0,\r\n                        address(0),\r\n                        true\r\n                    );\r\n                }\r\n                game_investment_benefit[temp_user] = temp_bi;\r\n                address(uint160(temp_user)).transfer(t_amount);\r\n                emit TransferAmount(temp_user, t_amount, \"Send bonus award\");\r\n            }\r\n        }\r\n        for (uint256 i = 0; i < game_buy_users.length; i++) {\r\n            address temp_user = game_buy_users[i];\r\n            delete user_credit_log[temp_user];\r\n        }\r\n        //+1\r\n        game_user_buy_count[buyer] = game_user_buy_count[buyer].add(1); //+1\r\n        //\r\n        calcGameRate(buyer, temp_prize_value, used_bonus_value);\r\n\r\n        emit BuyGameEvent(buyer, amount, now, \"Buy\");\r\n\r\n        //MTB\r\n        _transfer(\r\n            _owner,\r\n            buyer,\r\n            buy_airdrop_mtb_count * (10**uint256(decimals()))\r\n        );\r\n        return true;\r\n    }\r\n\r\n    /**\r\n    \r\n     */\r\n    function calcGameRate(\r\n        address buyer,\r\n        uint256 prize_value,\r\n        uint256 used_bonus_value\r\n    ) private returns (bool) {\r\n        // grab time\r\n        uint256 _now = now;\r\n        Entitys.GameStruct memory game = current_game;\r\n        //\r\n        current_game.last_buy_user_address = buyer;\r\n        //\r\n        current_game.prize_value = game.prize_value.add(prize_value); //=+\r\n\r\n        //\r\n        uint256 current_buy_count = game.buy_count.add(1);\r\n        current_game.buy_count = current_buy_count; //+1\r\n\r\n        //300%\r\n\r\n        //\r\n        current_game.last_buy_time = _now; //\r\n        //\r\n        current_game.over_time = _now.add(game.game_times); //\r\n        //70-140-280-540-1080-2196-->\r\n        if (current_buy_count == game.next_change_rate_count) {\r\n            uint256 temp_price_rate = game.price_upper_rate.div(2); //\r\n            game.price_upper_rate = temp_price_rate;\r\n            //\r\n            game.next_change_rate_count = game.next_change_rate_count.mul(2);\r\n            current_game.price_upper_rate = temp_price_rate;\r\n            //\r\n            current_game.next_change_rate_count = game.next_change_rate_count;\r\n        }\r\n        //\r\n        uint256 _price_upper_rate = game\r\n        .price_upper_rate\r\n        .div(10**_price_upper_decimals)\r\n        .add(100);\r\n        uint256 current_price = game.price; //\r\n        //=*115/100\r\n        current_game.price = current_price.mul(_price_upper_rate).div(100);\r\n\r\n        //\r\n        current_game.bonus_value = current_game.bonus_value.add(\r\n            used_bonus_value\r\n        );\r\n    }\r\n\r\n    /***\r\n    \r\n     */\r\n    function GetEffectiveBuyCount(uint256 current_buy_count)\r\n        private\r\n        view\r\n        returns (uint256 effective_count)\r\n    {\r\n        effective_count = current_buy_count;\r\n        //\r\n        uint256 threshold_value = uint256(3).mul(10**_trx_decimals);\r\n\r\n        for (uint256 i = 0; i < game_buy_users.length; i++) {\r\n            address temp_user = game_buy_users[i];\r\n            if (temp_user == _owner) {\r\n                continue;\r\n            }\r\n            //\r\n\r\n                Entitys.UserBenefitAndInvestment memory temp_bi\r\n             = game_investment_benefit[temp_user];\r\n            //\r\n            uint256 user_buy_count = game_user_buy_count[temp_user];\r\n            if (temp_bi.isValue && user_buy_count > 0) {\r\n                //\r\n                uint256 shouyilv = temp_bi.shouyi.div(temp_bi.touru).mul(\r\n                    10**_trx_decimals\r\n                );\r\n                if (shouyilv >= threshold_value) {\r\n                    effective_count = current_buy_count.sub(user_buy_count);\r\n                }\r\n            }\r\n        }\r\n        return effective_count;\r\n    }\r\n\r\n    /**\r\n    \r\n    */\r\n    function CheckUserCanBonus(address user)\r\n        private\r\n        view\r\n        returns (bool can_bonus)\r\n    {\r\n        can_bonus = true;\r\n        if (user == _owner) {\r\n            return true;\r\n        }\r\n        //\r\n        uint256 threshold_value = uint256(3).mul(10**_trx_decimals);\r\n        //\r\n\r\n            Entitys.UserBenefitAndInvestment memory temp_bi\r\n         = game_investment_benefit[user];\r\n        //\r\n        uint256 user_buy_count = game_user_buy_count[user];\r\n        if (temp_bi.isValue && user_buy_count > 0) {\r\n            //\r\n            uint256 shouyilv = temp_bi.shouyi.div(temp_bi.touru).mul(\r\n                10**_trx_decimals\r\n            );\r\n            if (shouyilv >= threshold_value) {\r\n                can_bonus = false;\r\n            }\r\n        }\r\n        return can_bonus;\r\n    }\r\n\r\n    /***\r\n     *  \r\n     * */\r\n    function getBuyerBuyCount(address buyer) public view returns (uint256) {\r\n        return game_user_buy_count[buyer];\r\n    }\r\n\r\n    /**\r\n     \r\n     */\r\n    function getBuerIncomeInvestment(address buyer)\r\n        public\r\n        view\r\n        returns (\r\n            uint256 income,\r\n            uint256 investment,\r\n            uint256 recommend_value,\r\n            uint256 buy_count\r\n        )\r\n    {\r\n        Entitys.UserBenefitAndInvestment memory bi = game_investment_benefit[\r\n            buyer\r\n        ];\r\n        income = bi.touru;\r\n        investment = bi.shouyi;\r\n        recommend_value = user_recommend_value[buyer];\r\n        buy_count = game_user_buy_count[buyer];\r\n        return (income, investment, recommend_value, buy_count);\r\n    }\r\n\r\n    function checkGameAndPrize() public view onlyOwner returns (bool) {\r\n        require(_owner == msg.sender, \"Must Owner Execute\");\r\n        uint256 _now = now;\r\n        Entitys.GameStruct memory game = current_game;\r\n        if (game.over_time <= _now) {\r\n            return true;\r\n        }\r\n        return false;\r\n    }\r\n\r\n    function PrizeGame() public onlyOwner returns (bool) {\r\n        require(_owner == msg.sender, \"Must Owner Execute\");\r\n        // grab time\r\n        uint256 _now = now;\r\n        Entitys.GameStruct memory game = current_game;\r\n        if (game.over_time <= _now) {\r\n            //\r\n            if (game.last_buy_user_address != address(0)) {\r\n                if (game.prize_value > 0) {\r\n                    //\r\n                    address(uint160(game.last_buy_user_address)).transfer(\r\n                        game.prize_value\r\n                    ); //\r\n                }\r\n            }\r\n            //-\r\n            for (uint256 i = 0; i < game_buy_users.length; i++) {\r\n                address temp_user = game_buy_users[i];\r\n                delete game_investment_benefit[temp_user];\r\n                delete game_user_buy_count[temp_user];\r\n                delete user_recommend_value[temp_user];\r\n            }\r\n            //\r\n            delete game_buy_users;\r\n            //\r\n\r\n            uint256 temp_now = now;\r\n            uint256 _last_buy_time = temp_now;\r\n            uint256 _over_time = temp_now.add(game.game_times);\r\n            uint256 _buy_price = game.base_prce; //1^6\r\n            uint256 price_upper_rate = game.base_price_upper_rate; //1^18\r\n            uint256 next_change_rate_count = 70;\r\n            uint256 game_id = game.game_id.add(1);\r\n            current_game = Entitys.GameStruct(\r\n                game_id,\r\n                game.name,\r\n                temp_now,\r\n                game.game_times,\r\n                _last_buy_time,\r\n                _over_time,\r\n                _buy_price,\r\n                _buy_price,\r\n                price_upper_rate,\r\n                price_upper_rate,\r\n                Entitys.GameStatus.Ing,\r\n                0,\r\n                0,\r\n                0,\r\n                _owner,\r\n                next_change_rate_count\r\n            );\r\n            return true;\r\n        }\r\n        return false;\r\n    }\r\n\r\n    function kill() public onlyOwner returns (bool) {\r\n        if (_owner == msg.sender) {\r\n            // \r\n            Entitys.GameStruct memory game = current_game;\r\n            if (game.prize_value > 0) {\r\n                address(uint160(_owner)).transfer(game.prize_value);\r\n                selfdestruct(msg.sender);\r\n                return true;\r\n            }\r\n        }\r\n        return false;\r\n    }\r\n\r\n    /**\r\n    \r\n     */\r\n    function freezeAccount(address target, bool freeze)\r\n        public\r\n        onlyOwner\r\n        returns (bool)\r\n    {\r\n        require(_owner != target, \"can not freeze owner\");\r\n        return _freezeAccount(target, freeze);\r\n    }\r\n\r\n    /*  */\r\n    function mintToken(uint256 mintedAmount) public onlyOwner returns (bool) {\r\n        _mint(_owner, mintedAmount * (10**uint256(decimals())));\r\n        return true;\r\n    }\r\n}\r\n",
  "sourcePath": "F:/OtherProducts/tron/bsc_token/contracts/lira.sol",
  "compiler": {
    "name": "solc",
    "version": "0.5.17+commit.d19bba13.Emscripten.clang"
  },
  "schemaVersion": "3.4.1",
  "updatedAt": "2021-06-30T09:21:16.520Z",
  "networkType": "ethereum",
  "devdoc": {
    "methods": {
      "allowance(address,address)": {
        "details": "See {IERC20-allowance}."
      },
      "approve(address,uint256)": {
        "details": " A1000TRXB100TRX:      * Aapproveapprove(B,100) B100TRX10ETHCtransferFrom(A, C, 10) allowance(A, B)BAtoken      * Requirements:      * - `spender` cannot be the zero address."
      },
      "balanceOf(address)": {
        "details": "See {IERC20-balanceOf}."
      },
      "decimals()": {
        "details": "Returns the number of decimals used to get its user representation. For example, if `decimals` equals `2`, a balance of `505` tokens should be displayed to a user as `5,05` (`505 / 10 ** 2`).      * Tokens usually opt for a value of 18, imitating the relationship between Ether and Wei.      * NOTE: This information is only used for _display_ purposes: it in no way affects any of the arithmetic of the contract, including {IERC20-balanceOf} and {IERC20-transfer}."
      },
      "decreaseAllowance(address,uint256)": {
        "details": "Atomically decreases the allowance granted to `spender` by the caller.      * This is an alternative to {approve} that can be used as a mitigation for problems described in {IERC20-approve}.      * Emits an {Approval} event indicating the updated allowance.      * Requirements:      * - `spender` cannot be the zero address. - `spender` must have allowance for the caller of at least `subtractedValue`."
      },
      "increaseAllowance(address,uint256)": {
        "details": "spender      * {approve}{IERC20 approve}      * Emits an {Approval} event indicating the updated allowance.      * Requirements:      * - `spender` cannot be the zero address."
      },
      "name()": {
        "details": "Returns the name of the token."
      },
      "symbol()": {
        "details": "Returns the symbol of the token, usually a shorter version of the name."
      },
      "totalSupply()": {
        "details": "See {IERC20-totalSupply}."
      },
      "transfer(address,uint256)": {
        "details": "See {IERC20-transfer}.      * Requirements:      * - `recipient` cannot be the zero address. - the caller must have a balance of at least `amount`."
      },
      "transferFrom(address,address,uint256)": {
        "details": "See {IERC20-transferFrom}.      * Emits an {Approval} event indicating the updated allowance. This is not required by the EIP. See the note at the beginning of {ERC20};      * Requirements: - `sender` and `recipient` cannot be the zero address. - `sender` must have a balance of at least `value`. - the caller must have allowance for `sender`'s tokens of at least `amount`."
      }
    }
  },
  "userdoc": {
    "methods": {
      "buy_token(address)": {
        "notice": "recommend_user  token TRX           =\"TJBHq5um63GPdmmjhmSppuep69bygK7cJE====1000000\" .1TRX         =\"TJBHq5um63GPdmmjhmSppuep69bygK7cJE====100000\" .000001TRX    =\"TJBHq5um63GPdmmjhmSppuep69bygK7cJE====1\""
      },
      "checkFreeze(address)": {
        "notice": ""
      },
      "freezeAccount(address,bool)": {
        "notice": ""
      },
      "getBuerIncomeInvestment(address)": {
        "notice": ""
      },
      "getBuyerBuyCount(address)": {
        "notice": "* "
      },
      "getCurrentRoundInfo()": {
        "notice": ""
      },
      "getDecimals()": {
        "notice": "* "
      },
      "getNow()": {
        "notice": " "
      },
      "getOwner()": {
        "notice": "* "
      }
    },
    "notice": "* "
  }
}