{
  "contractName": "lira",
  "abi": [
    {
      "inputs": [
        {
          "internalType": "uint256",
          "name": "_game_id",
          "type": "uint256"
        },
        {
          "internalType": "string",
          "name": "_name",
          "type": "string"
        },
        {
          "internalType": "uint256",
          "name": "_game_times",
          "type": "uint256"
        },
        {
          "internalType": "uint256",
          "name": "_price",
          "type": "uint256"
        },
        {
          "internalType": "uint256",
          "name": "_price_upper_rate",
          "type": "uint256"
        }
      ],
      "payable": false,
      "stateMutability": "nonpayable",
      "type": "constructor"
    },
    {
      "anonymous": false,
      "inputs": [
        {
          "indexed": true,
          "internalType": "address",
          "name": "owner",
          "type": "address"
        },
        {
          "indexed": true,
          "internalType": "address",
          "name": "spender",
          "type": "address"
        },
        {
          "indexed": false,
          "internalType": "uint256",
          "name": "value",
          "type": "uint256"
        }
      ],
      "name": "Approval",
      "type": "event"
    },
    {
      "anonymous": false,
      "inputs": [
        {
          "indexed": false,
          "internalType": "address",
          "name": "bidder",
          "type": "address"
        },
        {
          "indexed": false,
          "internalType": "uint256",
          "name": "amount",
          "type": "uint256"
        },
        {
          "indexed": false,
          "internalType": "uint256",
          "name": "buy_time",
          "type": "uint256"
        },
        {
          "indexed": false,
          "internalType": "string",
          "name": "event_msg",
          "type": "string"
        }
      ],
      "name": "BuyGameEvent",
      "type": "event"
    },
    {
      "anonymous": false,
      "inputs": [
        {
          "indexed": false,
          "internalType": "address",
          "name": "target",
          "type": "address"
        },
        {
          "indexed": false,
          "internalType": "bool",
          "name": "frozen",
          "type": "bool"
        }
      ],
      "name": "FrozenFunds",
      "type": "event"
    },
    {
      "anonymous": false,
      "inputs": [
        {
          "indexed": true,
          "internalType": "address",
          "name": "from",
          "type": "address"
        },
        {
          "indexed": true,
          "internalType": "address",
          "name": "to",
          "type": "address"
        },
        {
          "indexed": false,
          "internalType": "uint256",
          "name": "value",
          "type": "uint256"
        }
      ],
      "name": "Transfer",
      "type": "event"
    },
    {
      "constant": true,
      "inputs": [
        {
          "internalType": "address",
          "name": "owner",
          "type": "address"
        },
        {
          "internalType": "address",
          "name": "spender",
          "type": "address"
        }
      ],
      "name": "allowance",
      "outputs": [
        {
          "internalType": "uint256",
          "name": "",
          "type": "uint256"
        }
      ],
      "payable": false,
      "stateMutability": "view",
      "type": "function"
    },
    {
      "constant": false,
      "inputs": [
        {
          "internalType": "address",
          "name": "spender",
          "type": "address"
        },
        {
          "internalType": "uint256",
          "name": "value",
          "type": "uint256"
        }
      ],
      "name": "approve",
      "outputs": [
        {
          "internalType": "bool",
          "name": "",
          "type": "bool"
        }
      ],
      "payable": false,
      "stateMutability": "nonpayable",
      "type": "function"
    },
    {
      "constant": true,
      "inputs": [
        {
          "internalType": "address",
          "name": "account",
          "type": "address"
        }
      ],
      "name": "balanceOf",
      "outputs": [
        {
          "internalType": "uint256",
          "name": "",
          "type": "uint256"
        }
      ],
      "payable": false,
      "stateMutability": "view",
      "type": "function"
    },
    {
      "constant": true,
      "inputs": [
        {
          "internalType": "address",
          "name": "sender",
          "type": "address"
        }
      ],
      "name": "checkFreeze",
      "outputs": [
        {
          "internalType": "bool",
          "name": "",
          "type": "bool"
        }
      ],
      "payable": false,
      "stateMutability": "view",
      "type": "function"
    },
    {
      "constant": true,
      "inputs": [],
      "name": "decimals",
      "outputs": [
        {
          "internalType": "uint8",
          "name": "",
          "type": "uint8"
        }
      ],
      "payable": false,
      "stateMutability": "view",
      "type": "function"
    },
    {
      "constant": false,
      "inputs": [
        {
          "internalType": "address",
          "name": "spender",
          "type": "address"
        },
        {
          "internalType": "uint256",
          "name": "subtractedValue",
          "type": "uint256"
        }
      ],
      "name": "decreaseAllowance",
      "outputs": [
        {
          "internalType": "bool",
          "name": "",
          "type": "bool"
        }
      ],
      "payable": false,
      "stateMutability": "nonpayable",
      "type": "function"
    },
    {
      "constant": true,
      "inputs": [],
      "name": "getNow",
      "outputs": [
        {
          "internalType": "uint256",
          "name": "nowvalue",
          "type": "uint256"
        }
      ],
      "payable": false,
      "stateMutability": "view",
      "type": "function"
    },
    {
      "constant": false,
      "inputs": [
        {
          "internalType": "address",
          "name": "spender",
          "type": "address"
        },
        {
          "internalType": "uint256",
          "name": "addedValue",
          "type": "uint256"
        }
      ],
      "name": "increaseAllowance",
      "outputs": [
        {
          "internalType": "bool",
          "name": "",
          "type": "bool"
        }
      ],
      "payable": false,
      "stateMutability": "nonpayable",
      "type": "function"
    },
    {
      "constant": true,
      "inputs": [],
      "name": "name",
      "outputs": [
        {
          "internalType": "string",
          "name": "",
          "type": "string"
        }
      ],
      "payable": false,
      "stateMutability": "view",
      "type": "function"
    },
    {
      "constant": true,
      "inputs": [],
      "name": "symbol",
      "outputs": [
        {
          "internalType": "string",
          "name": "",
          "type": "string"
        }
      ],
      "payable": false,
      "stateMutability": "view",
      "type": "function"
    },
    {
      "constant": true,
      "inputs": [],
      "name": "totalSupply",
      "outputs": [
        {
          "internalType": "uint256",
          "name": "",
          "type": "uint256"
        }
      ],
      "payable": false,
      "stateMutability": "view",
      "type": "function"
    },
    {
      "constant": false,
      "inputs": [
        {
          "internalType": "address",
          "name": "recipient",
          "type": "address"
        },
        {
          "internalType": "uint256",
          "name": "amount",
          "type": "uint256"
        }
      ],
      "name": "transfer",
      "outputs": [
        {
          "internalType": "bool",
          "name": "",
          "type": "bool"
        }
      ],
      "payable": false,
      "stateMutability": "nonpayable",
      "type": "function"
    },
    {
      "constant": false,
      "inputs": [
        {
          "internalType": "address",
          "name": "sender",
          "type": "address"
        },
        {
          "internalType": "address",
          "name": "recipient",
          "type": "address"
        },
        {
          "internalType": "uint256",
          "name": "amount",
          "type": "uint256"
        }
      ],
      "name": "transferFrom",
      "outputs": [
        {
          "internalType": "bool",
          "name": "",
          "type": "bool"
        }
      ],
      "payable": false,
      "stateMutability": "nonpayable",
      "type": "function"
    },
    {
      "constant": false,
      "inputs": [],
      "name": "fill_prize",
      "outputs": [
        {
          "internalType": "bool",
          "name": "success",
          "type": "bool"
        }
      ],
      "payable": true,
      "stateMutability": "payable",
      "type": "function"
    },
    {
      "constant": true,
      "inputs": [],
      "name": "getDecimals",
      "outputs": [
        {
          "internalType": "uint256",
          "name": "",
          "type": "uint256"
        }
      ],
      "payable": false,
      "stateMutability": "view",
      "type": "function"
    },
    {
      "constant": true,
      "inputs": [],
      "name": "getOwner",
      "outputs": [
        {
          "internalType": "address",
          "name": "",
          "type": "address"
        }
      ],
      "payable": false,
      "stateMutability": "view",
      "type": "function"
    },
    {
      "constant": true,
      "inputs": [],
      "name": "getCurrentRoundInfo",
      "outputs": [
        {
          "internalType": "uint256",
          "name": "game_id",
          "type": "uint256"
        },
        {
          "internalType": "string",
          "name": "name",
          "type": "string"
        },
        {
          "internalType": "uint256",
          "name": "begin_time",
          "type": "uint256"
        },
        {
          "internalType": "uint256",
          "name": "game_times",
          "type": "uint256"
        },
        {
          "internalType": "uint256",
          "name": "last_buy_time",
          "type": "uint256"
        },
        {
          "internalType": "uint256",
          "name": "over_time",
          "type": "uint256"
        },
        {
          "internalType": "uint256",
          "name": "price",
          "type": "uint256"
        },
        {
          "internalType": "uint256",
          "name": "price_upper_rate",
          "type": "uint256"
        },
        {
          "internalType": "enum Entitys.GameStatus",
          "name": "status",
          "type": "uint8"
        },
        {
          "internalType": "uint256",
          "name": "prize_value",
          "type": "uint256"
        },
        {
          "internalType": "uint256",
          "name": "bonus_value",
          "type": "uint256"
        },
        {
          "internalType": "uint256",
          "name": "buy_count",
          "type": "uint256"
        },
        {
          "internalType": "address",
          "name": "last_buy_user_address",
          "type": "address"
        },
        {
          "internalType": "uint256",
          "name": "next_change_rate_count",
          "type": "uint256"
        }
      ],
      "payable": false,
      "stateMutability": "view",
      "type": "function"
    },
    {
      "constant": true,
      "inputs": [],
      "name": "askprice",
      "outputs": [
        {
          "internalType": "uint256",
          "name": "price",
          "type": "uint256"
        }
      ],
      "payable": false,
      "stateMutability": "view",
      "type": "function"
    },
    {
      "constant": true,
      "inputs": [
        {
          "internalType": "uint256",
          "name": "buy_count",
          "type": "uint256"
        }
      ],
      "name": "ask_bulk_price",
      "outputs": [
        {
          "internalType": "uint256",
          "name": "total_price",
          "type": "uint256"
        },
        {
          "internalType": "uint256",
          "name": "last_price",
          "type": "uint256"
        },
        {
          "internalType": "uint256[]",
          "name": "price_list",
          "type": "uint256[]"
        }
      ],
      "payable": false,
      "stateMutability": "view",
      "type": "function"
    },
    {
      "constant": false,
      "inputs": [
        {
          "internalType": "address",
          "name": "recommend_user",
          "type": "address"
        },
        {
          "internalType": "uint256",
          "name": "buy_count",
          "type": "uint256"
        }
      ],
      "name": "bulk_buy_token",
      "outputs": [
        {
          "internalType": "bool",
          "name": "success",
          "type": "bool"
        }
      ],
      "payable": true,
      "stateMutability": "payable",
      "type": "function"
    },
    {
      "constant": false,
      "inputs": [
        {
          "internalType": "address",
          "name": "recommend_user",
          "type": "address"
        }
      ],
      "name": "buy_token",
      "outputs": [
        {
          "internalType": "bool",
          "name": "success",
          "type": "bool"
        }
      ],
      "payable": true,
      "stateMutability": "payable",
      "type": "function"
    },
    {
      "constant": true,
      "inputs": [
        {
          "internalType": "address",
          "name": "buyer",
          "type": "address"
        }
      ],
      "name": "getBuyerBuyCount",
      "outputs": [
        {
          "internalType": "uint256",
          "name": "",
          "type": "uint256"
        }
      ],
      "payable": false,
      "stateMutability": "view",
      "type": "function"
    },
    {
      "constant": true,
      "inputs": [
        {
          "internalType": "address",
          "name": "buyer",
          "type": "address"
        }
      ],
      "name": "getBuerIncomeInvestment",
      "outputs": [
        {
          "internalType": "uint256",
          "name": "income",
          "type": "uint256"
        },
        {
          "internalType": "uint256",
          "name": "investment",
          "type": "uint256"
        },
        {
          "internalType": "uint256",
          "name": "recommend_value",
          "type": "uint256"
        },
        {
          "internalType": "uint256",
          "name": "buy_count",
          "type": "uint256"
        }
      ],
      "payable": false,
      "stateMutability": "view",
      "type": "function"
    },
    {
      "constant": true,
      "inputs": [],
      "name": "checkGameAndPrize",
      "outputs": [
        {
          "internalType": "bool",
          "name": "",
          "type": "bool"
        }
      ],
      "payable": false,
      "stateMutability": "view",
      "type": "function"
    },
    {
      "constant": false,
      "inputs": [],
      "name": "PrizeGame",
      "outputs": [
        {
          "internalType": "bool",
          "name": "",
          "type": "bool"
        }
      ],
      "payable": false,
      "stateMutability": "nonpayable",
      "type": "function"
    },
    {
      "constant": false,
      "inputs": [],
      "name": "kill",
      "outputs": [
        {
          "internalType": "bool",
          "name": "",
          "type": "bool"
        }
      ],
      "payable": false,
      "stateMutability": "nonpayable",
      "type": "function"
    },
    {
      "constant": false,
      "inputs": [
        {
          "internalType": "address",
          "name": "target",
          "type": "address"
        },
        {
          "internalType": "bool",
          "name": "freeze",
          "type": "bool"
        }
      ],
      "name": "freezeAccount",
      "outputs": [
        {
          "internalType": "bool",
          "name": "",
          "type": "bool"
        }
      ],
      "payable": false,
      "stateMutability": "nonpayable",
      "type": "function"
    },
    {
      "constant": false,
      "inputs": [
        {
          "internalType": "uint256",
          "name": "mintedAmount",
          "type": "uint256"
        }
      ],
      "name": "mintToken",
      "outputs": [
        {
          "internalType": "bool",
          "name": "",
          "type": "bool"
        }
      ],
      "payable": false,
      "stateMutability": "nonpayable",
      "type": "function"
    }
  ],
  "bytecode": "0x608060405260126007556012600855600a600955600a8055602d600c556005600d55620f42406023553480156200003557600080fd5b506040516200684738038062006847833981810160405260a08110156200005b57600080fd5b8101908080519060200190929190805160405193929190846401000000008211156200008657600080fd5b838201915060208201858111156200009d57600080fd5b8251866001820283011164010000000082111715620000bb57600080fd5b8083526020830192505050908051906020019080838360005b83811015620000f1578082015181840152602081019050620000d4565b50505050905090810190601f1680156200011f5780820380516001836020036101000a031916815260200191505b506040526020018051906020019092919080519060200190929190805190602001909291905050506040518060400160405280600481526020017f4c495241000000000000000000000000000000000000000000000000000000008152506040518060400160405280600481526020017f4c495241000000000000000000000000000000000000000000000000000000008152506007548260049080519060200190620001ce92919062000868565b508160059080519060200190620001e792919062000868565b5080600660006101000a81548160ff021916908360ff16021790555050505033600b60006101000a81548173ffffffffffffffffffffffffffffffffffffffff021916908373ffffffffffffffffffffffffffffffffffffffff1602179055506000429050600081905060006200026d8684620004ce60201b620036c01790919060201c565b90506000620002916064600754600a0a6200055760201b62003be11790919060201c565b860290506000620002b6600854600a0a87620005e860201b62003c701790919060201c565b90506000604690506040518061020001604052808c81526020018b81526020018781526020018a8152602001868152602001858152602001848152602001848152602001838152602001838152602001600060018111156200031457fe5b8152602001600081526020016000815260200160008152602001600b60009054906101000a900473ffffffffffffffffffffffffffffffffffffffff1673ffffffffffffffffffffffffffffffffffffffff16815260200182815250600e6000820151816000015560208201518160010190805190602001906200039a929190620008ef565b5060408201518160020155606082015181600301556080820151816004015560a0820151816005015560c0820151816006015560e082015181600701556101008201518160080155610120820151816009015561014082015181600a0160006101000a81548160ff021916908360018111156200041357fe5b021790555061016082015181600b015561018082015181600c01556101a082015181600d01556101c082015181600e0160006101000a81548173ffffffffffffffffffffffffffffffffffffffff021916908373ffffffffffffffffffffffffffffffffffffffff1602179055506101e082015181600f0155905050620004bd33620004a46200068760201b60201c565b60ff16600a0a6402540be400026200069e60201b60201c565b50505050505050505050506200099e565b6000808284019050838110156200054d576040517f08c379a000000000000000000000000000000000000000000000000000000000815260040180806020018281038252601b8152602001807f536166654d6174683a206164646974696f6e206f766572666c6f77000000000081525060200191505060405180910390fd5b8091505092915050565b6000808211620005cf576040517f08c379a000000000000000000000000000000000000000000000000000000000815260040180806020018281038252601a8152602001807f536166654d6174683a206469766973696f6e206279207a65726f00000000000081525060200191505060405180910390fd5b6000828481620005db57fe5b0490508091505092915050565b600080831415620005fd576000905062000681565b600082141562000611576000905062000681565b60008284029050828482816200062357fe5b04146200067c576040517f08c379a0000000000000000000000000000000000000000000000000000000008152600401808060200182810382526021815260200180620068266021913960400191505060405180910390fd5b809150505b92915050565b6000600660009054906101000a900460ff16905090565b600073ffffffffffffffffffffffffffffffffffffffff168273ffffffffffffffffffffffffffffffffffffffff16141562000742576040517f08c379a000000000000000000000000000000000000000000000000000000000815260040180806020018281038252601f8152602001807f45524332303a206d696e7420746f20746865207a65726f20616464726573730081525060200191505060405180910390fd5b6200075e81600254620004ce60201b620036c01790919060201c565b600281905550620007bc816000808573ffffffffffffffffffffffffffffffffffffffff1673ffffffffffffffffffffffffffffffffffffffff16815260200190815260200160002054620004ce60201b620036c01790919060201c565b6000808473ffffffffffffffffffffffffffffffffffffffff1673ffffffffffffffffffffffffffffffffffffffff168152602001908152602001600020819055508173ffffffffffffffffffffffffffffffffffffffff16600073ffffffffffffffffffffffffffffffffffffffff167fddf252ad1be2c89b69c2b068fc378daa952ba7f163c4a11628f55a4df523b3ef836040518082815260200191505060405180910390a35050565b828054600181600116156101000203166002900490600052602060002090601f016020900481019282601f10620008ab57805160ff1916838001178555620008dc565b82800160010185558215620008dc579182015b82811115620008db578251825591602001919060010190620008be565b5b509050620008eb919062000976565b5090565b828054600181600116156101000203166002900490600052602060002090601f016020900481019282601f106200093257805160ff191683800117855562000963565b8280016001018555821562000963579182015b828111156200096257825182559160200191906001019062000945565b5b50905062000972919062000976565b5090565b6200099b91905b80821115620009975760008160009055506001016200097d565b5090565b90565b615e7880620009ae6000396000f3fe6080604052600436106101b75760003560e01c80637beeee09116100ec578063b41b779b1161008a578063c634d03211610064578063c634d03214610b25578063dd62ed3e14610b78578063e724529c14610bfd578063f0141d8414610c72576101b7565b8063b41b779b14610a72578063ba6026c314610ad8578063bbe4fd5014610afa576101b7565b80639717917d116100c65780639717917d14610892578063a155e20414610930578063a457c2d71461098c578063a9059cbb146109ff576101b7565b80637beeee091461077c578063893d20e8146107ab57806395d89b4114610802576101b7565b8063313ce5671161015957806341c0e1b51161013357806341c0e1b51461055a57806370a082311461058957806372e2f8f5146105ee578063747dff4214610657576101b7565b8063313ce56714610451578063332e64e71461048257806339509351146104e7576101b7565b80631986c811116101955780631986c811146102ea57806323b872dd1461031957806325527ece146103ac57806330a21812146103d7576101b7565b806306fdde03146101bc578063095ea7b31461024c57806318160ddd146102bf575b600080fd5b3480156101c857600080fd5b506101d1610c9d565b6040518080602001828103825283818151815260200191508051906020019080838360005b838110156102115780820151818401526020810190506101f6565b50505050905090810190601f16801561023e5780820380516001836020036101000a031916815260200191505b509250505060405180910390f35b34801561025857600080fd5b506102a56004803603604081101561026f57600080fd5b81019080803573ffffffffffffffffffffffffffffffffffffffff16906020019092919080359060200190929190505050610d3f565b604051808215151515815260200191505060405180910390f35b3480156102cb57600080fd5b506102d4610d56565b6040518082815260200191505060405180910390f35b3480156102f657600080fd5b506102ff610d60565b604051808215151515815260200191505060405180910390f35b34801561032557600080fd5b506103926004803603606081101561033c57600080fd5b81019080803573ffffffffffffffffffffffffffffffffffffffff169060200190929190803573ffffffffffffffffffffffffffffffffffffffff169060200190929190803590602001909291905050506114fe565b604051808215151515815260200191505060405180910390f35b3480156103b857600080fd5b506103c16115af565b6040518082815260200191505060405180910390f35b3480156103e357600080fd5b50610426600480360360208110156103fa57600080fd5b81019080803573ffffffffffffffffffffffffffffffffffffffff16906020019092919050505061177b565b6040518085815260200184815260200183815260200182815260200194505050505060405180910390f35b34801561045d57600080fd5b50610466611900565b604051808260ff1660ff16815260200191505060405180910390f35b34801561048e57600080fd5b506104d1600480360360208110156104a557600080fd5b81019080803573ffffffffffffffffffffffffffffffffffffffff169060200190929190505050611917565b6040518082815260200191505060405180910390f35b3480156104f357600080fd5b506105406004803603604081101561050a57600080fd5b81019080803573ffffffffffffffffffffffffffffffffffffffff16906020019092919080359060200190929190505050611960565b604051808215151515815260200191505060405180910390f35b34801561056657600080fd5b5061056f611a05565b604051808215151515815260200191505060405180910390f35b34801561059557600080fd5b506105d8600480360360208110156105ac57600080fd5b81019080803573ffffffffffffffffffffffffffffffffffffffff169060200190929190505050611d60565b6040518082815260200191505060405180910390f35b3480156105fa57600080fd5b5061063d6004803603602081101561061157600080fd5b81019080803573ffffffffffffffffffffffffffffffffffffffff169060200190929190505050611da8565b604051808215151515815260200191505060405180910390f35b34801561066357600080fd5b5061066c611dfe565b604051808f8152602001806020018e81526020018d81526020018c81526020018b81526020018a81526020018981526020018860018111156106aa57fe5b60ff1681526020018781526020018681526020018581526020018473ffffffffffffffffffffffffffffffffffffffff1673ffffffffffffffffffffffffffffffffffffffff16815260200183815260200182810382528f818151815260200191508051906020019080838360005b83811015610734578082015181840152602081019050610719565b50505050905090810190601f1680156107615780820380516001836020036101000a031916815260200191505b509f5050505050505050505050505050505060405180910390f35b34801561078857600080fd5b50610791612077565b604051808215151515815260200191505060405180910390f35b3480156107b757600080fd5b506107c06123c6565b604051808273ffffffffffffffffffffffffffffffffffffffff1673ffffffffffffffffffffffffffffffffffffffff16815260200191505060405180910390f35b34801561080e57600080fd5b506108176123f0565b6040518080602001828103825283818151815260200191508051906020019080838360005b8381101561085757808201518184015260208101905061083c565b50505050905090810190601f1680156108845780820380516001836020036101000a031916815260200191505b509250505060405180910390f35b34801561089e57600080fd5b506108cb600480360360208110156108b557600080fd5b8101908080359060200190929190505050612492565b6040518084815260200183815260200180602001828103825283818151815260200191508051906020019060200280838360005b8381101561091a5780820151818401526020810190506108ff565b5050505090500194505050505060405180910390f35b6109726004803603602081101561094657600080fd5b81019080803573ffffffffffffffffffffffffffffffffffffffff169060200190929190505050612829565b604051808215151515815260200191505060405180910390f35b34801561099857600080fd5b506109e5600480360360408110156109af57600080fd5b81019080803573ffffffffffffffffffffffffffffffffffffffff16906020019092919080359060200190929190505050612848565b604051808215151515815260200191505060405180910390f35b348015610a0b57600080fd5b50610a5860048036036040811015610a2257600080fd5b81019080803573ffffffffffffffffffffffffffffffffffffffff169060200190929190803590602001909291905050506128ed565b604051808215151515815260200191505060405180910390f35b610abe60048036036040811015610a8857600080fd5b81019080803573ffffffffffffffffffffffffffffffffffffffff16906020019092919080359060200190929190505050612904565b604051808215151515815260200191505060405180910390f35b610ae0612e52565b604051808215151515815260200191505060405180910390f35b348015610b0657600080fd5b50610b0f6131c6565b6040518082815260200191505060405180910390f35b348015610b3157600080fd5b50610b5e60048036036020811015610b4857600080fd5b81019080803590602001909291905050506131ce565b604051808215151515815260200191505060405180910390f35b348015610b8457600080fd5b50610be760048036036040811015610b9b57600080fd5b81019080803573ffffffffffffffffffffffffffffffffffffffff169060200190929190803573ffffffffffffffffffffffffffffffffffffffff1690602001909291905050506132ba565b6040518082815260200191505060405180910390f35b348015610c0957600080fd5b50610c5860048036036040811015610c2057600080fd5b81019080803573ffffffffffffffffffffffffffffffffffffffff169060200190929190803515159060200190929190505050613341565b604051808215151515815260200191505060405180910390f35b348015610c7e57600080fd5b50610c876134bf565b6040518082815260200191505060405180910390f35b606060048054600181600116156101000203166002900480601f016020809104026020016040519081016040528092919081815260200182805460018160011615610100020316600290048015610d355780601f10610d0a57610100808354040283529160200191610d35565b820191906000526020600020905b815481529060010190602001808311610d1857829003601f168201915b5050505050905090565b6000610d4c3384846134c9565b6001905092915050565b6000600254905090565b6000600b60009054906101000a900473ffffffffffffffffffffffffffffffffffffffff1673ffffffffffffffffffffffffffffffffffffffff163373ffffffffffffffffffffffffffffffffffffffff1614610e08576040517f08c379a0000000000000000000000000000000000000000000000000000000008152600401808060200182810382526022815260200180615d966022913960400191505060405180910390fd5b3373ffffffffffffffffffffffffffffffffffffffff16600b60009054906101000a900473ffffffffffffffffffffffffffffffffffffffff1673ffffffffffffffffffffffffffffffffffffffff1614610ecb576040517f08c379a00000000000000000000000000000000000000000000000000000000081526004018080602001828103825260128152602001807f4d757374204f776e65722045786563757465000000000000000000000000000081525060200191505060405180910390fd5b6000429050610ed8615bce565b600e6040518061020001604052908160008201548152602001600182018054600181600116156101000203166002900480601f016020809104026020016040519081016040528092919081815260200182805460018160011615610100020316600290048015610f895780601f10610f5e57610100808354040283529160200191610f89565b820191906000526020600020905b815481529060010190602001808311610f6c57829003601f168201915b505050505081526020016002820154815260200160038201548152602001600482015481526020016005820154815260200160068201548152602001600782015481526020016008820154815260200160098201548152602001600a820160009054906101000a900460ff16600181111561100057fe5b600181111561100b57fe5b8152602001600b8201548152602001600c8201548152602001600d8201548152602001600e820160009054906101000a900473ffffffffffffffffffffffffffffffffffffffff1673ffffffffffffffffffffffffffffffffffffffff1673ffffffffffffffffffffffffffffffffffffffff168152602001600f820154815250509050818160a00151116114f457600073ffffffffffffffffffffffffffffffffffffffff16816101c0015173ffffffffffffffffffffffffffffffffffffffff1614611134576000816101600151111561113357806101c0015173ffffffffffffffffffffffffffffffffffffffff166108fc8261016001519081150290604051600060405180830381858888f19350505050158015611131573d6000803e3d6000fd5b505b5b60008090505b601e805490508110156112a4576000601e828154811061115657fe5b9060005260206000200160009054906101000a900473ffffffffffffffffffffffffffffffffffffffff169050601f60008273ffffffffffffffffffffffffffffffffffffffff1673ffffffffffffffffffffffffffffffffffffffff16815260200190815260200160002060008082016000905560018201600090556002820160006101000a81549073ffffffffffffffffffffffffffffffffffffffff02191690556002820160146101000a81549060ff02191690555050602060008273ffffffffffffffffffffffffffffffffffffffff1673ffffffffffffffffffffffffffffffffffffffff16815260200190815260200160002060009055602160008273ffffffffffffffffffffffffffffffffffffffff1673ffffffffffffffffffffffffffffffffffffffff1681526020019081526020016000206000905550808060010191505061113a565b50601e60006112b39190615c6c565b6000429050600081905060006112d68460600151846136c090919063ffffffff16565b905060008460c00151905060008561010001519050600060469050600061130b600189600001516136c090919063ffffffff16565b905060405180610200016040528082815260200189602001518152602001888152602001896060015181526020018781526020018681526020018581526020018581526020018481526020018481526020016000600181111561136a57fe5b8152602001600081526020016000815260200160008152602001600b60009054906101000a900473ffffffffffffffffffffffffffffffffffffffff1673ffffffffffffffffffffffffffffffffffffffff16815260200183815250600e6000820151816000015560208201518160010190805190602001906113ee929190615c8d565b5060408201518160020155606082015181600301556080820151816004015560a0820151816005015560c0820151816006015560e082015181600701556101008201518160080155610120820151816009015561014082015181600a0160006101000a81548160ff0219169083600181111561146657fe5b021790555061016082015181600b015561018082015181600c01556101a082015181600d01556101c082015181600e0160006101000a81548173ffffffffffffffffffffffffffffffffffffffff021916908373ffffffffffffffffffffffffffffffffffffffff1602179055506101e082015181600f0155905050600199505050505050505050506114fb565b6000925050505b90565b600061150b848484613748565b6115a4843361159f85600160008a73ffffffffffffffffffffffffffffffffffffffff1673ffffffffffffffffffffffffffffffffffffffff16815260200190815260200160002060003373ffffffffffffffffffffffffffffffffffffffff1673ffffffffffffffffffffffffffffffffffffffff16815260200190815260200160002054613b5890919063ffffffff16565b6134c9565b600190509392505050565b60006115b9615bce565b600e6040518061020001604052908160008201548152602001600182018054600181600116156101000203166002900480601f01602080910402602001604051908101604052809291908181526020018280546001816001161561010002031660029004801561166a5780601f1061163f5761010080835404028352916020019161166a565b820191906000526020600020905b81548152906001019060200180831161164d57829003601f168201915b505050505081526020016002820154815260200160038201548152602001600482015481526020016005820154815260200160068201548152602001600782015481526020016008820154815260200160098201548152602001600a820160009054906101000a900460ff1660018111156116e157fe5b60018111156116ec57fe5b8152602001600b8201548152602001600c8201548152602001600d8201548152602001600e820160009054906101000a900473ffffffffffffffffffffffffffffffffffffffff1673ffffffffffffffffffffffffffffffffffffffff1673ffffffffffffffffffffffffffffffffffffffff168152602001600f8201548152505090508060e0015191505090565b600080600080611789615d0d565b601f60008773ffffffffffffffffffffffffffffffffffffffff1673ffffffffffffffffffffffffffffffffffffffff16815260200190815260200160002060405180608001604052908160008201548152602001600182015481526020016002820160009054906101000a900473ffffffffffffffffffffffffffffffffffffffff1673ffffffffffffffffffffffffffffffffffffffff1673ffffffffffffffffffffffffffffffffffffffff1681526020016002820160149054906101000a900460ff16151515158152505090508060200151945080600001519350602160008773ffffffffffffffffffffffffffffffffffffffff1673ffffffffffffffffffffffffffffffffffffffff168152602001908152602001600020549250602060008773ffffffffffffffffffffffffffffffffffffffff1673ffffffffffffffffffffffffffffffffffffffff168152602001908152602001600020549150848484849450945094509450509193509193565b6000600660009054906101000a900460ff16905090565b6000602060008373ffffffffffffffffffffffffffffffffffffffff1673ffffffffffffffffffffffffffffffffffffffff168152602001908152602001600020549050919050565b60006119fb33846119f685600160003373ffffffffffffffffffffffffffffffffffffffff1673ffffffffffffffffffffffffffffffffffffffff16815260200190815260200160002060008973ffffffffffffffffffffffffffffffffffffffff1673ffffffffffffffffffffffffffffffffffffffff168152602001908152602001600020546136c090919063ffffffff16565b6134c9565b6001905092915050565b6000600b60009054906101000a900473ffffffffffffffffffffffffffffffffffffffff1673ffffffffffffffffffffffffffffffffffffffff163373ffffffffffffffffffffffffffffffffffffffff1614611aad576040517f08c379a0000000000000000000000000000000000000000000000000000000008152600401808060200182810382526022815260200180615d966022913960400191505060405180910390fd5b3373ffffffffffffffffffffffffffffffffffffffff16600b60009054906101000a900473ffffffffffffffffffffffffffffffffffffffff1673ffffffffffffffffffffffffffffffffffffffff161415611d5957611b0b615bce565b600e6040518061020001604052908160008201548152602001600182018054600181600116156101000203166002900480601f016020809104026020016040519081016040528092919081815260200182805460018160011615610100020316600290048015611bbc5780601f10611b9157610100808354040283529160200191611bbc565b820191906000526020600020905b815481529060010190602001808311611b9f57829003601f168201915b505050505081526020016002820154815260200160038201548152602001600482015481526020016005820154815260200160068201548152602001600782015481526020016008820154815260200160098201548152602001600a820160009054906101000a900460ff166001811115611c3357fe5b6001811115611c3e57fe5b8152602001600b8201548152602001600c8201548152602001600d8201548152602001600e820160009054906101000a900473ffffffffffffffffffffffffffffffffffffffff1673ffffffffffffffffffffffffffffffffffffffff1673ffffffffffffffffffffffffffffffffffffffff168152602001600f82015481525050905060008161016001511115611d5757600b60009054906101000a900473ffffffffffffffffffffffffffffffffffffffff1673ffffffffffffffffffffffffffffffffffffffff166108fc8261016001519081150290604051600060405180830381858888f19350505050158015611d3d573d6000803e3d6000fd5b503373ffffffffffffffffffffffffffffffffffffffff16ff5b505b6000905090565b60008060008373ffffffffffffffffffffffffffffffffffffffff1673ffffffffffffffffffffffffffffffffffffffff168152602001908152602001600020549050919050565b6000600360008373ffffffffffffffffffffffffffffffffffffffff1673ffffffffffffffffffffffffffffffffffffffff16815260200190815260200160002060009054906101000a900460ff169050919050565b60006060600080600080600080600080600080600080611e1c615bce565b600e6040518061020001604052908160008201548152602001600182018054600181600116156101000203166002900480601f016020809104026020016040519081016040528092919081815260200182805460018160011615610100020316600290048015611ecd5780601f10611ea257610100808354040283529160200191611ecd565b820191906000526020600020905b815481529060010190602001808311611eb057829003601f168201915b505050505081526020016002820154815260200160038201548152602001600482015481526020016005820154815260200160068201548152602001600782015481526020016008820154815260200160098201548152602001600a820160009054906101000a900460ff166001811115611f4457fe5b6001811115611f4f57fe5b8152602001600b8201548152602001600c8201548152602001600d8201548152602001600e820160009054906101000a900473ffffffffffffffffffffffffffffffffffffffff1673ffffffffffffffffffffffffffffffffffffffff1673ffffffffffffffffffffffffffffffffffffffff168152602001600f82015481525050905080600001519e5080602001519d5080604001519c5080606001519b5080608001519a508060a0015199508060e001519850806101200151975080610140015196508061016001519550806101a0015193508061018001519450806101c001519250806101e0015191508e8e8e8e8e8e8e8e8e8e8e8e8e8e9e509e509e509e509e509e509e509e509e509e509e509e509e509e5050909192939495969798999a9b9c9d565b6000600b60009054906101000a900473ffffffffffffffffffffffffffffffffffffffff1673ffffffffffffffffffffffffffffffffffffffff163373ffffffffffffffffffffffffffffffffffffffff161461211f576040517f08c379a0000000000000000000000000000000000000000000000000000000008152600401808060200182810382526022815260200180615d966022913960400191505060405180910390fd5b3373ffffffffffffffffffffffffffffffffffffffff16600b60009054906101000a900473ffffffffffffffffffffffffffffffffffffffff1673ffffffffffffffffffffffffffffffffffffffff16146121e2576040517f08c379a00000000000000000000000000000000000000000000000000000000081526004018080602001828103825260128152602001807f4d757374204f776e65722045786563757465000000000000000000000000000081525060200191505060405180910390fd5b60004290506121ef615bce565b600e6040518061020001604052908160008201548152602001600182018054600181600116156101000203166002900480601f0160208091040260200160405190810160405280929190818152602001828054600181600116156101000203166002900480156122a05780601f10612275576101008083540402835291602001916122a0565b820191906000526020600020905b81548152906001019060200180831161228357829003601f168201915b505050505081526020016002820154815260200160038201548152602001600482015481526020016005820154815260200160068201548152602001600782015481526020016008820154815260200160098201548152602001600a820160009054906101000a900460ff16600181111561231757fe5b600181111561232257fe5b8152602001600b8201548152602001600c8201548152602001600d8201548152602001600e820160009054906101000a900473ffffffffffffffffffffffffffffffffffffffff1673ffffffffffffffffffffffffffffffffffffffff1673ffffffffffffffffffffffffffffffffffffffff168152602001600f820154815250509050818160a00151116123bc576001925050506123c3565b6000925050505b90565b6000600b60009054906101000a900473ffffffffffffffffffffffffffffffffffffffff16905090565b606060058054600181600116156101000203166002900480601f0160208091040260200160405190810160405280929190818152602001828054600181600116156101000203166002900480156124885780601f1061245d57610100808354040283529160200191612488565b820191906000526020600020905b81548152906001019060200180831161246b57829003601f168201915b5050505050905090565b600080606061249f615bce565b600e6040518061020001604052908160008201548152602001600182018054600181600116156101000203166002900480601f0160208091040260200160405190810160405280929190818152602001828054600181600116156101000203166002900480156125505780601f1061252557610100808354040283529160200191612550565b820191906000526020600020905b81548152906001019060200180831161253357829003601f168201915b505050505081526020016002820154815260200160038201548152602001600482015481526020016005820154815260200160068201548152602001600782015481526020016008820154815260200160098201548152602001600a820160009054906101000a900460ff1660018111156125c757fe5b60018111156125d257fe5b8152602001600b8201548152602001600c8201548152602001600d8201548152602001600e820160009054906101000a900473ffffffffffffffffffffffffffffffffffffffff1673ffffffffffffffffffffffffffffffffffffffff1673ffffffffffffffffffffffffffffffffffffffff168152602001600f82015481525050905060018510156126cd576040517f08c379a00000000000000000000000000000000000000000000000000000000081526004018080602001828103825260058152602001807f313030303500000000000000000000000000000000000000000000000000000081525060200191505060405180910390fd5b600093508060e001519250846040519080825280602002602001820160405280156127075781602001602082028038833980820191505090505b5091506000816101a001519050600082610120015190506000836101e00151905060008090505b888110156128145761274987896136c090919063ffffffff16565b97508686828151811061275857fe5b6020026020010181815250506127786001856136c090919063ffffffff16565b9350818414156127af57612796600284613be190919063ffffffff16565b92506127ac600283613c7090919063ffffffff16565b91505b60006127dc60646127ce600854600a0a87613be190919063ffffffff16565b6136c090919063ffffffff16565b905061280460646127f6838b613c7090919063ffffffff16565b613be190919063ffffffff16565b975050808060010191505061272e565b50868686965096509650505050509193909250565b600080349050600033905061283f848383613d08565b92505050919050565b60006128e333846128de85600160003373ffffffffffffffffffffffffffffffffffffffff1673ffffffffffffffffffffffffffffffffffffffff16815260200190815260200160002060008973ffffffffffffffffffffffffffffffffffffffff1673ffffffffffffffffffffffffffffffffffffffff16815260200190815260200160002054613b5890919063ffffffff16565b6134c9565b6001905092915050565b60006128fa338484613748565b6001905092915050565b600061290f83614aa9565b612981576040517f08c379a00000000000000000000000000000000000000000000000000000000081526004018080602001828103825260058152602001807f313030303100000000000000000000000000000000000000000000000000000081525060200191505060405180910390fd5b60018210156129f8576040517f08c379a00000000000000000000000000000000000000000000000000000000081526004018080602001828103825260058152602001807f313030303500000000000000000000000000000000000000000000000000000081525060200191505060405180910390fd5b612a00615bce565b600e6040518061020001604052908160008201548152602001600182018054600181600116156101000203166002900480601f016020809104026020016040519081016040528092919081815260200182805460018160011615610100020316600290048015612ab15780601f10612a8657610100808354040283529160200191612ab1565b820191906000526020600020905b815481529060010190602001808311612a9457829003601f168201915b505050505081526020016002820154815260200160038201548152602001600482015481526020016005820154815260200160068201548152602001600782015481526020016008820154815260200160098201548152602001600a820160009054906101000a900460ff166001811115612b2857fe5b6001811115612b3357fe5b8152602001600b8201548152602001600c8201548152602001600d8201548152602001600e820160009054906101000a900473ffffffffffffffffffffffffffffffffffffffff1673ffffffffffffffffffffffffffffffffffffffff1673ffffffffffffffffffffffffffffffffffffffff168152602001600f820154815250509050600081600001511415612c32576040517f08c379a00000000000000000000000000000000000000000000000000000000081526004018080602001828103825260058152602001807f313030303000000000000000000000000000000000000000000000000000000081525060200191505060405180910390fd5b600034905060003390506000806060612c4a88612492565b80935081945082955050505082851015612ccc576040517f08c379a00000000000000000000000000000000000000000000000000000000081526004018080602001828103825260058152602001807f313030303700000000000000000000000000000000000000000000000000000081525060200191505060405180910390fd5b87815114612d42576040517f08c379a00000000000000000000000000000000000000000000000000000000081526004018080602001828103825260058152602001807f313030303500000000000000000000000000000000000000000000000000000081525060200191505060405180910390fd5b600080905060008090505b89811015612d8a57612d7b838281518110612d6457fe5b6020026020010151836136c090919063ffffffff16565b91508080600101915050612d4d565b50838114612e00576040517f08c379a00000000000000000000000000000000000000000000000000000000081526004018080602001828103825260058152602001807f313030303500000000000000000000000000000000000000000000000000000081525060200191505060405180910390fd5b60008090505b89811015612e40576000838281518110612e1c57fe5b60200260200101519050612e318c8289613d08565b50508080600101915050612e06565b50600197505050505050505092915050565b60008034905060008111612ece576040517f08c379a00000000000000000000000000000000000000000000000000000000081526004018080602001828103825260058152602001807f313030303600000000000000000000000000000000000000000000000000000081525060200191505060405180910390fd5b60003390506000429050612ee0615bce565b600e6040518061020001604052908160008201548152602001600182018054600181600116156101000203166002900480601f016020809104026020016040519081016040528092919081815260200182805460018160011615610100020316600290048015612f915780601f10612f6657610100808354040283529160200191612f91565b820191906000526020600020905b815481529060010190602001808311612f7457829003601f168201915b505050505081526020016002820154815260200160038201548152602001600482015481526020016005820154815260200160068201548152602001600782015481526020016008820154815260200160098201548152602001600a820160009054906101000a900460ff16600181111561300857fe5b600181111561301357fe5b8152602001600b8201548152602001600c8201548152602001600d8201548152602001600e820160009054906101000a900473ffffffffffffffffffffffffffffffffffffffff1673ffffffffffffffffffffffffffffffffffffffff1673ffffffffffffffffffffffffffffffffffffffff168152602001600f8201548152505090506130af84600e600c01546136c090919063ffffffff16565b600e600c018190555060006130d36001836101a001516136c090919063ffffffff16565b905080600e600d018190555082600e600401819055506131008260600151846136c090919063ffffffff16565b600e60050181905550600061313b606461312d600854600a0a866101200151613be190919063ffffffff16565b6136c090919063ffffffff16565b905060008360e00151905061316c606461315e8484613c7090919063ffffffff16565b613be190919063ffffffff16565b600e6007018190555085600e800160006101000a81548173ffffffffffffffffffffffffffffffffffffffff021916908373ffffffffffffffffffffffffffffffffffffffff160217905550600197505050505050505090565b600042905090565b6000600b60009054906101000a900473ffffffffffffffffffffffffffffffffffffffff1673ffffffffffffffffffffffffffffffffffffffff163373ffffffffffffffffffffffffffffffffffffffff1614613276576040517f08c379a0000000000000000000000000000000000000000000000000000000008152600401808060200182810382526022815260200180615d966022913960400191505060405180910390fd5b6132b1600b60009054906101000a900473ffffffffffffffffffffffffffffffffffffffff166132a4611900565b60ff16600a0a8402614baf565b60019050919050565b6000600160008473ffffffffffffffffffffffffffffffffffffffff1673ffffffffffffffffffffffffffffffffffffffff16815260200190815260200160002060008373ffffffffffffffffffffffffffffffffffffffff1673ffffffffffffffffffffffffffffffffffffffff16815260200190815260200160002054905092915050565b6000600b60009054906101000a900473ffffffffffffffffffffffffffffffffffffffff1673ffffffffffffffffffffffffffffffffffffffff163373ffffffffffffffffffffffffffffffffffffffff16146133e9576040517f08c379a0000000000000000000000000000000000000000000000000000000008152600401808060200182810382526022815260200180615d966022913960400191505060405180910390fd5b8273ffffffffffffffffffffffffffffffffffffffff16600b60009054906101000a900473ffffffffffffffffffffffffffffffffffffffff1673ffffffffffffffffffffffffffffffffffffffff1614156134ad576040517f08c379a00000000000000000000000000000000000000000000000000000000081526004018080602001828103825260148152602001807f63616e206e6f7420667265657a65206f776e657200000000000000000000000081525060200191505060405180910390fd5b6134b78383614d6a565b905092915050565b6000600754905090565b600073ffffffffffffffffffffffffffffffffffffffff168373ffffffffffffffffffffffffffffffffffffffff16141561354f576040517f08c379a0000000000000000000000000000000000000000000000000000000008152600401808060200182810382526024815260200180615e206024913960400191505060405180910390fd5b600073ffffffffffffffffffffffffffffffffffffffff168273ffffffffffffffffffffffffffffffffffffffff1614156135d5576040517f08c379a0000000000000000000000000000000000000000000000000000000008152600401808060200182810382526022815260200180615db86022913960400191505060405180910390fd5b80600160008573ffffffffffffffffffffffffffffffffffffffff1673ffffffffffffffffffffffffffffffffffffffff16815260200190815260200160002060008473ffffffffffffffffffffffffffffffffffffffff1673ffffffffffffffffffffffffffffffffffffffff168152602001908152602001600020819055508173ffffffffffffffffffffffffffffffffffffffff168373ffffffffffffffffffffffffffffffffffffffff167f8c5be1e5ebec7d5bd14f71427d1e84f3dd0314c0f7b2291e5b200ac8c7c3b925836040518082815260200191505060405180910390a3505050565b60008082840190508381101561373e576040517f08c379a000000000000000000000000000000000000000000000000000000000815260040180806020018281038252601b8152602001807f536166654d6174683a206164646974696f6e206f766572666c6f77000000000081525060200191505060405180910390fd5b8091505092915050565b600360008473ffffffffffffffffffffffffffffffffffffffff1673ffffffffffffffffffffffffffffffffffffffff16815260200190815260200160002060009054906101000a900460ff1615613808576040517f08c379a00000000000000000000000000000000000000000000000000000000081526004018080602001828103825260178152602001807f74686973206163636f756e74206861732066726f7a656e00000000000000000081525060200191505060405180910390fd5b600073ffffffffffffffffffffffffffffffffffffffff168373ffffffffffffffffffffffffffffffffffffffff16141561388e576040517f08c379a0000000000000000000000000000000000000000000000000000000008152600401808060200182810382526025815260200180615dfb6025913960400191505060405180910390fd5b600073ffffffffffffffffffffffffffffffffffffffff168273ffffffffffffffffffffffffffffffffffffffff161415613914576040517f08c379a0000000000000000000000000000000000000000000000000000000008152600401808060200182810382526023815260200180615d736023913960400191505060405180910390fd5b806000808573ffffffffffffffffffffffffffffffffffffffff1673ffffffffffffffffffffffffffffffffffffffff1681526020019081526020016000205410156139c8576040517f08c379a00000000000000000000000000000000000000000000000000000000081526004018080602001828103825260188152602001807f73656e64657220616d6f756e74204e6f7420656e6f756768000000000000000081525060200191505060405180910390fd5b613a19816000808673ffffffffffffffffffffffffffffffffffffffff1673ffffffffffffffffffffffffffffffffffffffff16815260200190815260200160002054613b5890919063ffffffff16565b6000808573ffffffffffffffffffffffffffffffffffffffff1673ffffffffffffffffffffffffffffffffffffffff16815260200190815260200160002081905550613aac816000808573ffffffffffffffffffffffffffffffffffffffff1673ffffffffffffffffffffffffffffffffffffffff168152602001908152602001600020546136c090919063ffffffff16565b6000808473ffffffffffffffffffffffffffffffffffffffff1673ffffffffffffffffffffffffffffffffffffffff168152602001908152602001600020819055508173ffffffffffffffffffffffffffffffffffffffff168373ffffffffffffffffffffffffffffffffffffffff167fddf252ad1be2c89b69c2b068fc378daa952ba7f163c4a11628f55a4df523b3ef836040518082815260200191505060405180910390a3505050565b600082821115613bd0576040517f08c379a000000000000000000000000000000000000000000000000000000000815260040180806020018281038252601e8152602001807f536166654d6174683a207375627472616374696f6e206f766572666c6f77000081525060200191505060405180910390fd5b600082840390508091505092915050565b6000808211613c58576040517f08c379a000000000000000000000000000000000000000000000000000000000815260040180806020018281038252601a8152602001807f536166654d6174683a206469766973696f6e206279207a65726f00000000000081525060200191505060405180910390fd5b6000828481613c6357fe5b0490508091505092915050565b600080831415613c835760009050613d02565b6000821415613c955760009050613d02565b6000828402905082848281613ca657fe5b0414613cfd576040517f08c379a0000000000000000000000000000000000000000000000000000000008152600401808060200182810382526021815260200180615dda6021913960400191505060405180910390fd5b809150505b92915050565b6000808290506000849050613d1c86614aa9565b613d8e576040517f08c379a00000000000000000000000000000000000000000000000000000000081526004018080602001828103825260058152602001807f313030303100000000000000000000000000000000000000000000000000000081525060200191505060405180910390fd5b613d96615bce565b600e6040518061020001604052908160008201548152602001600182018054600181600116156101000203166002900480601f016020809104026020016040519081016040528092919081815260200182805460018160011615610100020316600290048015613e475780601f10613e1c57610100808354040283529160200191613e47565b820191906000526020600020905b815481529060010190602001808311613e2a57829003601f168201915b505050505081526020016002820154815260200160038201548152602001600482015481526020016005820154815260200160068201548152602001600782015481526020016008820154815260200160098201548152602001600a820160009054906101000a900460ff166001811115613ebe57fe5b6001811115613ec957fe5b8152602001600b8201548152602001600c8201548152602001600d8201548152602001600e820160009054906101000a900473ffffffffffffffffffffffffffffffffffffffff1673ffffffffffffffffffffffffffffffffffffffff1673ffffffffffffffffffffffffffffffffffffffff168152602001600f820154815250509050600081600001511415613fc8576040517f08c379a00000000000000000000000000000000000000000000000000000000081526004018080602001828103825260058152602001807f313030303000000000000000000000000000000000000000000000000000000081525060200191505060405180910390fd5b60008160e0015190506000826101a0015190506000811415613fe957600190505b613ff281614e3c565b90506000600181111561400157fe5b836101400151600181111561401257fe5b14614085576040517f08c379a00000000000000000000000000000000000000000000000000000000081526004018080602001828103825260058152602001807f313030303200000000000000000000000000000000000000000000000000000081525060200191505060405180910390fd5b428360a00151116140fe576040517f08c379a00000000000000000000000000000000000000000000000000000000081526004018080602001828103825260058152602001807f313030303300000000000000000000000000000000000000000000000000000081525060200191505060405180910390fd5b83821115614174576040517f08c379a00000000000000000000000000000000000000000000000000000000081526004018080602001828103825260058152602001807f313030303400000000000000000000000000000000000000000000000000000081525060200191505060405180910390fd5b600061419e6064614190600a5488613c7090919063ffffffff16565b613be190919063ffffffff16565b905060006141ca60646141bc60095489613c7090919063ffffffff16565b613be190919063ffffffff16565b905060006141f660646141e8600c548a613c7090919063ffffffff16565b613be190919063ffffffff16565b905060006142226064614214600d548b613c7090919063ffffffff16565b613be190919063ffffffff16565b905060006142328a8f878c6150ac565b905060008090505b601e805490508110156142d4576000601e828154811061425657fe5b9060005260206000200160009054906101000a900473ffffffffffffffffffffffffffffffffffffffff169050602260008273ffffffffffffffffffffffffffffffffffffffff1673ffffffffffffffffffffffffffffffffffffffff1681526020019081526020016000206000905550808060010191505061423a565b50600b60009054906101000a900473ffffffffffffffffffffffffffffffffffffffff1673ffffffffffffffffffffffffffffffffffffffff1673ffffffffffffffffffffffffffffffffffffffff166108fc859081150290604051600060405180830381858888f19350505050158015614353573d6000803e3d6000fd5b5060008a9050600b60009054906101000a900473ffffffffffffffffffffffffffffffffffffffff1673ffffffffffffffffffffffffffffffffffffffff168273ffffffffffffffffffffffffffffffffffffffff1614156143d557600b60009054906101000a900473ffffffffffffffffffffffffffffffffffffffff1690505b8073ffffffffffffffffffffffffffffffffffffffff166108fc849081150290604051600060405180830381858888f1935050505015801561441b573d6000803e3d6000fd5b506000614431878c613b5890919063ffffffff16565b90506144468682613b5890919063ffffffff16565b905061445b8482613b5890919063ffffffff16565b9050600080905060008090505b601e805490508110156145ea576000601e828154811061448457fe5b9060005260206000200160009054906101000a900473ffffffffffffffffffffffffffffffffffffffff1690506000602060008373ffffffffffffffffffffffffffffffffffffffff1673ffffffffffffffffffffffffffffffffffffffff1681526020019081526020016000205490506000809050614503836155b3565b156145da5761452d8d61451f848d613c7090919063ffffffff16565b613be190919063ffffffff16565b905061454281866136c090919063ffffffff16565b945061459681602260008673ffffffffffffffffffffffffffffffffffffffff1673ffffffffffffffffffffffffffffffffffffffff168152602001908152602001600020546136c090919063ffffffff16565b602260008573ffffffffffffffffffffffffffffffffffffffff1673ffffffffffffffffffffffffffffffffffffffff168152602001908152602001600020819055505b5050508080600101915050614468565b506145fe8183613b5890919063ffffffff16565b915060008090505b601e805490508110156148f9576000601e828154811061462257fe5b9060005260206000200160009054906101000a900473ffffffffffffffffffffffffffffffffffffffff1690506000602260008373ffffffffffffffffffffffffffffffffffffffff1673ffffffffffffffffffffffffffffffffffffffff16815260200190815260200160002054905060008111156148ea576146a4615d0d565b601f60008473ffffffffffffffffffffffffffffffffffffffff1673ffffffffffffffffffffffffffffffffffffffff16815260200190815260200160002060405180608001604052908160008201548152602001600182015481526020016002820160009054906101000a900473ffffffffffffffffffffffffffffffffffffffff1673ffffffffffffffffffffffffffffffffffffffff1673ffffffffffffffffffffffffffffffffffffffff1681526020016002820160149054906101000a900460ff16151515158152505090508060600151156147a4576147968282600001516136c090919063ffffffff16565b8160000181815250506147e3565b604051806080016040528083815260200160008152602001600073ffffffffffffffffffffffffffffffffffffffff1681526020016001151581525090505b80601f60008573ffffffffffffffffffffffffffffffffffffffff1673ffffffffffffffffffffffffffffffffffffffff168152602001908152602001600020600082015181600001556020820151816001015560408201518160020160006101000a81548173ffffffffffffffffffffffffffffffffffffffff021916908373ffffffffffffffffffffffffffffffffffffffff16021790555060608201518160020160146101000a81548160ff0219169083151502179055509050508273ffffffffffffffffffffffffffffffffffffffff166108fc839081150290604051600060405180830381858888f193505050501580156148e7573d6000803e3d6000fd5b50505b50508080600101915050614606565b5060008090505b601e8054905081101561499a576000601e828154811061491c57fe5b9060005260206000200160009054906101000a900473ffffffffffffffffffffffffffffffffffffffff169050602260008273ffffffffffffffffffffffffffffffffffffffff1673ffffffffffffffffffffffffffffffffffffffff16815260200190815260200160002060009055508080600101915050614900565b506149a68d83836157b8565b507fb6668bab6642a507a81c08f30893aaa47e0c29df8e88ad6b9c19ffd3a2296cf38d8d42604051808473ffffffffffffffffffffffffffffffffffffffff1673ffffffffffffffffffffffffffffffffffffffff16815260200183815260200182815260200180602001828103825260038152602001807f427579000000000000000000000000000000000000000000000000000000000081525060200194505050505060405180910390a1614a91600b60009054906101000a900473ffffffffffffffffffffffffffffffffffffffff168e614a82611900565b60ff16600a0a60235402613748565b60019d50505050505050505050505050509392505050565b60008073ffffffffffffffffffffffffffffffffffffffff168273ffffffffffffffffffffffffffffffffffffffff161415614ae85760009050614baa565b600b60009054906101000a900473ffffffffffffffffffffffffffffffffffffffff1673ffffffffffffffffffffffffffffffffffffffff168273ffffffffffffffffffffffffffffffffffffffff161415614b475760019050614baa565b601f60008373ffffffffffffffffffffffffffffffffffffffff1673ffffffffffffffffffffffffffffffffffffffff16815260200190815260200160002060020160149054906101000a900460ff1615614ba55760019050614baa565b600090505b919050565b600073ffffffffffffffffffffffffffffffffffffffff168273ffffffffffffffffffffffffffffffffffffffff161415614c52576040517f08c379a000000000000000000000000000000000000000000000000000000000815260040180806020018281038252601f8152602001807f45524332303a206d696e7420746f20746865207a65726f20616464726573730081525060200191505060405180910390fd5b614c67816002546136c090919063ffffffff16565b600281905550614cbe816000808573ffffffffffffffffffffffffffffffffffffffff1673ffffffffffffffffffffffffffffffffffffffff168152602001908152602001600020546136c090919063ffffffff16565b6000808473ffffffffffffffffffffffffffffffffffffffff1673ffffffffffffffffffffffffffffffffffffffff168152602001908152602001600020819055508173ffffffffffffffffffffffffffffffffffffffff16600073ffffffffffffffffffffffffffffffffffffffff167fddf252ad1be2c89b69c2b068fc378daa952ba7f163c4a11628f55a4df523b3ef836040518082815260200191505060405180910390a35050565b600081600360008573ffffffffffffffffffffffffffffffffffffffff1673ffffffffffffffffffffffffffffffffffffffff16815260200190815260200160002060006101000a81548160ff0219169083151502179055507f48335238b4855f35377ed80f164e8c6f3c366e54ac00b96a6402d4a9814a03a58383604051808373ffffffffffffffffffffffffffffffffffffffff1673ffffffffffffffffffffffffffffffffffffffff168152602001821515151581526020019250505060405180910390a16001905092915050565b60008190506000614e5c600754600a0a6003613c7090919063ffffffff16565b905060008090505b601e805490508110156150a2576000601e8281548110614e8057fe5b9060005260206000200160009054906101000a900473ffffffffffffffffffffffffffffffffffffffff169050600b60009054906101000a900473ffffffffffffffffffffffffffffffffffffffff1673ffffffffffffffffffffffffffffffffffffffff168173ffffffffffffffffffffffffffffffffffffffff161415614f095750615095565b614f11615d0d565b601f60008373ffffffffffffffffffffffffffffffffffffffff1673ffffffffffffffffffffffffffffffffffffffff16815260200190815260200160002060405180608001604052908160008201548152602001600182015481526020016002820160009054906101000a900473ffffffffffffffffffffffffffffffffffffffff1673ffffffffffffffffffffffffffffffffffffffff1673ffffffffffffffffffffffffffffffffffffffff1681526020016002820160149054906101000a900460ff16151515158152505090506000602060008473ffffffffffffffffffffffffffffffffffffffff1673ffffffffffffffffffffffffffffffffffffffff168152602001908152602001600020549050816060015180156150375750600081115b15615091576000615070600754600a0a61506285602001518660000151613be190919063ffffffff16565b613c7090919063ffffffff16565b905085811061508f5761508c8289613b5890919063ffffffff16565b96505b505b5050505b8080600101915050614e64565b5081915050919050565b60006150b6615d0d565b601f60008773ffffffffffffffffffffffffffffffffffffffff1673ffffffffffffffffffffffffffffffffffffffff16815260200190815260200160002060405180608001604052908160008201548152602001600182015481526020016002820160009054906101000a900473ffffffffffffffffffffffffffffffffffffffff1673ffffffffffffffffffffffffffffffffffffffff1673ffffffffffffffffffffffffffffffffffffffff1681526020016002820160149054906101000a900460ff1615151515815250509050600080905081606001511561519e57816040015190505b600073ffffffffffffffffffffffffffffffffffffffff168173ffffffffffffffffffffffffffffffffffffffff1614156151d7578590505b600073ffffffffffffffffffffffffffffffffffffffff168173ffffffffffffffffffffffffffffffffffffffff16141561523257600b60009054906101000a900473ffffffffffffffffffffffffffffffffffffffff1690505b8073ffffffffffffffffffffffffffffffffffffffff166108fc869081150290604051600060405180830381858888f19350505050158015615278573d6000803e3d6000fd5b506152cb85602160008473ffffffffffffffffffffffffffffffffffffffff1673ffffffffffffffffffffffffffffffffffffffff168152602001908152602001600020546136c090919063ffffffff16565b602160008373ffffffffffffffffffffffffffffffffffffffff1673ffffffffffffffffffffffffffffffffffffffff1681526020019081526020016000208190555081606001511561542657601f60008873ffffffffffffffffffffffffffffffffffffffff1673ffffffffffffffffffffffffffffffffffffffff16815260200190815260200160002060405180608001604052908160008201548152602001600182015481526020016002820160009054906101000a900473ffffffffffffffffffffffffffffffffffffffff1673ffffffffffffffffffffffffffffffffffffffff1673ffffffffffffffffffffffffffffffffffffffff1681526020016002820160149054906101000a900460ff161515151581525050915080826040019073ffffffffffffffffffffffffffffffffffffffff16908173ffffffffffffffffffffffffffffffffffffffff16815250506154cb565b604051806080016040528060008152602001600081526020018273ffffffffffffffffffffffffffffffffffffffff168152602001600115158152509150601e8790806001815401808255809150509060018203906000526020600020016000909192909190916101000a81548173ffffffffffffffffffffffffffffffffffffffff021916908373ffffffffffffffffffffffffffffffffffffffff160217905550505b6154e28483602001516136c090919063ffffffff16565b82602001818152505081601f60008973ffffffffffffffffffffffffffffffffffffffff1673ffffffffffffffffffffffffffffffffffffffff168152602001908152602001600020600082015181600001556020820151816001015560408201518160020160006101000a81548173ffffffffffffffffffffffffffffffffffffffff021916908373ffffffffffffffffffffffffffffffffffffffff16021790555060608201518160020160146101000a81548160ff0219169083151502179055509050505050949350505050565b600060019050600b60009054906101000a900473ffffffffffffffffffffffffffffffffffffffff1673ffffffffffffffffffffffffffffffffffffffff168273ffffffffffffffffffffffffffffffffffffffff16141561561857600190506157b3565b6000615633600754600a0a6003613c7090919063ffffffff16565b905061563d615d0d565b601f60008573ffffffffffffffffffffffffffffffffffffffff1673ffffffffffffffffffffffffffffffffffffffff16815260200190815260200160002060405180608001604052908160008201548152602001600182015481526020016002820160009054906101000a900473ffffffffffffffffffffffffffffffffffffffff1673ffffffffffffffffffffffffffffffffffffffff1673ffffffffffffffffffffffffffffffffffffffff1681526020016002820160149054906101000a900460ff16151515158152505090506000602060008673ffffffffffffffffffffffffffffffffffffffff1673ffffffffffffffffffffffffffffffffffffffff168152602001908152602001600020549050816060015180156157635750600081115b156157ac57600061579c600754600a0a61578e85602001518660000151613be190919063ffffffff16565b613c7090919063ffffffff16565b90508381106157aa57600094505b505b8393505050505b919050565b6000804290506157c6615bce565b600e6040518061020001604052908160008201548152602001600182018054600181600116156101000203166002900480601f0160208091040260200160405190810160405280929190818152602001828054600181600116156101000203166002900480156158775780601f1061584c57610100808354040283529160200191615877565b820191906000526020600020905b81548152906001019060200180831161585a57829003601f168201915b505050505081526020016002820154815260200160038201548152602001600482015481526020016005820154815260200160068201548152602001600782015481526020016008820154815260200160098201548152602001600a820160009054906101000a900460ff1660018111156158ee57fe5b60018111156158f957fe5b8152602001600b8201548152602001600c8201548152602001600d8201548152602001600e820160009054906101000a900473ffffffffffffffffffffffffffffffffffffffff1673ffffffffffffffffffffffffffffffffffffffff1673ffffffffffffffffffffffffffffffffffffffff168152602001600f82015481525050905085600e800160006101000a81548173ffffffffffffffffffffffffffffffffffffffff021916908373ffffffffffffffffffffffffffffffffffffffff1602179055506159d8858261016001516136c090919063ffffffff16565b600e600b018190555060006159fc6001836101a001516136c090919063ffffffff16565b905080600e600d0181905550615a5b6001602060008a73ffffffffffffffffffffffffffffffffffffffff1673ffffffffffffffffffffffffffffffffffffffff168152602001908152602001600020546136c090919063ffffffff16565b602060008973ffffffffffffffffffffffffffffffffffffffff1673ffffffffffffffffffffffffffffffffffffffff1681526020019081526020016000208190555082600e60040181905550615abf8260600151846136c090919063ffffffff16565b600e60050181905550816101e00151811415615b3b576000615af06002846101200151613be190919063ffffffff16565b90508083610120018181525050615b166002846101e00151613c7090919063ffffffff16565b836101e001818152505080600e60090181905550826101e00151600e600f0181905550505b6000615b6d6064615b5f600854600a0a866101200151613be190919063ffffffff16565b6136c090919063ffffffff16565b9050615b996064615b8b838660e00151613c7090919063ffffffff16565b613be190919063ffffffff16565b600e60070181905550615bba86600e600c01546136c090919063ffffffff16565b600e600c0181905550505050509392505050565b6040518061020001604052806000815260200160608152602001600081526020016000815260200160008152602001600081526020016000815260200160008152602001600081526020016000815260200160006001811115615c2d57fe5b8152602001600081526020016000815260200160008152602001600073ffffffffffffffffffffffffffffffffffffffff168152602001600081525090565b5080546000825590600052602060002090810190615c8a9190615d4d565b50565b828054600181600116156101000203166002900490600052602060002090601f016020900481019282601f10615cce57805160ff1916838001178555615cfc565b82800160010185558215615cfc579182015b82811115615cfb578251825591602001919060010190615ce0565b5b509050615d099190615d4d565b5090565b60405180608001604052806000815260200160008152602001600073ffffffffffffffffffffffffffffffffffffffff1681526020016000151581525090565b615d6f91905b80821115615d6b576000816000905550600101615d53565b5090565b9056fe45524332303a207472616e7366657220746f20746865207a65726f20616464726573734f6e6c79206f776e65722063616e2063616c6c20746869732066756e6374696f6e2e45524332303a20617070726f766520746f20746865207a65726f2061646472657373536166654d6174683a206d756c7469706c69636174696f6e206f766572666c6f7745524332303a207472616e736665722066726f6d20746865207a65726f206164647265737345524332303a20617070726f76652066726f6d20746865207a65726f2061646472657373a265627a7a72315820fbfb7848b291c8c4b7de58e67371a6620a9dd483ff6c9ab1d1f3d4ad2254102964736f6c63430005110032536166654d6174683a206d756c7469706c69636174696f6e206f766572666c6f77",
  "source": "pragma solidity ^0.5.4;\r\n\r\nimport \"./SafeMath.sol\";\r\nimport \"./Entitys.sol\";\r\n\r\nimport \"./ERC20.sol\";\r\nimport \"./ERC20Detailed.sol\";\r\n\r\n/***\r\n    \r\n */\r\ncontract lira is ERC20, ERC20Detailed {\r\n    modifier onlyOwner {\r\n        require(msg.sender == _owner, \"Only owner can call this function.\");\r\n        _;\r\n    }\r\n\r\n    using SafeMath for uint256;\r\n\r\n    /** */\r\n    //assert(1 wei == 1);\r\n    //assert(1 szabo == 1e12);\r\n    //assert(1 finney == 1e15);\r\n    //assert(1 ether == 1e18);\r\n    uint256 private _trx_decimals = 18;\r\n    uint256 private _price_upper_decimals = 18;\r\n\r\n    /** */\r\n    uint256 private _fee_rate = 10;\r\n    /** */\r\n    uint256 private _recommend_rate = 10;\r\n    address private _owner;\r\n\r\n    /** */\r\n    uint256 private _bonus_rate = 45;\r\n\r\n    /* */\r\n    uint256 private _feeback_rate = 5;\r\n    //10% 10% 5% 30% 45%\r\n    /**\r\n        \r\n     */\r\n    Entitys.GameStruct private current_game;\r\n\r\n    //\r\n    address[] private game_buy_users;\r\n\r\n    /***\r\n    ->->\r\n    */\r\n    mapping(address => Entitys.UserBenefitAndInvestment)\r\n        private game_investment_benefit;\r\n    /**\r\n    ->->\r\n     */\r\n    mapping(address => uint256) private game_user_buy_count;\r\n\r\n    /**\r\n    ->\r\n     */\r\n    mapping(address => uint256) private user_recommend_value;\r\n\r\n    //\r\n    mapping(address => uint256) private user_credit_log;\r\n\r\n    //MTB\r\n    uint256 private buy_airdrop_mtb_count = uint256(1000000);\r\n\r\n    constructor(\r\n        uint256 _game_id,\r\n        string memory _name,\r\n        uint256 _game_times,\r\n        uint256 _price,\r\n        uint256 _price_upper_rate\r\n    ) public ERC20Detailed(\"LIRA\", \"LIRA\", uint8(_trx_decimals)) {\r\n        _owner = msg.sender;\r\n        uint256 temp_now = now;\r\n        uint256 _last_buy_time = temp_now;\r\n        uint256 _over_time = temp_now.add(_game_times);\r\n        uint256 _buy_price = _price * (10**uint256(_trx_decimals)).div(10**2);\r\n        uint256 price_upper_rate = _price_upper_rate.mul(\r\n            10**_price_upper_decimals\r\n        ); //1^18\r\n        uint256 _next_change_rate_count = 70;\r\n        current_game = Entitys.GameStruct({\r\n            game_id: _game_id,\r\n            name: _name,\r\n            begin_time: temp_now,\r\n            game_times: _game_times,\r\n            last_buy_time: _last_buy_time,\r\n            over_time: _over_time,\r\n            base_prce: _buy_price,\r\n            price: _buy_price,\r\n            base_price_upper_rate: price_upper_rate,\r\n            price_upper_rate: price_upper_rate,\r\n            status: Entitys.GameStatus.Ing,\r\n            prize_value: 0,\r\n            bonus_value: 0,\r\n            buy_count: 0,\r\n            last_buy_user_address: _owner,\r\n            next_change_rate_count: _next_change_rate_count\r\n        });\r\n\r\n        _mint(msg.sender, 10_000_000_000 * (10**uint256(decimals())));\r\n    }\r\n\r\n    /**\r\n        \r\n        \r\n    */\r\n    function fill_prize() public payable returns (bool success) {\r\n        uint256 amount = msg.value; //\r\n        require(amount > 0, \"10006\");\r\n        address buyer = msg.sender; //\r\n        uint256 _now = now;\r\n        Entitys.GameStruct memory game = current_game;\r\n        current_game.bonus_value = current_game.bonus_value.add(amount);\r\n        //\r\n        uint256 current_buy_count = game.buy_count.add(1);\r\n        current_game.buy_count = current_buy_count; //+1\r\n        //\r\n        current_game.last_buy_time = _now; //\r\n        //\r\n        current_game.over_time = _now.add(game.game_times); //\r\n        //\r\n        uint256 _price_upper_rate = game\r\n        .price_upper_rate\r\n        .div(10**_price_upper_decimals)\r\n        .add(100);\r\n        uint256 current_price = game.price; //\r\n        //=*115/100\r\n        current_game.price = current_price.mul(_price_upper_rate).div(100);\r\n        //\r\n        current_game.last_buy_user_address = buyer;\r\n        success = true;\r\n    }\r\n\r\n    /***\r\n     *  \r\n     * */\r\n    function getDecimals() public view returns (uint256) {\r\n        return _trx_decimals;\r\n    }\r\n\r\n    /***\r\n     *  \r\n     * */\r\n    function getOwner() public view returns (address) {\r\n        return _owner;\r\n    }\r\n\r\n    /**\r\n     * \r\n     */\r\n    function getCurrentRoundInfo()\r\n        public\r\n        view\r\n        returns (\r\n            uint256 game_id,\r\n            string memory name,\r\n            uint256 begin_time,\r\n            uint256 game_times,\r\n            uint256 last_buy_time,\r\n            uint256 over_time,\r\n            uint256 price,\r\n            uint256 price_upper_rate,\r\n            Entitys.GameStatus status,\r\n            uint256 prize_value,\r\n            uint256 bonus_value,\r\n            uint256 buy_count,\r\n            address last_buy_user_address,\r\n            uint256 next_change_rate_count\r\n        )\r\n    {\r\n        Entitys.GameStruct memory game = current_game;\r\n        game_id = game.game_id;\r\n        name = game.name;\r\n        begin_time = game.begin_time;\r\n        game_times = game.game_times;\r\n        last_buy_time = game.last_buy_time;\r\n        over_time = game.over_time;\r\n        price = game.price;\r\n        price_upper_rate = game.price_upper_rate;\r\n        status = game.status;\r\n        prize_value = game.prize_value;\r\n        buy_count = game.buy_count;\r\n        bonus_value = game.bonus_value;\r\n        last_buy_user_address = game.last_buy_user_address;\r\n        next_change_rate_count = game.next_change_rate_count;\r\n        return (\r\n            game_id,\r\n            name,\r\n            begin_time,\r\n            game_times,\r\n            last_buy_time,\r\n            over_time,\r\n            price,\r\n            price_upper_rate,\r\n            status,\r\n            prize_value,\r\n            bonus_value,\r\n            buy_count,\r\n            last_buy_user_address,\r\n            next_change_rate_count\r\n        );\r\n    }\r\n\r\n    function askprice() public view returns (uint256 price) {\r\n        Entitys.GameStruct memory game = current_game;\r\n        return game.price;\r\n    }\r\n\r\n    function ask_bulk_price(uint256 buy_count)\r\n        public\r\n        view\r\n        returns (\r\n            uint256 total_price,\r\n            uint256 last_price,\r\n            uint256[] memory price_list\r\n        )\r\n    {\r\n        Entitys.GameStruct memory game = current_game;\r\n        require(buy_count >= 1, \"10005\");\r\n        total_price = 0;\r\n        last_price = game.price; //\r\n        price_list = new uint256[](buy_count);\r\n        //\r\n        uint256 temp_buy_count = game.buy_count; //\r\n        uint256 temp_price_rate = game.price_upper_rate; //\r\n        uint256 temp_next_change_rate_count = game.next_change_rate_count;\r\n        for (uint256 i = 0; i < buy_count; i++) {\r\n            total_price = total_price.add(last_price);\r\n            price_list[i] = last_price;\r\n            temp_buy_count = temp_buy_count.add(1); //\r\n            //70-140-280-540-1080-2196-->\r\n            if (temp_buy_count == temp_next_change_rate_count) {\r\n                temp_price_rate = temp_price_rate.div(2); //,\r\n                //\r\n                temp_next_change_rate_count = temp_next_change_rate_count.mul(\r\n                    2\r\n                ); //*2\r\n            }\r\n            uint256 _price_upper_rate = temp_price_rate\r\n            .div(10**_price_upper_decimals)\r\n            .add(100);\r\n            //=*115/100\r\n            last_price = last_price.mul(_price_upper_rate).div(100);\r\n        }\r\n        return (total_price, last_price, price_list);\r\n    }\r\n\r\n    //\r\n    event BuyGameEvent(\r\n        address bidder,\r\n        uint256 amount,\r\n        uint256 buy_time,\r\n        string event_msg\r\n    );\r\n\r\n    function checkRecommend(address recommend_user)\r\n        private\r\n        view\r\n        returns (bool)\r\n    {\r\n        if (recommend_user == address(0)) {\r\n            return false;\r\n        }\r\n        if (recommend_user == _owner) {\r\n            return true;\r\n        }\r\n        if (game_investment_benefit[recommend_user].isValue) {\r\n            return true;\r\n        }\r\n        return false;\r\n    }\r\n\r\n    function bulk_buy_token(address recommend_user, uint256 buy_count)\r\n        public\r\n        payable\r\n        returns (bool success)\r\n    {\r\n        require(checkRecommend(recommend_user), \"10001\");\r\n        require(buy_count >= 1, \"10005\");\r\n        Entitys.GameStruct memory game = current_game;\r\n        require(game.game_id != uint256(0), \"10000\");\r\n        uint256 amount = msg.value; //\r\n        address buyer = msg.sender; //\r\n        uint256 total_price;\r\n        uint256 last_price;\r\n        uint256[] memory price_list;\r\n        (total_price, last_price, price_list) = ask_bulk_price(buy_count); //\r\n        require(amount >= total_price, \"10007\"); //\r\n        require(price_list.length == buy_count, \"10005\"); //\r\n        uint256 temp_total_price = 0;\r\n        for (uint256 i = 0; i < buy_count; i++) {\r\n            temp_total_price = temp_total_price.add(price_list[i]);\r\n        }\r\n        require(temp_total_price == total_price, \"10005\"); //\r\n        for (uint256 i = 0; i < buy_count; i++) {\r\n            uint256 item_amount = price_list[i]; //\r\n            buy_token_internal(recommend_user, item_amount, buyer);\r\n        }\r\n        success = true;\r\n    }\r\n\r\n    function update_game_investment_benefit(\r\n        address user,\r\n        address recommend_user,\r\n        uint256 recommend_value,\r\n        uint256 buy_value\r\n    ) private returns (address c_recommend_user) {\r\n        //--/\r\n        Entitys.UserBenefitAndInvestment memory bi = game_investment_benefit[\r\n            user\r\n        ];\r\n        //\r\n        address temp_recommend_user = address(0);\r\n        if (bi.isValue) {\r\n            //\r\n            temp_recommend_user = bi.recommend_user_address;\r\n        }\r\n        if (temp_recommend_user == address(0)) {\r\n            temp_recommend_user = recommend_user;\r\n        }\r\n        if (temp_recommend_user == address(0)) {\r\n            temp_recommend_user = _owner;\r\n        }\r\n        address(uint160(temp_recommend_user)).transfer(recommend_value); //\r\n        //\r\n        user_recommend_value[temp_recommend_user] = user_recommend_value[\r\n            temp_recommend_user\r\n        ]\r\n        .add(recommend_value);\r\n        if (bi.isValue) {\r\n            bi = game_investment_benefit[user];\r\n            bi.recommend_user_address = temp_recommend_user;\r\n        } else {\r\n            //-\r\n            bi = Entitys.UserBenefitAndInvestment(\r\n                0,\r\n                0,\r\n                temp_recommend_user,\r\n                true\r\n            );\r\n            //\r\n            game_buy_users.push(user);\r\n        }\r\n        bi.touru = bi.touru.add(buy_value);\r\n        //\r\n        game_investment_benefit[user] = bi;\r\n    }\r\n\r\n    function buy_token_internal(\r\n        address recommend_user,\r\n        uint256 amount,\r\n        address buyer\r\n    ) private returns (bool success) {\r\n        address buy_user = buyer;\r\n        uint256 buy_value = amount;\r\n        require(checkRecommend(recommend_user), \"10001\");\r\n        Entitys.GameStruct memory game = current_game;\r\n        require(game.game_id != uint256(0), \"10000\");\r\n        uint256 current_price = game.price; //\r\n        uint256 current_buy_count = game.buy_count; //\r\n        if (current_buy_count == uint256(0)) {\r\n            current_buy_count = 1;\r\n        }\r\n        //300%\r\n        current_buy_count = GetEffectiveBuyCount(current_buy_count); //\r\n\r\n        require(game.status == Entitys.GameStatus.Ing, \"10002\");\r\n        require(game.over_time > now, \"10003\");\r\n        //\r\n        require(current_price <= buy_value, \"10004\");\r\n        uint256 recommend_value = buy_value.mul(_recommend_rate).div(100);\r\n        uint256 platform_value = buy_value.mul(_fee_rate).div(100);\r\n        uint256 bonus_value = buy_value.mul(_bonus_rate).div(100);\r\n        uint256 fee_back_value = buy_value.mul(_feeback_rate).div(100);\r\n        address temp_recommend_user = update_game_investment_benefit(\r\n            buy_user,\r\n            recommend_user,\r\n            recommend_value,\r\n            buy_value\r\n        );\r\n        for (uint256 i = 0; i < game_buy_users.length; i++) {\r\n            address temp_user = game_buy_users[i];\r\n            delete user_credit_log[temp_user];\r\n        }\r\n\r\n        address(uint256(_owner)).transfer(platform_value); //\r\n        address back_user = buy_user;\r\n        if (temp_recommend_user == _owner) {\r\n            back_user = _owner;\r\n        }\r\n        address(uint160(back_user)).transfer(fee_back_value); //\r\n        //=----\r\n        uint256 temp_prize_value = buy_value.sub(recommend_value); //\r\n        temp_prize_value = temp_prize_value.sub(platform_value); //\r\n        temp_prize_value = temp_prize_value.sub(fee_back_value); //\r\n        uint256 used_bonus_value = uint256(0);\r\n        // \r\n        for (uint256 i = 0; i < game_buy_users.length; i++) {\r\n            address temp_user = game_buy_users[i];\r\n            uint256 user_buy_count = game_user_buy_count[temp_user];\r\n            uint256 temp_bonus_value = uint256(0);\r\n            //\r\n            if (CheckUserCanBonus(temp_user)) {\r\n                temp_bonus_value = bonus_value.mul(user_buy_count).div(\r\n                    current_buy_count\r\n                );\r\n                used_bonus_value = used_bonus_value.add(temp_bonus_value);\r\n                user_credit_log[temp_user] = user_credit_log[temp_user].add(\r\n                    temp_bonus_value\r\n                );\r\n            }\r\n        }\r\n        temp_prize_value = temp_prize_value.sub(used_bonus_value); //\r\n        for (uint256 i = 0; i < game_buy_users.length; i++) {\r\n            address temp_user = game_buy_users[i];\r\n            uint256 t_amount = user_credit_log[temp_user]; //\r\n            //RTX To User\r\n            if (t_amount > 0) {\r\n                //\r\n\r\n                    Entitys.UserBenefitAndInvestment memory temp_bi\r\n                 = game_investment_benefit[temp_user];\r\n                if (temp_bi.isValue) {\r\n                    temp_bi.shouyi = temp_bi.shouyi.add(t_amount);\r\n                } else {\r\n                    //-\r\n                    temp_bi = Entitys.UserBenefitAndInvestment(\r\n                        t_amount,\r\n                        0,\r\n                        address(0),\r\n                        true\r\n                    );\r\n                }\r\n                game_investment_benefit[temp_user] = temp_bi;\r\n                address(uint160(temp_user)).transfer(t_amount);\r\n            }\r\n        }\r\n        for (uint256 i = 0; i < game_buy_users.length; i++) {\r\n            address temp_user = game_buy_users[i];\r\n            delete user_credit_log[temp_user];\r\n        }\r\n\r\n        //\r\n        calcGameRate(buy_user, temp_prize_value, used_bonus_value);\r\n        emit BuyGameEvent(buy_user, buy_value, now, \"Buy\");\r\n        //MTB\r\n        _transfer(\r\n            _owner,\r\n            buy_user,\r\n            buy_airdrop_mtb_count * (10**uint256(decimals()))\r\n        );\r\n        return true;\r\n    }\r\n\r\n    function buy_token(address recommend_user)\r\n        public\r\n        payable\r\n        returns (bool success)\r\n    {\r\n        uint256 amount = msg.value; //\r\n        address buyer = msg.sender; //\r\n        return buy_token_internal(recommend_user, amount, buyer);\r\n    }\r\n\r\n    /**\r\n    \r\n     */\r\n    function calcGameRate(\r\n        address buyer,\r\n        uint256 prize_value,\r\n        uint256 used_bonus_value\r\n    ) private returns (bool) {\r\n        // grab time\r\n        uint256 _now = now;\r\n        Entitys.GameStruct memory game = current_game;\r\n        //\r\n        current_game.last_buy_user_address = buyer;\r\n        //\r\n        current_game.prize_value = game.prize_value.add(prize_value); //=+\r\n        //\r\n        uint256 current_buy_count = game.buy_count.add(1);\r\n        current_game.buy_count = current_buy_count; //+1\r\n        //+1\r\n        game_user_buy_count[buyer] = game_user_buy_count[buyer].add(1); //+1\r\n        //300%\r\n\r\n        //\r\n        current_game.last_buy_time = _now; //\r\n        //\r\n        current_game.over_time = _now.add(game.game_times); //\r\n        //70-140-280-540-1080-2196-->\r\n        if (current_buy_count == game.next_change_rate_count) {\r\n            uint256 temp_price_rate = game.price_upper_rate.div(2); //\r\n            game.price_upper_rate = temp_price_rate;\r\n            //\r\n            game.next_change_rate_count = game.next_change_rate_count.mul(2);\r\n            current_game.price_upper_rate = temp_price_rate;\r\n            //\r\n            current_game.next_change_rate_count = game.next_change_rate_count;\r\n        }\r\n        //\r\n        uint256 _price_upper_rate = game\r\n        .price_upper_rate\r\n        .div(10**_price_upper_decimals)\r\n        .add(100);\r\n        //=*115/100\r\n        current_game.price = game.price.mul(_price_upper_rate).div(100);\r\n\r\n        //\r\n        current_game.bonus_value = current_game.bonus_value.add(\r\n            used_bonus_value\r\n        );\r\n    }\r\n\r\n    /***\r\n    \r\n     */\r\n    function GetEffectiveBuyCount(uint256 current_buy_count)\r\n        private\r\n        view\r\n        returns (uint256 effective_count)\r\n    {\r\n        effective_count = current_buy_count;\r\n        //\r\n        uint256 threshold_value = uint256(3).mul(10**_trx_decimals);\r\n\r\n        for (uint256 i = 0; i < game_buy_users.length; i++) {\r\n            address temp_user = game_buy_users[i];\r\n            if (temp_user == _owner) {\r\n                continue;\r\n            }\r\n            //\r\n\r\n\r\n                Entitys.UserBenefitAndInvestment memory temp_bi\r\n             = game_investment_benefit[temp_user];\r\n            //\r\n            uint256 user_buy_count = game_user_buy_count[temp_user];\r\n            if (temp_bi.isValue && user_buy_count > 0) {\r\n                //\r\n                uint256 shouyilv = temp_bi.shouyi.div(temp_bi.touru).mul(\r\n                    10**_trx_decimals\r\n                );\r\n                if (shouyilv >= threshold_value) {\r\n                    effective_count = current_buy_count.sub(user_buy_count);\r\n                }\r\n            }\r\n        }\r\n        return effective_count;\r\n    }\r\n\r\n    /**\r\n    \r\n    */\r\n    function CheckUserCanBonus(address user)\r\n        private\r\n        view\r\n        returns (bool can_bonus)\r\n    {\r\n        can_bonus = true;\r\n        if (user == _owner) {\r\n            return true;\r\n        }\r\n        //\r\n        uint256 threshold_value = uint256(3).mul(10**_trx_decimals);\r\n        //\r\n\r\n            Entitys.UserBenefitAndInvestment memory temp_bi\r\n         = game_investment_benefit[user];\r\n        //\r\n        uint256 user_buy_count = game_user_buy_count[user];\r\n        if (temp_bi.isValue && user_buy_count > 0) {\r\n            //\r\n            uint256 shouyilv = temp_bi.shouyi.div(temp_bi.touru).mul(\r\n                10**_trx_decimals\r\n            );\r\n            if (shouyilv >= threshold_value) {\r\n                can_bonus = false;\r\n            }\r\n        }\r\n        return can_bonus;\r\n    }\r\n\r\n    /***\r\n     *  \r\n     * */\r\n    function getBuyerBuyCount(address buyer) public view returns (uint256) {\r\n        return game_user_buy_count[buyer];\r\n    }\r\n\r\n    /**\r\n     \r\n     */\r\n    function getBuerIncomeInvestment(address buyer)\r\n        public\r\n        view\r\n        returns (\r\n            uint256 income,\r\n            uint256 investment,\r\n            uint256 recommend_value,\r\n            uint256 buy_count\r\n        )\r\n    {\r\n        Entitys.UserBenefitAndInvestment memory bi = game_investment_benefit[\r\n            buyer\r\n        ];\r\n        income = bi.touru;\r\n        investment = bi.shouyi;\r\n        recommend_value = user_recommend_value[buyer];\r\n        buy_count = game_user_buy_count[buyer];\r\n        return (income, investment, recommend_value, buy_count);\r\n    }\r\n\r\n    function checkGameAndPrize() public view onlyOwner returns (bool) {\r\n        require(_owner == msg.sender, \"Must Owner Execute\");\r\n        uint256 _now = now;\r\n        Entitys.GameStruct memory game = current_game;\r\n        if (game.over_time <= _now) {\r\n            return true;\r\n        }\r\n        return false;\r\n    }\r\n\r\n    function PrizeGame() public onlyOwner returns (bool) {\r\n        require(_owner == msg.sender, \"Must Owner Execute\");\r\n        // grab time\r\n        uint256 _now = now;\r\n        Entitys.GameStruct memory game = current_game;\r\n        if (game.over_time <= _now) {\r\n            //\r\n            if (game.last_buy_user_address != address(0)) {\r\n                if (game.prize_value > 0) {\r\n                    //\r\n                    address(uint160(game.last_buy_user_address)).transfer(\r\n                        game.prize_value\r\n                    ); //\r\n                }\r\n            }\r\n            //-\r\n            for (uint256 i = 0; i < game_buy_users.length; i++) {\r\n                address temp_user = game_buy_users[i];\r\n                delete game_investment_benefit[temp_user];\r\n                delete game_user_buy_count[temp_user];\r\n                delete user_recommend_value[temp_user];\r\n            }\r\n            //\r\n            delete game_buy_users;\r\n            //\r\n\r\n            uint256 temp_now = now;\r\n            uint256 _last_buy_time = temp_now;\r\n            uint256 _over_time = temp_now.add(game.game_times);\r\n            uint256 _buy_price = game.base_prce; //1^6\r\n            uint256 price_upper_rate = game.base_price_upper_rate; //1^18\r\n            uint256 next_change_rate_count = 70;\r\n            uint256 game_id = game.game_id.add(1);\r\n            current_game = Entitys.GameStruct(\r\n                game_id,\r\n                game.name,\r\n                temp_now,\r\n                game.game_times,\r\n                _last_buy_time,\r\n                _over_time,\r\n                _buy_price,\r\n                _buy_price,\r\n                price_upper_rate,\r\n                price_upper_rate,\r\n                Entitys.GameStatus.Ing,\r\n                0,\r\n                0,\r\n                0,\r\n                _owner,\r\n                next_change_rate_count\r\n            );\r\n            return true;\r\n        }\r\n        return false;\r\n    }\r\n\r\n    function kill() public onlyOwner returns (bool) {\r\n        if (_owner == msg.sender) {\r\n            // \r\n            Entitys.GameStruct memory game = current_game;\r\n            if (game.prize_value > 0) {\r\n                address(uint160(_owner)).transfer(game.prize_value);\r\n                selfdestruct(msg.sender);\r\n                return true;\r\n            }\r\n        }\r\n        return false;\r\n    }\r\n\r\n    /**\r\n    \r\n     */\r\n    function freezeAccount(address target, bool freeze)\r\n        public\r\n        onlyOwner\r\n        returns (bool)\r\n    {\r\n        require(_owner != target, \"can not freeze owner\");\r\n        return _freezeAccount(target, freeze);\r\n    }\r\n\r\n    /*  */\r\n    function mintToken(uint256 mintedAmount) public onlyOwner returns (bool) {\r\n        _mint(_owner, mintedAmount * (10**uint256(decimals())));\r\n        return true;\r\n    }\r\n}\r\n",
  "sourcePath": "F:/OtherProducts/tron/bsc_token/contracts/lira.sol",
  "compiler": {
    "name": "solc",
    "version": "0.5.17+commit.d19bba13.Emscripten.clang"
  },
  "schemaVersion": "3.4.1",
  "updatedAt": "2021-07-05T06:55:07.488Z",
  "networkType": "ethereum",
  "devdoc": {
    "methods": {
      "allowance(address,address)": {
        "details": "See {IERC20-allowance}."
      },
      "approve(address,uint256)": {
        "details": " A1000TRXB100TRX:      * Aapproveapprove(B,100) B100TRX10ETHCtransferFrom(A, C, 10) allowance(A, B)BAtoken      * Requirements:      * - `spender` cannot be the zero address."
      },
      "balanceOf(address)": {
        "details": "See {IERC20-balanceOf}."
      },
      "decimals()": {
        "details": "Returns the number of decimals used to get its user representation. For example, if `decimals` equals `2`, a balance of `505` tokens should be displayed to a user as `5,05` (`505 / 10 ** 2`).      * Tokens usually opt for a value of 18, imitating the relationship between Ether and Wei.      * NOTE: This information is only used for _display_ purposes: it in no way affects any of the arithmetic of the contract, including {IERC20-balanceOf} and {IERC20-transfer}."
      },
      "decreaseAllowance(address,uint256)": {
        "details": "Atomically decreases the allowance granted to `spender` by the caller.      * This is an alternative to {approve} that can be used as a mitigation for problems described in {IERC20-approve}.      * Emits an {Approval} event indicating the updated allowance.      * Requirements:      * - `spender` cannot be the zero address. - `spender` must have allowance for the caller of at least `subtractedValue`."
      },
      "increaseAllowance(address,uint256)": {
        "details": "spender      * {approve}{IERC20 approve}      * Emits an {Approval} event indicating the updated allowance.      * Requirements:      * - `spender` cannot be the zero address."
      },
      "name()": {
        "details": "Returns the name of the token."
      },
      "symbol()": {
        "details": "Returns the symbol of the token, usually a shorter version of the name."
      },
      "totalSupply()": {
        "details": "See {IERC20-totalSupply}."
      },
      "transfer(address,uint256)": {
        "details": "See {IERC20-transfer}.      * Requirements:      * - `recipient` cannot be the zero address. - the caller must have a balance of at least `amount`."
      },
      "transferFrom(address,address,uint256)": {
        "details": "See {IERC20-transferFrom}.      * Emits an {Approval} event indicating the updated allowance. This is not required by the EIP. See the note at the beginning of {ERC20};      * Requirements: - `sender` and `recipient` cannot be the zero address. - `sender` must have a balance of at least `value`. - the caller must have allowance for `sender`'s tokens of at least `amount`."
      }
    }
  },
  "userdoc": {
    "methods": {
      "checkFreeze(address)": {
        "notice": ""
      },
      "fill_prize()": {
        "notice": " "
      },
      "freezeAccount(address,bool)": {
        "notice": ""
      },
      "getBuerIncomeInvestment(address)": {
        "notice": ""
      },
      "getBuyerBuyCount(address)": {
        "notice": "* "
      },
      "getCurrentRoundInfo()": {
        "notice": ""
      },
      "getDecimals()": {
        "notice": "* "
      },
      "getNow()": {
        "notice": " "
      },
      "getOwner()": {
        "notice": "* "
      }
    },
    "notice": "* "
  }
}