{
  "contractName": "lira",
  "abi": [
    {
      "inputs": [
        {
          "internalType": "uint256",
          "name": "_game_id",
          "type": "uint256"
        },
        {
          "internalType": "string",
          "name": "_name",
          "type": "string"
        },
        {
          "internalType": "uint256",
          "name": "_game_times",
          "type": "uint256"
        },
        {
          "internalType": "uint256",
          "name": "_price",
          "type": "uint256"
        },
        {
          "internalType": "uint256",
          "name": "_price_upper_rate",
          "type": "uint256"
        }
      ],
      "payable": false,
      "stateMutability": "nonpayable",
      "type": "constructor"
    },
    {
      "anonymous": false,
      "inputs": [
        {
          "indexed": true,
          "internalType": "address",
          "name": "owner",
          "type": "address"
        },
        {
          "indexed": true,
          "internalType": "address",
          "name": "spender",
          "type": "address"
        },
        {
          "indexed": false,
          "internalType": "uint256",
          "name": "value",
          "type": "uint256"
        }
      ],
      "name": "Approval",
      "type": "event"
    },
    {
      "anonymous": false,
      "inputs": [
        {
          "indexed": false,
          "internalType": "address",
          "name": "bidder",
          "type": "address"
        },
        {
          "indexed": false,
          "internalType": "uint256",
          "name": "amount",
          "type": "uint256"
        },
        {
          "indexed": false,
          "internalType": "uint256",
          "name": "buy_time",
          "type": "uint256"
        },
        {
          "indexed": false,
          "internalType": "string",
          "name": "event_msg",
          "type": "string"
        }
      ],
      "name": "BuyGameEvent",
      "type": "event"
    },
    {
      "anonymous": false,
      "inputs": [
        {
          "indexed": false,
          "internalType": "address",
          "name": "target",
          "type": "address"
        },
        {
          "indexed": false,
          "internalType": "bool",
          "name": "frozen",
          "type": "bool"
        }
      ],
      "name": "FrozenFunds",
      "type": "event"
    },
    {
      "anonymous": false,
      "inputs": [
        {
          "indexed": true,
          "internalType": "address",
          "name": "from",
          "type": "address"
        },
        {
          "indexed": true,
          "internalType": "address",
          "name": "to",
          "type": "address"
        },
        {
          "indexed": false,
          "internalType": "uint256",
          "name": "value",
          "type": "uint256"
        }
      ],
      "name": "Transfer",
      "type": "event"
    },
    {
      "constant": true,
      "inputs": [
        {
          "internalType": "address",
          "name": "owner",
          "type": "address"
        },
        {
          "internalType": "address",
          "name": "spender",
          "type": "address"
        }
      ],
      "name": "allowance",
      "outputs": [
        {
          "internalType": "uint256",
          "name": "",
          "type": "uint256"
        }
      ],
      "payable": false,
      "stateMutability": "view",
      "type": "function"
    },
    {
      "constant": false,
      "inputs": [
        {
          "internalType": "address",
          "name": "spender",
          "type": "address"
        },
        {
          "internalType": "uint256",
          "name": "value",
          "type": "uint256"
        }
      ],
      "name": "approve",
      "outputs": [
        {
          "internalType": "bool",
          "name": "",
          "type": "bool"
        }
      ],
      "payable": false,
      "stateMutability": "nonpayable",
      "type": "function"
    },
    {
      "constant": true,
      "inputs": [
        {
          "internalType": "address",
          "name": "account",
          "type": "address"
        }
      ],
      "name": "balanceOf",
      "outputs": [
        {
          "internalType": "uint256",
          "name": "",
          "type": "uint256"
        }
      ],
      "payable": false,
      "stateMutability": "view",
      "type": "function"
    },
    {
      "constant": true,
      "inputs": [
        {
          "internalType": "address",
          "name": "sender",
          "type": "address"
        }
      ],
      "name": "checkFreeze",
      "outputs": [
        {
          "internalType": "bool",
          "name": "",
          "type": "bool"
        }
      ],
      "payable": false,
      "stateMutability": "view",
      "type": "function"
    },
    {
      "constant": true,
      "inputs": [],
      "name": "decimals",
      "outputs": [
        {
          "internalType": "uint8",
          "name": "",
          "type": "uint8"
        }
      ],
      "payable": false,
      "stateMutability": "view",
      "type": "function"
    },
    {
      "constant": false,
      "inputs": [
        {
          "internalType": "address",
          "name": "spender",
          "type": "address"
        },
        {
          "internalType": "uint256",
          "name": "subtractedValue",
          "type": "uint256"
        }
      ],
      "name": "decreaseAllowance",
      "outputs": [
        {
          "internalType": "bool",
          "name": "",
          "type": "bool"
        }
      ],
      "payable": false,
      "stateMutability": "nonpayable",
      "type": "function"
    },
    {
      "constant": true,
      "inputs": [],
      "name": "getNow",
      "outputs": [
        {
          "internalType": "uint256",
          "name": "nowvalue",
          "type": "uint256"
        }
      ],
      "payable": false,
      "stateMutability": "view",
      "type": "function"
    },
    {
      "constant": false,
      "inputs": [
        {
          "internalType": "address",
          "name": "spender",
          "type": "address"
        },
        {
          "internalType": "uint256",
          "name": "addedValue",
          "type": "uint256"
        }
      ],
      "name": "increaseAllowance",
      "outputs": [
        {
          "internalType": "bool",
          "name": "",
          "type": "bool"
        }
      ],
      "payable": false,
      "stateMutability": "nonpayable",
      "type": "function"
    },
    {
      "constant": true,
      "inputs": [],
      "name": "name",
      "outputs": [
        {
          "internalType": "string",
          "name": "",
          "type": "string"
        }
      ],
      "payable": false,
      "stateMutability": "view",
      "type": "function"
    },
    {
      "constant": true,
      "inputs": [],
      "name": "symbol",
      "outputs": [
        {
          "internalType": "string",
          "name": "",
          "type": "string"
        }
      ],
      "payable": false,
      "stateMutability": "view",
      "type": "function"
    },
    {
      "constant": true,
      "inputs": [],
      "name": "totalSupply",
      "outputs": [
        {
          "internalType": "uint256",
          "name": "",
          "type": "uint256"
        }
      ],
      "payable": false,
      "stateMutability": "view",
      "type": "function"
    },
    {
      "constant": false,
      "inputs": [
        {
          "internalType": "address",
          "name": "recipient",
          "type": "address"
        },
        {
          "internalType": "uint256",
          "name": "amount",
          "type": "uint256"
        }
      ],
      "name": "transfer",
      "outputs": [
        {
          "internalType": "bool",
          "name": "",
          "type": "bool"
        }
      ],
      "payable": false,
      "stateMutability": "nonpayable",
      "type": "function"
    },
    {
      "constant": false,
      "inputs": [
        {
          "internalType": "address",
          "name": "sender",
          "type": "address"
        },
        {
          "internalType": "address",
          "name": "recipient",
          "type": "address"
        },
        {
          "internalType": "uint256",
          "name": "amount",
          "type": "uint256"
        }
      ],
      "name": "transferFrom",
      "outputs": [
        {
          "internalType": "bool",
          "name": "",
          "type": "bool"
        }
      ],
      "payable": false,
      "stateMutability": "nonpayable",
      "type": "function"
    },
    {
      "constant": false,
      "inputs": [
        {
          "internalType": "address",
          "name": "new_owner",
          "type": "address"
        }
      ],
      "name": "ChangeOwner",
      "outputs": [
        {
          "internalType": "bool",
          "name": "",
          "type": "bool"
        }
      ],
      "payable": false,
      "stateMutability": "nonpayable",
      "type": "function"
    },
    {
      "constant": true,
      "inputs": [],
      "name": "getDecimals",
      "outputs": [
        {
          "internalType": "uint256",
          "name": "",
          "type": "uint256"
        }
      ],
      "payable": false,
      "stateMutability": "view",
      "type": "function"
    },
    {
      "constant": true,
      "inputs": [],
      "name": "getOwner",
      "outputs": [
        {
          "internalType": "address",
          "name": "",
          "type": "address"
        }
      ],
      "payable": false,
      "stateMutability": "view",
      "type": "function"
    },
    {
      "constant": true,
      "inputs": [],
      "name": "getCurrentRoundInfo",
      "outputs": [
        {
          "internalType": "uint256",
          "name": "game_id",
          "type": "uint256"
        },
        {
          "internalType": "string",
          "name": "name",
          "type": "string"
        },
        {
          "internalType": "uint256",
          "name": "begin_time",
          "type": "uint256"
        },
        {
          "internalType": "uint256",
          "name": "game_times",
          "type": "uint256"
        },
        {
          "internalType": "uint256",
          "name": "last_buy_time",
          "type": "uint256"
        },
        {
          "internalType": "uint256",
          "name": "over_time",
          "type": "uint256"
        },
        {
          "internalType": "uint256",
          "name": "price",
          "type": "uint256"
        },
        {
          "internalType": "uint256",
          "name": "price_upper_rate",
          "type": "uint256"
        },
        {
          "internalType": "enum Entitys.GameStatus",
          "name": "status",
          "type": "uint8"
        },
        {
          "internalType": "uint256",
          "name": "prize_value",
          "type": "uint256"
        },
        {
          "internalType": "uint256",
          "name": "bonus_value",
          "type": "uint256"
        },
        {
          "internalType": "uint256",
          "name": "buy_count",
          "type": "uint256"
        },
        {
          "internalType": "address",
          "name": "last_buy_user_address",
          "type": "address"
        },
        {
          "internalType": "uint256",
          "name": "next_change_rate_count",
          "type": "uint256"
        }
      ],
      "payable": false,
      "stateMutability": "view",
      "type": "function"
    },
    {
      "constant": true,
      "inputs": [],
      "name": "askprice",
      "outputs": [
        {
          "internalType": "uint256",
          "name": "price",
          "type": "uint256"
        }
      ],
      "payable": false,
      "stateMutability": "view",
      "type": "function"
    },
    {
      "constant": true,
      "inputs": [
        {
          "internalType": "uint256",
          "name": "buy_count",
          "type": "uint256"
        }
      ],
      "name": "ask_bulk_price",
      "outputs": [
        {
          "internalType": "uint256",
          "name": "total_price",
          "type": "uint256"
        },
        {
          "internalType": "uint256",
          "name": "last_price",
          "type": "uint256"
        },
        {
          "internalType": "uint256[]",
          "name": "price_list",
          "type": "uint256[]"
        }
      ],
      "payable": false,
      "stateMutability": "view",
      "type": "function"
    },
    {
      "constant": false,
      "inputs": [
        {
          "internalType": "address",
          "name": "recommend_user",
          "type": "address"
        },
        {
          "internalType": "uint256",
          "name": "buy_count",
          "type": "uint256"
        }
      ],
      "name": "bulk_buy_token",
      "outputs": [
        {
          "internalType": "bool",
          "name": "success",
          "type": "bool"
        }
      ],
      "payable": true,
      "stateMutability": "payable",
      "type": "function"
    },
    {
      "constant": false,
      "inputs": [
        {
          "internalType": "address",
          "name": "recommend_user",
          "type": "address"
        }
      ],
      "name": "buy_token",
      "outputs": [
        {
          "internalType": "bool",
          "name": "success",
          "type": "bool"
        }
      ],
      "payable": true,
      "stateMutability": "payable",
      "type": "function"
    },
    {
      "constant": true,
      "inputs": [
        {
          "internalType": "address",
          "name": "buyer",
          "type": "address"
        }
      ],
      "name": "getBuyerBuyCount",
      "outputs": [
        {
          "internalType": "uint256",
          "name": "",
          "type": "uint256"
        }
      ],
      "payable": false,
      "stateMutability": "view",
      "type": "function"
    },
    {
      "constant": true,
      "inputs": [
        {
          "internalType": "address",
          "name": "buyer",
          "type": "address"
        }
      ],
      "name": "getBuerIncomeInvestment",
      "outputs": [
        {
          "internalType": "uint256",
          "name": "income",
          "type": "uint256"
        },
        {
          "internalType": "uint256",
          "name": "investment",
          "type": "uint256"
        },
        {
          "internalType": "uint256",
          "name": "recommend_value",
          "type": "uint256"
        },
        {
          "internalType": "uint256",
          "name": "buy_count",
          "type": "uint256"
        }
      ],
      "payable": false,
      "stateMutability": "view",
      "type": "function"
    },
    {
      "constant": true,
      "inputs": [],
      "name": "checkGameAndPrize",
      "outputs": [
        {
          "internalType": "bool",
          "name": "",
          "type": "bool"
        }
      ],
      "payable": false,
      "stateMutability": "view",
      "type": "function"
    },
    {
      "constant": false,
      "inputs": [],
      "name": "PrizeGame",
      "outputs": [
        {
          "internalType": "bool",
          "name": "",
          "type": "bool"
        }
      ],
      "payable": false,
      "stateMutability": "nonpayable",
      "type": "function"
    },
    {
      "constant": false,
      "inputs": [],
      "name": "kill",
      "outputs": [
        {
          "internalType": "bool",
          "name": "",
          "type": "bool"
        }
      ],
      "payable": false,
      "stateMutability": "nonpayable",
      "type": "function"
    },
    {
      "constant": false,
      "inputs": [
        {
          "internalType": "address",
          "name": "target",
          "type": "address"
        },
        {
          "internalType": "bool",
          "name": "freeze",
          "type": "bool"
        }
      ],
      "name": "freezeAccount",
      "outputs": [
        {
          "internalType": "bool",
          "name": "",
          "type": "bool"
        }
      ],
      "payable": false,
      "stateMutability": "nonpayable",
      "type": "function"
    },
    {
      "constant": false,
      "inputs": [
        {
          "internalType": "uint256",
          "name": "mintedAmount",
          "type": "uint256"
        }
      ],
      "name": "mintToken",
      "outputs": [
        {
          "internalType": "bool",
          "name": "",
          "type": "bool"
        }
      ],
      "payable": false,
      "stateMutability": "nonpayable",
      "type": "function"
    }
  ],
  "bytecode": "0x608060405260126007556012600855600a600955600a8055602d600c556005600d55620f42406023553480156200003557600080fd5b5060405162003f7f38038062003f7f833981810160405260a08110156200005b57600080fd5b8151602083018051604051929492938301929190846401000000008211156200008357600080fd5b9083019060208201858111156200009957600080fd5b8251640100000000811182820188101715620000b457600080fd5b82525081516020918201929091019080838360005b83811015620000e3578181015183820152602001620000c9565b50505050905090810190601f168015620001115780820380516001836020036101000a031916815260200191505b5060408181526020838101518483015160609095015184840184526004808652634c49524160e01b848701818152865180880190975282875294860152600754865193995096975090959262000167926200060c565b5081516200017d9060059060208501906200060c565b506006805460ff191660ff929092169190911790555050600b8054336001600160a01b031990911617905542806000620001c48287620003c4602090811b620021d017901c565b90506000620001e86064600754600a0a6200042860201b620024a41790919060201c565b8602905060006200020d600854600a0a876200049460201b6200250e1790919060201c565b90506000604690506040518061020001604052808c81526020018b81526020018781526020018a8152602001868152602001858152602001848152602001848152602001838152602001838152602001600060018111156200026b57fe5b815260006020808301829052604083018290526060830191909152600b546001600160a01b0316608083015260a09091018390528151600e9081558282015180519192620002c092600f92909101906200060c565b5060408201516002820155606082015160038201556080820151600482015560a0820151600582015560c0820151600682015560e0820151600782015561010082015160088201556101208201516009820155610140820151600a8201805460ff1916600183818111156200033157fe5b0217905550610160820151600b820155610180820151600c8201556101a0820151600d8201556101c0820151600e820180546001600160a01b0319166001600160a01b039092169190911790556101e090910151600f90910155620003b3336200039a62000501565b60ff16600a0a6402540be400026200050b60201b60201c565b5050505050505050505050620006ae565b6000828201838110156200041f576040805162461bcd60e51b815260206004820152601b60248201527f536166654d6174683a206164646974696f6e206f766572666c6f770000000000604482015290519081900360640190fd5b90505b92915050565b60008082116200047f576040805162461bcd60e51b815260206004820152601a60248201527f536166654d6174683a206469766973696f6e206279207a65726f000000000000604482015290519081900360640190fd5b60008284816200048b57fe5b04949350505050565b600082620004a55750600062000422565b81620004b45750600062000422565b82820282848281620004c257fe5b04146200041f5760405162461bcd60e51b815260040180806020018281038252602181526020018062003f5e6021913960400191505060405180910390fd5b60065460ff165b90565b6001600160a01b03821662000567576040805162461bcd60e51b815260206004820152601f60248201527f45524332303a206d696e7420746f20746865207a65726f206164647265737300604482015290519081900360640190fd5b6200058381600254620003c460201b620021d01790919060201c565b6002556001600160a01b03821660009081526020818152604090912054620005b6918390620021d0620003c4821b17901c565b6001600160a01b0383166000818152602081815260408083209490945583518581529351929391927fddf252ad1be2c89b69c2b068fc378daa952ba7f163c4a11628f55a4df523b3ef9281900390910190a35050565b828054600181600116156101000203166002900490600052602060002090601f016020900481019282601f106200064f57805160ff19168380011785556200067f565b828001600101855582156200067f579182015b828111156200067f57825182559160200191906001019062000662565b506200068d92915062000691565b5090565b6200050891905b808211156200068d576000815560010162000698565b6138a080620006be6000396000f3fe6080604052600436106101b75760003560e01c80637beeee09116100ec578063b41b779b1161008a578063dd62ed3e11610064578063dd62ed3e14610784578063e724529c146107bf578063f0141d84146107fa578063f28532921461080f576101b7565b8063b41b779b14610719578063bbe4fd5014610745578063c634d0321461075a576101b7565b80639717917d116100c65780639717917d146105f5578063a155e20414610681578063a457c2d7146106a7578063a9059cbb146106e0576101b7565b80637beeee091461059a578063893d20e8146105af57806395d89b41146105e0576101b7565b8063313ce5671161015957806341c0e1b51161013357806341c0e1b51461041757806370a082311461042c57806372e2f8f51461045f578063747dff4214610492576101b7565b8063313ce56714610380578063332e64e7146103ab57806339509351146103de576101b7565b80631986c811116101955780631986c811146102ba57806323b872dd146102cf57806325527ece1461031257806330a2181214610327576101b7565b806306fdde03146101bc578063095ea7b31461024657806318160ddd14610293575b600080fd5b3480156101c857600080fd5b506101d1610842565b6040805160208082528351818301528351919283929083019185019080838360005b8381101561020b5781810151838201526020016101f3565b50505050905090810190601f1680156102385780820380516001836020036101000a031916815260200191505b509250505060405180910390f35b34801561025257600080fd5b5061027f6004803603604081101561026957600080fd5b506001600160a01b0381351690602001356108d9565b604080519115158252519081900360200190f35b34801561029f57600080fd5b506102a86108f0565b60408051918252519081900360200190f35b3480156102c657600080fd5b5061027f6108f6565b3480156102db57600080fd5b5061027f600480360360608110156102f257600080fd5b506001600160a01b03813581169160208101359091169060400135610dd0565b34801561031e57600080fd5b506102a8610e27565b34801561033357600080fd5b5061035a6004803603602081101561034a57600080fd5b50356001600160a01b0316610f96565b604080519485526020850193909352838301919091526060830152519081900360800190f35b34801561038c57600080fd5b50610395611015565b6040805160ff9092168252519081900360200190f35b3480156103b757600080fd5b506102a8600480360360208110156103ce57600080fd5b50356001600160a01b031661101e565b3480156103ea57600080fd5b5061027f6004803603604081101561040157600080fd5b506001600160a01b03813516906020013561103c565b34801561042357600080fd5b5061027f611078565b34801561043857600080fd5b506102a86004803603602081101561044f57600080fd5b50356001600160a01b0316611293565b34801561046b57600080fd5b5061027f6004803603602081101561048257600080fd5b50356001600160a01b03166112ae565b34801561049e57600080fd5b506104a76112cc565b604051808f8152602001806020018e81526020018d81526020018c81526020018b81526020018a81526020018981526020018860018111156104e557fe5b60ff168152602001878152602001868152602001858152602001846001600160a01b03166001600160a01b0316815260200183815260200182810382528f818151815260200191508051906020019080838360005b8381101561055257818101518382015260200161053a565b50505050905090810190601f16801561057f5780820380516001836020036101000a031916815260200191505b509f5050505050505050505050505050505060405180910390f35b3480156105a657600080fd5b5061027f611507565b3480156105bb57600080fd5b506105c4611722565b604080516001600160a01b039092168252519081900360200190f35b3480156105ec57600080fd5b506101d1611731565b34801561060157600080fd5b5061061f6004803603602081101561061857600080fd5b5035611792565b6040518084815260200183815260200180602001828103825283818151815260200191508051906020019060200280838360005b8381101561066b578181015183820152602001610653565b5050505090500194505050505060405180910390f35b61027f6004803603602081101561069757600080fd5b50356001600160a01b0316611a63565b3480156106b357600080fd5b5061027f600480360360408110156106ca57600080fd5b506001600160a01b038135169060200135611ae5565b3480156106ec57600080fd5b5061027f6004803603604081101561070357600080fd5b506001600160a01b038135169060200135611b21565b61027f6004803603604081101561072f57600080fd5b506001600160a01b038135169060200135611b2e565b34801561075157600080fd5b506102a8611f0e565b34801561076657600080fd5b5061027f6004803603602081101561077d57600080fd5b5035611f12565b34801561079057600080fd5b506102a8600480360360408110156107a757600080fd5b506001600160a01b0381358116916020013516611f8b565b3480156107cb57600080fd5b5061027f600480360360408110156107e257600080fd5b506001600160a01b0381351690602001351515611fb6565b34801561080657600080fd5b506102a861206d565b34801561081b57600080fd5b5061027f6004803603602081101561083257600080fd5b50356001600160a01b0316612073565b60048054604080516020601f60026000196101006001881615020190951694909404938401819004810282018101909252828152606093909290918301828280156108ce5780601f106108a3576101008083540402835291602001916108ce565b820191906000526020600020905b8154815290600101906020018083116108b157829003601f168201915b505050505090505b90565b60006108e63384846120e4565b5060015b92915050565b60025490565b600b546000906001600160a01b031633146109425760405162461bcd60e51b81526004018080602001828103825260228152602001806137be6022913960400191505060405180910390fd5b600b546001600160a01b03163314610996576040805162461bcd60e51b81526020600482015260126024820152714d757374204f776e6572204578656375746560701b604482015290519081900360640190fd5b4261099f61361d565b6040805161020081018252600e80548252600f80548451602060026001841615610100026000190190931692909204601f81018390048302820183019096528581529394929381860193909291830182828015610a3d5780601f10610a1257610100808354040283529160200191610a3d565b820191906000526020600020905b815481529060010190602001808311610a2057829003601f168201915b505050918352505060028201546020820152600382015460408201526004820154606082015260058201546080820152600682015460a0820152600782015460c0820152600882015460e08201526009820154610100820152600a8201546101209091019060ff166001811115610ab057fe5b6001811115610abb57fe5b8152600b8201546020820152600c8201546040820152600d8201546060820152600e8201546001600160a01b03166080820152600f9091015460a0918201528101519091508210610dc7576101c08101516001600160a01b031615610b6a5761016081015115610b6a57806101c001516001600160a01b03166108fc8261016001519081150290604051600060405180830381858888f19350505050158015610b68573d6000803e3d6000fd5b505b60005b601e54811015610be5576000601e8281548110610b8657fe5b60009182526020808320909101546001600160a01b03168252601f815260408083208381556001818101859055600290910180546001600160a81b03191690558280528184208490556021909252822091909155919091019050610b6d565b50610bf2601e60006136ae565b606081015142908190600090610c0f90839063ffffffff6121d016565b60c085015161010086015186519293509091604690600090610c3890600163ffffffff6121d016565b9050604051806102000160405280828152602001896020015181526020018881526020018960600151815260200187815260200186815260200185815260200185815260200184815260200184815260200160006001811115610c9757fe5b815260006020808301829052604083018290526060830191909152600b546001600160a01b0316608083015260a09091018490528151600e9081558282015180519192610cea92600f92909101906136cf565b5060408201516002820155606082015160038201556080820151600482015560a0820151600582015560c0820151600682015560e0820151600782015561010082015160088201556101208201516009820155610140820151600a8201805460ff191660018381811115610d5a57fe5b0217905550610160820151600b820155610180820151600c8201556101a0820151600d8201556101c0820151600e820180546001600160a01b0319166001600160a01b039092169190911790556101e090910151600f9091015550600198506108d6975050505050505050565b60009250505090565b6000610ddd84848461222a565b6001600160a01b038416600090815260016020908152604080832033808552925290912054610e1d918691610e18908663ffffffff61244716565b6120e4565b5060019392505050565b6000610e3161361d565b6040805161020081018252600e80548252600f80548451602060026001841615610100026000190190931692909204601f81018390048302820183019096528581529394929381860193909291830182828015610ecf5780601f10610ea457610100808354040283529160200191610ecf565b820191906000526020600020905b815481529060010190602001808311610eb257829003601f168201915b505050918352505060028201546020820152600382015460408201526004820154606082015260058201546080820152600682015460a0820152600782015460c0820152600882015460e08201526009820154610100820152600a8201546101209091019060ff166001811115610f4257fe5b6001811115610f4d57fe5b8152600b8201546020820152600c8201546040820152600d8201546060820152600e8201546001600160a01b03166080820152600f9091015460a09091015260e0015191505090565b600080600080610fa461374d565b505050506001600160a01b039182166000818152601f6020908152604080832081516080810183528154808252600183015482860181905260029093015498891682850152600160a01b90980460ff1615156060909101529383526021825280832054918052909120549194909250565b60065460ff1690565b6001600160a01b03811660009081526020805260409020545b919050565b3360008181526001602090815260408083206001600160a01b038716845290915281205490916108e6918590610e18908663ffffffff6121d016565b600b546000906001600160a01b031633146110c45760405162461bcd60e51b81526004018080602001828103825260228152602001806137be6022913960400191505060405180910390fd5b600b546001600160a01b031633141561128d576110df61361d565b6040805161020081018252600e80548252600f80548451602060026001841615610100026000190190931692909204601f8101839004830282018301909652858152939492938186019390929183018282801561117d5780601f106111525761010080835404028352916020019161117d565b820191906000526020600020905b81548152906001019060200180831161116057829003601f168201915b505050918352505060028201546020820152600382015460408201526004820154606082015260058201546080820152600682015460a0820152600782015460c0820152600882015460e08201526009820154610100820152600a8201546101209091019060ff1660018111156111f057fe5b60018111156111fb57fe5b8152600b8201546020820152600c8201546040820152600d8201546060820152600e8201546001600160a01b03166080820152600f9091015460a0909101526101608101519091501561128b57600b546101608201516040516001600160a01b039092169181156108fc0291906000818181858888f19350505050158015611287573d6000803e3d6000fd5b5033ff5b505b50600090565b6001600160a01b031660009081526020819052604090205490565b6001600160a01b031660009081526003602052604090205460ff1690565b600060606000806000806000806000806000806000806112ea61361d565b6040805161020081018252600e80548252600f80548451602060026001841615610100026000190190931692909204601f810183900483028201830190965285815293949293818601939092918301828280156113885780601f1061135d57610100808354040283529160200191611388565b820191906000526020600020905b81548152906001019060200180831161136b57829003601f168201915b505050918352505060028201546020820152600382015460408201526004820154606082015260058201546080820152600682015460a0820152600782015460c0820152600882015460e08201526009820154610100820152600a8201546101209091019060ff1660018111156113fb57fe5b600181111561140657fe5b8152602001600b8201548152602001600c8201548152602001600d8201548152602001600e820160009054906101000a90046001600160a01b03166001600160a01b03166001600160a01b03168152602001600f82015481525050905080600001519e5080602001519d5080604001519c5080606001519b5080608001519a508060a0015199508060e001519850806101200151975080610140015196508061016001519550806101a0015193508061018001519450806101c001519250806101e0015191508e8e8e8e8e8e8e8e8e8e8e8e8e8e9e509e509e509e509e509e509e509e509e509e509e509e509e509e5050909192939495969798999a9b9c9d565b600b546000906001600160a01b031633146115535760405162461bcd60e51b81526004018080602001828103825260228152602001806137be6022913960400191505060405180910390fd5b600b546001600160a01b031633146115a7576040805162461bcd60e51b81526020600482015260126024820152714d757374204f776e6572204578656375746560701b604482015290519081900360640190fd5b426115b061361d565b6040805161020081018252600e80548252600f80548451602060026001841615610100026000190190931692909204601f8101839004830282018301909652858152939492938186019390929183018282801561164e5780601f106116235761010080835404028352916020019161164e565b820191906000526020600020905b81548152906001019060200180831161163157829003601f168201915b505050918352505060028201546020820152600382015460408201526004820154606082015260058201546080820152600682015460a0820152600782015460c0820152600882015460e08201526009820154610100820152600a8201546101209091019060ff1660018111156116c157fe5b60018111156116cc57fe5b8152600b8201546020820152600c8201546040820152600d8201546060820152600e8201546001600160a01b03166080820152600f9091015460a0918201528101519091508210610dc7576001925050506108d6565b600b546001600160a01b031690565b60058054604080516020601f60026000196101006001881615020190951694909404938401819004810282018101909252828152606093909290918301828280156108ce5780601f106108a3576101008083540402835291602001916108ce565b600080606061179f61361d565b6040805161020081018252600e80548252600f80548451602060026001841615610100026000190190931692909204601f8101839004830282018301909652858152939492938186019390929183018282801561183d5780601f106118125761010080835404028352916020019161183d565b820191906000526020600020905b81548152906001019060200180831161182057829003601f168201915b505050918352505060028201546020820152600382015460408201526004820154606082015260058201546080820152600682015460a0820152600782015460c0820152600882015460e08201526009820154610100820152600a8201546101209091019060ff1660018111156118b057fe5b60018111156118bb57fe5b8152600b8201546020820152600c8201546040820152600d8201546060820152600e8201546001600160a01b03166080820152600f9091015460a0909101529050600185101561193a576040805162461bcd60e51b8152602060048201526005602482015264313030303560d81b604482015290519081900360640190fd5b600093508060e0015192508460405190808252806020026020018201604052801561196f578160200160208202803883390190505b506101a08201516101208301516101e0840151929450909160005b88811015611a57576119a2888863ffffffff6121d016565b9750868682815181106119b157fe5b60209081029190910101526119cd84600163ffffffff6121d016565b9350818414156119fe576119e883600263ffffffff6124a416565b92506119fb82600263ffffffff61250e16565b91505b6000611a296064611a1d600854600a0a876124a490919063ffffffff16565b9063ffffffff6121d016565b9050611a4c6064611a408a8463ffffffff61250e16565b9063ffffffff6124a416565b97505060010161198a565b50505050509193909250565b60003433611a72848383612574565b92508215611ade57604080516001600160a01b03831681526020810184905242818301526080606082018190526003908201526242757960e81b60a082015290517fb6668bab6642a507a81c08f30893aaa47e0c29df8e88ad6b9c19ffd3a2296cf39181900360c00190a15b5050919050565b3360008181526001602090815260408083206001600160a01b038716845290915281205490916108e6918590610e18908663ffffffff61244716565b60006108e633848461222a565b6000611b3983612cd9565b611b72576040805162461bcd60e51b8152602060048201526005602482015264313030303160d81b604482015290519081900360640190fd5b6001821015611bb0576040805162461bcd60e51b8152602060048201526005602482015264313030303560d81b604482015290519081900360640190fd5b611bb861361d565b6040805161020081018252600e80548252600f80548451602060026001841615610100026000190190931692909204601f81018390048302820183019096528581529394929381860193909291830182828015611c565780601f10611c2b57610100808354040283529160200191611c56565b820191906000526020600020905b815481529060010190602001808311611c3957829003601f168201915b505050918352505060028201546020820152600382015460408201526004820154606082015260058201546080820152600682015460a0820152600782015460c0820152600882015460e08201526009820154610100820152600a8201546101209091019060ff166001811115611cc957fe5b6001811115611cd457fe5b8152600b8201546020820152600c8201546040820152600d8201546060820152600e8201546001600160a01b03166080820152600f9091015460a0909101528051909150611d51576040805162461bcd60e51b8152602060048201526005602482015264031303030360dc1b604482015290519081900360640190fd5b34336000806060611d6188611792565b9194509250905082851015611da5576040805162461bcd60e51b8152602060048201526005602482015264313030303760d81b604482015290519081900360640190fd5b87815114611de2576040805162461bcd60e51b8152602060048201526005602482015264313030303560d81b604482015290519081900360640190fd5b6000805b89811015611e1e57611e14838281518110611dfd57fe5b6020026020010151836121d090919063ffffffff16565b9150600101611de6565b50838114611e5b576040805162461bcd60e51b8152602060048201526005602482015264313030303560d81b604482015290519081900360640190fd5b60005b89811015611e93576000838281518110611e7457fe5b60200260200101519050611e898c8289612574565b5050600101611e5e565b508715611efe57604080516001600160a01b03871681526020810188905242818301526080606082018190526003908201526242757960e81b60a082015290517fb6668bab6642a507a81c08f30893aaa47e0c29df8e88ad6b9c19ffd3a2296cf39181900360c00190a15b5060019998505050505050505050565b4290565b600b546000906001600160a01b03163314611f5e5760405162461bcd60e51b81526004018080602001828103825260228152602001806137be6022913960400191505060405180910390fd5b600b54611f83906001600160a01b0316611f76611015565b60ff16600a0a8402612d4a565b506001919050565b6001600160a01b03918216600090815260016020908152604080832093909416825291909152205490565b600b546000906001600160a01b031633146120025760405162461bcd60e51b81526004018080602001828103825260228152602001806137be6022913960400191505060405180910390fd5b600b546001600160a01b038481169116141561205c576040805162461bcd60e51b815260206004820152601460248201527331b0b7103737ba10333932b2bd329037bbb732b960611b604482015290519081900360640190fd5b6120668383612e3a565b9392505050565b60075490565b600b546000906001600160a01b031633146120bf5760405162461bcd60e51b81526004018080602001828103825260228152602001806137be6022913960400191505060405180910390fd5b50600b80546001600160a01b0383166001600160a01b03199091161790556001919050565b6001600160a01b0383166121295760405162461bcd60e51b81526004018080602001828103825260248152602001806138486024913960400191505060405180910390fd5b6001600160a01b03821661216e5760405162461bcd60e51b81526004018080602001828103825260228152602001806137e06022913960400191505060405180910390fd5b6001600160a01b03808416600081815260016020908152604080832094871680845294825291829020859055815185815291517f8c5be1e5ebec7d5bd14f71427d1e84f3dd0314c0f7b2291e5b200ac8c7c3b9259281900390910190a3505050565b600082820183811015612066576040805162461bcd60e51b815260206004820152601b60248201527f536166654d6174683a206164646974696f6e206f766572666c6f770000000000604482015290519081900360640190fd5b6001600160a01b03831660009081526003602052604090205460ff1615612298576040805162461bcd60e51b815260206004820152601760248201527f74686973206163636f756e74206861732066726f7a656e000000000000000000604482015290519081900360640190fd5b6001600160a01b0383166122dd5760405162461bcd60e51b81526004018080602001828103825260258152602001806138236025913960400191505060405180910390fd5b6001600160a01b0382166123225760405162461bcd60e51b815260040180806020018281038252602381526020018061379b6023913960400191505060405180910390fd5b6001600160a01b03831660009081526020819052604090205481111561238f576040805162461bcd60e51b815260206004820152601860248201527f73656e64657220616d6f756e74204e6f7420656e6f7567680000000000000000604482015290519081900360640190fd5b6001600160a01b0383166000908152602081905260409020546123b8908263ffffffff61244716565b6001600160a01b0380851660009081526020819052604080822093909355908416815220546123ed908263ffffffff6121d016565b6001600160a01b038084166000818152602081815260409182902094909455805185815290519193928716927fddf252ad1be2c89b69c2b068fc378daa952ba7f163c4a11628f55a4df523b3ef92918290030190a3505050565b60008282111561249e576040805162461bcd60e51b815260206004820152601e60248201527f536166654d6174683a207375627472616374696f6e206f766572666c6f770000604482015290519081900360640190fd5b50900390565b60008082116124fa576040805162461bcd60e51b815260206004820152601a60248201527f536166654d6174683a206469766973696f6e206279207a65726f000000000000604482015290519081900360640190fd5b600082848161250557fe5b04949350505050565b60008261251d575060006108ea565b8161252a575060006108ea565b8282028284828161253757fe5b04146120665760405162461bcd60e51b81526004018080602001828103825260218152602001806138026021913960400191505060405180910390fd5b6000818361258186612cd9565b6125ba576040805162461bcd60e51b8152602060048201526005602482015264313030303160d81b604482015290519081900360640190fd5b6125c261361d565b6040805161020081018252600e80548252600f80548451602060026001841615610100026000190190931692909204601f810183900483028201830190965285815293949293818601939092918301828280156126605780601f1061263557610100808354040283529160200191612660565b820191906000526020600020905b81548152906001019060200180831161264357829003601f168201915b505050918352505060028201546020820152600382015460408201526004820154606082015260058201546080820152600682015460a0820152600782015460c0820152600882015460e08201526009820154610100820152600a8201546101209091019060ff1660018111156126d357fe5b60018111156126de57fe5b8152600b8201546020820152600c8201546040820152600d8201546060820152600e8201546001600160a01b03166080820152600f9091015460a090910152805190915061275b576040805162461bcd60e51b8152602060048201526005602482015264031303030360dc1b604482015290519081900360640190fd5b60e08101516101a08201518061276f575060015b61277881612ea8565b90506000836101400151600181111561278d57fe5b146127c7576040805162461bcd60e51b8152602060048201526005602482015264189818181960d91b604482015290519081900360640190fd5b428360a0015111612807576040805162461bcd60e51b8152602060048201526005602482015264313030303360d81b604482015290519081900360640190fd5b83821115612844576040805162461bcd60e51b81526020600482015260056024820152640c4c0c0c0d60da1b604482015290519081900360640190fd5b60006128606064611a40600a548861250e90919063ffffffff16565b9050600061287e6064611a406009548961250e90919063ffffffff16565b9050600061289c6064611a40600c548a61250e90919063ffffffff16565b905060006128ba6064611a40600d548b61250e90919063ffffffff16565b905060006128ca8a8f878c612fe0565b905060005b601e54811015612913576000601e82815481106128e857fe5b60009182526020808320909101546001600160a01b03168252602290526040812055506001016128cf565b50600b546040516001600160a01b039091169085156108fc029086906000818181858888f1935050505015801561294e573d6000803e3d6000fd5b50600b548a906001600160a01b03838116911614156129755750600b546001600160a01b03165b6040516001600160a01b0382169084156108fc029085906000818181858888f193505050501580156129ab573d6000803e3d6000fd5b5060006129be8b8863ffffffff61244716565b90506129d0818763ffffffff61244716565b90506129e2818563ffffffff61244716565b90506000805b601e54811015612aac576000601e8281548110612a0157fe5b60009182526020808320909101546001600160a01b0316808352908052604082205490925090612a3083613252565b15612aa157612a498d611a408c8563ffffffff61250e16565b9050612a5b858263ffffffff6121d016565b6001600160a01b038416600090815260226020526040902054909550612a87908263ffffffff6121d016565b6001600160a01b0384166000908152602260205260409020555b5050506001016129e8565b50612abd828263ffffffff61244716565b915060005b601e54811015612c44576000601e8281548110612adb57fe5b60009182526020808320909101546001600160a01b031680835260229091526040909120549091508015612c3a57612b1161374d565b506001600160a01b038281166000908152601f60209081526040918290208251608081018452815481526001820154928101929092526002015492831691810191909152600160a01b90910460ff161580156060830152612b85578051612b7e908363ffffffff6121d016565b8152612bab565b506040805160808101825282815260006020820181905291810191909152600160608201525b6001600160a01b038084166000818152601f6020908152604080832086518155918601516001830155808601516002909201805460608801511515600160a01b0260ff60a01b19949097166001600160a01b031990911617929092169490941790559151909184156108fc02918591818181858888f19350505050158015612c37573d6000803e3d6000fd5b50505b5050600101612ac2565b5060005b601e54811015612c8c576000601e8281548110612c6157fe5b60009182526020808320909101546001600160a01b0316825260229052604081205550600101612c48565b50612c988d8383613345565b50600b54612cc1906001600160a01b03168e612cb2611015565b60ff16600a0a6023540261222a565b60019d50505050505050505050505050509392505050565b60006001600160a01b038216612cf157506000611037565b600b546001600160a01b0383811691161415612d0f57506001611037565b6001600160a01b0382166000908152601f6020526040902060020154600160a01b900460ff1615612d4257506001611037565b506000919050565b6001600160a01b038216612da5576040805162461bcd60e51b815260206004820152601f60248201527f45524332303a206d696e7420746f20746865207a65726f206164647265737300604482015290519081900360640190fd5b600254612db8908263ffffffff6121d016565b6002556001600160a01b038216600090815260208190526040902054612de4908263ffffffff6121d016565b6001600160a01b0383166000818152602081815260408083209490945583518581529351929391927fddf252ad1be2c89b69c2b068fc378daa952ba7f163c4a11628f55a4df523b3ef9281900390910190a35050565b6001600160a01b0382166000818152600360209081526040808320805460ff1916861515908117909155815194855291840191909152805191927f48335238b4855f35377ed80f164e8c6f3c366e54ac00b96a6402d4a9814a03a5929081900390910190a150600192915050565b6007548190600090612ec590600390600a0a63ffffffff61250e16565b905060005b601e54811015611ade576000601e8281548110612ee357fe5b600091825260209091200154600b546001600160a01b03918216925016811415612f0d5750612fd8565b612f1561374d565b506001600160a01b038181166000818152601f6020908152604080832081516080810183528154815260018201548185015260029091015495861681830152600160a01b90950460ff1615156060860190815293835290805290205490518015612f7f5750600081115b15612fd4576000612fb6600754600a0a612faa856020015186600001516124a490919063ffffffff16565b9063ffffffff61250e16565b9050858110612fd257612fcf888363ffffffff61244716565b96505b505b5050505b600101612eca565b6000612fea61374d565b506001600160a01b038581166000908152601f602090815260408083208151608081018352815481526001820154938101939093526002015493841690820152600160a01b90920460ff161580156060840152613048575060408101515b6001600160a01b0381166130595750845b6001600160a01b0381166130755750600b546001600160a01b03165b809250806001600160a01b03166108fc869081150290604051600060405180830381858888f193505050501580156130b1573d6000803e3d6000fd5b506001600160a01b0381166000908152602160205260409020546130db908663ffffffff6121d016565b6001600160a01b038216600090815260216020526040902055606082015115613156576001600160a01b038781166000908152601f602090815260409182902082516080810184528154815260018201549281019290925260020154600160a01b900460ff16151560608201529183169082015291506131ce565b604080516080810182526000808252602082018190526001600160a01b0384811693830193909352600160608301819052601e805491820181559091527f50bb669a95c7b50b7e8a6f09454034b2b14cf2b85c730dca9a539ca82cb6e3500180546001600160a01b031916928a169290921790915591505b60208201516131e3908563ffffffff6121d016565b60208084019182526001600160a01b039889166000908152601f9091526040908190208451815591516001830155830151600290910180546060909401511515600160a01b0260ff60a01b19929099166001600160a01b03199094169390931716969096179055949350505050565b600b546001906001600160a01b038381169116141561327357506001611037565b600061328e600754600a0a600361250e90919063ffffffff16565b905061329861374d565b506001600160a01b038381166000818152601f6020908152604080832081516080810183528154815260018201548185015260029091015495861681830152600160a01b90950460ff16151560608601908152938352908052902054905180156133025750600081115b1561333d57600061332d600754600a0a612faa856020015186600001516124a490919063ffffffff16565b905083811061333b57600094505b505b505050919050565b60004261335061361d565b6040805161020081018252600e80548252600f80548451602060026001841615610100026000190190931692909204601f810183900483028201830190965285815293949293818601939092918301828280156133ee5780601f106133c3576101008083540402835291602001916133ee565b820191906000526020600020905b8154815290600101906020018083116133d157829003601f168201915b505050918352505060028201546020820152600382015460408201526004820154606082015260058201546080820152600682015460a0820152600782015460c0820152600882015460e08201526009820154610100820152600a8201546101209091019060ff16600181111561346157fe5b600181111561346c57fe5b8152600b8201546020820152600c8201546040820152600d8201546060820152600e8201546001600160a01b039081166080830152600f9092015460a090910152601c80546001600160a01b0319169189169190911790556101608101519091506134d790866121d0565b6019556101a08101516000906134f490600163ffffffff6121d016565b601b8190556001600160a01b038816600090815260208052604090205490915061352590600163ffffffff6121d016565b6001600160a01b03881660009081526020805260409020556012839055606082015161355890849063ffffffff6121d016565b6013556101e08201518114156135b65761012082015160009061358290600263ffffffff6124a416565b61012084018190526101e08401519091506135a490600263ffffffff61250e16565b6101e08401819052601791909155601d555b60006135da6064611a1d600854600a0a8661012001516124a490919063ffffffff16565b90506135f86064611a40838660e0015161250e90919063ffffffff16565b601555601a5461360e908763ffffffff6121d016565b601a5550929695505050505050565b604051806102000160405280600081526020016060815260200160008152602001600081526020016000815260200160008152602001600081526020016000815260200160008152602001600081526020016000600181111561367c57fe5b815260200160008152602001600081526020016000815260200160006001600160a01b03168152602001600081525090565b50805460008255906000526020600020908101906136cc9190613780565b50565b828054600181600116156101000203166002900490600052602060002090601f016020900481019282601f1061371057805160ff191683800117855561373d565b8280016001018555821561373d579182015b8281111561373d578251825591602001919060010190613722565b50613749929150613780565b5090565b6040518060800160405280600081526020016000815260200160006001600160a01b031681526020016000151581525090565b6108d691905b80821115613749576000815560010161378656fe45524332303a207472616e7366657220746f20746865207a65726f20616464726573734f6e6c79206f776e65722063616e2063616c6c20746869732066756e6374696f6e2e45524332303a20617070726f766520746f20746865207a65726f2061646472657373536166654d6174683a206d756c7469706c69636174696f6e206f766572666c6f7745524332303a207472616e736665722066726f6d20746865207a65726f206164647265737345524332303a20617070726f76652066726f6d20746865207a65726f2061646472657373a265627a7a7231582076cd7aa5ff7df8c97ca570f0e53f9816a032917ebdb1803edd2d307e7a56949764736f6c63430005110032536166654d6174683a206d756c7469706c69636174696f6e206f766572666c6f77",
  "source": "pragma solidity ^0.5.4;\r\n\r\nimport \"./SafeMath.sol\";\r\nimport \"./Entitys.sol\";\r\nimport \"./ERC20.sol\";\r\nimport \"./ERC20Detailed.sol\";\r\n\r\n/***\r\n    game contract\r\n */\r\ncontract lira is ERC20, ERC20Detailed {\r\n    modifier onlyOwner {\r\n        require(msg.sender == _owner, \"Only owner can call this function.\");\r\n        _;\r\n    }\r\n\r\n    using SafeMath for uint256;\r\n\r\n    uint256 private _trx_decimals = 18;\r\n    uint256 private _price_upper_decimals = 18;\r\n    //game fee\r\n    uint256 private _fee_rate = 10;\r\n    /**recommend fee */\r\n    uint256 private _recommend_rate = 10;\r\n    address private _owner;\r\n\r\n    /**bonus fee */\r\n    uint256 private _bonus_rate = 45;\r\n\r\n    /*backfee */\r\n    uint256 private _feeback_rate = 5;\r\n\r\n    //current game\r\n    Entitys.GameStruct private current_game;\r\n\r\n    //user buy record\r\n    address[] private game_buy_users;\r\n\r\n    /***\r\n    game->user->shouyi\r\n    */\r\n    mapping(address => Entitys.UserBenefitAndInvestment)\r\n        private game_investment_benefit;\r\n    /**\r\n    game->user->chiyouliang\r\n     */\r\n    mapping(address => uint256) private game_user_buy_count;\r\n\r\n\r\n    //user->rercommend\r\n    mapping(address => uint256) private user_recommend_value;\r\n\r\n    mapping(address => uint256) private user_credit_log;\r\n\r\n    //airdrop value\r\n    uint256 private buy_airdrop_mtb_count = uint256(1000000);\r\n\r\n    constructor(\r\n        uint256 _game_id,\r\n        string memory _name,\r\n        uint256 _game_times,\r\n        uint256 _price,\r\n        uint256 _price_upper_rate\r\n    ) public ERC20Detailed(\"LIRA\", \"LIRA\", uint8(_trx_decimals)) {\r\n        _owner = msg.sender;\r\n        uint256 temp_now = now;\r\n        uint256 _last_buy_time = temp_now;\r\n        uint256 _over_time = temp_now.add(_game_times);\r\n        uint256 _buy_price = _price * (10**uint256(_trx_decimals)).div(10**2);\r\n        uint256 price_upper_rate = _price_upper_rate.mul(\r\n            10**_price_upper_decimals\r\n        ); //1^18\r\n        uint256 _next_change_rate_count = 70;\r\n        current_game = Entitys.GameStruct({\r\n            game_id: _game_id,\r\n            name: _name,\r\n            begin_time: temp_now,\r\n            game_times: _game_times,\r\n            last_buy_time: _last_buy_time,\r\n            over_time: _over_time,\r\n            base_prce: _buy_price,\r\n            price: _buy_price,\r\n            base_price_upper_rate: price_upper_rate,\r\n            price_upper_rate: price_upper_rate,\r\n            status: Entitys.GameStatus.Ing,\r\n            prize_value: 0,\r\n            bonus_value: 0,\r\n            buy_count: 0,\r\n            last_buy_user_address: _owner,\r\n            next_change_rate_count: _next_change_rate_count\r\n        });\r\n\r\n        _mint(msg.sender, 10_000_000_000 * (10**uint256(decimals())));\r\n    }\r\n\r\n    function ChangeOwner(address new_owner)  public onlyOwner returns (bool) {\r\n        _owner = new_owner;\r\n        return true;\r\n    } \r\n\r\n\r\n    function getDecimals() public view returns (uint256) {\r\n        return _trx_decimals;\r\n    }\r\n\r\n\r\n    function getOwner() public view returns (address) {\r\n        return _owner;\r\n    }\r\n\r\n\r\n    function getCurrentRoundInfo()\r\n        public\r\n        view\r\n        returns (\r\n            uint256 game_id,\r\n            string memory name,\r\n            uint256 begin_time,\r\n            uint256 game_times,\r\n            uint256 last_buy_time,\r\n            uint256 over_time,\r\n            uint256 price,\r\n            uint256 price_upper_rate,\r\n            Entitys.GameStatus status,\r\n            uint256 prize_value,\r\n            uint256 bonus_value,\r\n            uint256 buy_count,\r\n            address last_buy_user_address,\r\n            uint256 next_change_rate_count\r\n        )\r\n    {\r\n        Entitys.GameStruct memory game = current_game;\r\n        game_id = game.game_id;\r\n        name = game.name;\r\n        begin_time = game.begin_time;\r\n        game_times = game.game_times;\r\n        last_buy_time = game.last_buy_time;\r\n        over_time = game.over_time;\r\n        price = game.price;\r\n        price_upper_rate = game.price_upper_rate;\r\n        status = game.status;\r\n        prize_value = game.prize_value;\r\n        buy_count = game.buy_count;\r\n        bonus_value = game.bonus_value;\r\n        last_buy_user_address = game.last_buy_user_address;\r\n        next_change_rate_count = game.next_change_rate_count;\r\n        return (\r\n            game_id,\r\n            name,\r\n            begin_time,\r\n            game_times,\r\n            last_buy_time,\r\n            over_time,\r\n            price,\r\n            price_upper_rate,\r\n            status,\r\n            prize_value,\r\n            bonus_value,\r\n            buy_count,\r\n            last_buy_user_address,\r\n            next_change_rate_count\r\n        );\r\n    }\r\n\r\n    function askprice() public view returns (uint256 price) {\r\n        Entitys.GameStruct memory game = current_game;\r\n        return game.price;\r\n    }\r\n\r\n    function ask_bulk_price(uint256 buy_count)\r\n        public\r\n        view\r\n        returns (\r\n            uint256 total_price,\r\n            uint256 last_price,\r\n            uint256[] memory price_list\r\n        )\r\n    {\r\n        Entitys.GameStruct memory game = current_game;\r\n        require(buy_count >= 1, \"10005\");\r\n        total_price = 0;\r\n        last_price = game.price; \r\n        price_list = new uint256[](buy_count);\r\n        uint256 temp_buy_count = game.buy_count; \r\n        uint256 temp_price_rate = game.price_upper_rate; \r\n        uint256 temp_next_change_rate_count = game.next_change_rate_count;\r\n        for (uint256 i = 0; i < buy_count; i++) {\r\n            total_price = total_price.add(last_price);\r\n            price_list[i] = last_price;\r\n            temp_buy_count = temp_buy_count.add(1); \r\n            if (temp_buy_count == temp_next_change_rate_count) {\r\n                temp_price_rate = temp_price_rate.div(2); \r\n                temp_next_change_rate_count = temp_next_change_rate_count.mul(2);\r\n            }\r\n            uint256 _price_upper_rate = temp_price_rate\r\n            .div(10**_price_upper_decimals)\r\n            .add(100);\r\n            last_price = last_price.mul(_price_upper_rate).div(100);\r\n        }\r\n        return (total_price, last_price, price_list);\r\n    }\r\n\r\n\r\n    event BuyGameEvent(\r\n        address bidder,\r\n        uint256 amount,\r\n        uint256 buy_time,\r\n        string event_msg\r\n    );\r\n\r\n    function checkRecommend(address recommend_user)\r\n        private\r\n        view\r\n        returns (bool)\r\n    {\r\n        if (recommend_user == address(0)) {\r\n            return false;\r\n        }\r\n        if (recommend_user == _owner) {\r\n            return true;\r\n        }\r\n        if (game_investment_benefit[recommend_user].isValue) {\r\n            return true;\r\n        }\r\n        return false;\r\n    }\r\n\r\n    function bulk_buy_token(address recommend_user, uint256 buy_count)\r\n        public\r\n        payable\r\n        returns (bool success)\r\n    {\r\n        require(checkRecommend(recommend_user), \"10001\");\r\n        require(buy_count >= 1, \"10005\");\r\n        Entitys.GameStruct memory game = current_game;\r\n        require(game.game_id != uint256(0), \"10000\");\r\n        uint256 amount = msg.value;\r\n        address buyer = msg.sender; \r\n        uint256 total_price;\r\n        uint256 last_price;\r\n        uint256[] memory price_list;\r\n        (total_price, last_price, price_list) = ask_bulk_price(buy_count);\r\n        require(amount >= total_price, \"10007\");\r\n        require(price_list.length == buy_count, \"10005\");\r\n        uint256 temp_total_price = 0;\r\n        for (uint256 i = 0; i < buy_count; i++) {\r\n            temp_total_price = temp_total_price.add(price_list[i]);\r\n        }\r\n        require(temp_total_price == total_price, \"10005\");\r\n        for (uint256 i = 0; i < buy_count; i++) {\r\n            uint256 item_amount = price_list[i];\r\n            buy_token_internal(recommend_user, item_amount, buyer);\r\n        }\r\n        if(success)\r\n        {\r\n              emit BuyGameEvent(buyer, amount, now, \"Buy\");\r\n        }\r\n        success = true;\r\n    }\r\n\r\n    function update_game_investment_benefit(\r\n        address user,\r\n        address recommend_user,\r\n        uint256 recommend_value,\r\n        uint256 buy_value\r\n    ) private returns (address c_recommend_user) {\r\n   \r\n        Entitys.UserBenefitAndInvestment memory bi = game_investment_benefit[\r\n            user\r\n        ];\r\n        address temp_recommend_user = address(0);\r\n        if (bi.isValue) {\r\n            temp_recommend_user = bi.recommend_user_address;\r\n        }\r\n        if (temp_recommend_user == address(0)) {\r\n            temp_recommend_user = recommend_user;\r\n        }\r\n        if (temp_recommend_user == address(0)) {\r\n            temp_recommend_user = _owner;\r\n        }\r\n        c_recommend_user=temp_recommend_user;\r\n        address(uint160(temp_recommend_user)).transfer(recommend_value); //\r\n\r\n        user_recommend_value[temp_recommend_user] = user_recommend_value[\r\n            temp_recommend_user\r\n        ]\r\n        .add(recommend_value);\r\n        if (bi.isValue) {\r\n            bi = game_investment_benefit[user];\r\n            bi.recommend_user_address = temp_recommend_user;\r\n        } else {\r\n\r\n            bi = Entitys.UserBenefitAndInvestment(\r\n                0,\r\n                0,\r\n                temp_recommend_user,\r\n                true\r\n            );\r\n\r\n            game_buy_users.push(user);\r\n        }\r\n        bi.touru = bi.touru.add(buy_value);\r\n\r\n        game_investment_benefit[user] = bi;\r\n    }\r\n\r\n    function buy_token_internal(\r\n        address recommend_user,\r\n        uint256 amount,\r\n        address buyer\r\n    ) private returns (bool success) {\r\n        address buy_user = buyer;\r\n        uint256 buy_value = amount;\r\n        require(checkRecommend(recommend_user), \"10001\");\r\n        Entitys.GameStruct memory game = current_game;\r\n        require(game.game_id != uint256(0), \"10000\");\r\n        uint256 current_price = game.price;\r\n        uint256 current_buy_count = game.buy_count; \r\n        if (current_buy_count == uint256(0)) {\r\n            current_buy_count = 1;\r\n        }\r\n\r\n        current_buy_count = GetEffectiveBuyCount(current_buy_count); \r\n\r\n        require(game.status == Entitys.GameStatus.Ing, \"10002\");\r\n        require(game.over_time > now, \"10003\");\r\n        require(current_price <= buy_value, \"10004\");\r\n        uint256 recommend_value = buy_value.mul(_recommend_rate).div(100);\r\n        uint256 platform_value = buy_value.mul(_fee_rate).div(100);\r\n        uint256 bonus_value = buy_value.mul(_bonus_rate).div(100);\r\n        uint256 fee_back_value = buy_value.mul(_feeback_rate).div(100);\r\n        address temp_recommend_user = update_game_investment_benefit(\r\n            buy_user,\r\n            recommend_user,\r\n            recommend_value,\r\n            buy_value\r\n        );\r\n        for (uint256 i = 0; i < game_buy_users.length; i++) {\r\n            address temp_user = game_buy_users[i];\r\n            delete user_credit_log[temp_user];\r\n        }\r\n\r\n        address(uint256(_owner)).transfer(platform_value); \r\n        address back_user = buy_user;\r\n        if (temp_recommend_user == _owner) {\r\n            back_user = _owner;\r\n        }\r\n        address(uint160(back_user)).transfer(fee_back_value); \r\n        uint256 temp_prize_value = buy_value.sub(recommend_value); \r\n        temp_prize_value = temp_prize_value.sub(platform_value); \r\n        temp_prize_value = temp_prize_value.sub(fee_back_value); \r\n        uint256 used_bonus_value = uint256(0);\r\n        for (uint256 i = 0; i < game_buy_users.length; i++) {\r\n            address temp_user = game_buy_users[i];\r\n            uint256 user_buy_count = game_user_buy_count[temp_user];\r\n            uint256 temp_bonus_value = uint256(0);\r\n\r\n            if (CheckUserCanBonus(temp_user)) {\r\n                temp_bonus_value = bonus_value.mul(user_buy_count).div(\r\n                    current_buy_count\r\n                );\r\n                used_bonus_value = used_bonus_value.add(temp_bonus_value);\r\n                user_credit_log[temp_user] = user_credit_log[temp_user].add(\r\n                    temp_bonus_value\r\n                );\r\n            }\r\n        }\r\n        temp_prize_value = temp_prize_value.sub(used_bonus_value); \r\n        for (uint256 i = 0; i < game_buy_users.length; i++) {\r\n            address temp_user = game_buy_users[i];\r\n            uint256 t_amount = user_credit_log[temp_user];\r\n            if (t_amount > 0) {\r\n                Entitys.UserBenefitAndInvestment memory temp_bi\r\n                 = game_investment_benefit[temp_user];\r\n                if (temp_bi.isValue) {\r\n                    temp_bi.shouyi = temp_bi.shouyi.add(t_amount);\r\n                } else {\r\n                    temp_bi = Entitys.UserBenefitAndInvestment(\r\n                        t_amount,\r\n                        0,\r\n                        address(0),\r\n                        true\r\n                    );\r\n                }\r\n                game_investment_benefit[temp_user] = temp_bi;\r\n                address(uint160(temp_user)).transfer(t_amount);\r\n            }\r\n        }\r\n        for (uint256 i = 0; i < game_buy_users.length; i++) {\r\n            address temp_user = game_buy_users[i];\r\n            delete user_credit_log[temp_user];\r\n        }\r\n\r\n\r\n        calcGameRate(buy_user, temp_prize_value, used_bonus_value);\r\n      \r\n\r\n        _transfer(\r\n            _owner,\r\n            buy_user,\r\n            buy_airdrop_mtb_count * (10**uint256(decimals()))\r\n        );\r\n        return true;\r\n    }\r\n\r\n    function buy_token(address recommend_user)\r\n        public\r\n        payable\r\n        returns (bool success)\r\n    {\r\n        uint256 amount = msg.value; \r\n        address buyer = msg.sender; \r\n        success= buy_token_internal(recommend_user, amount, buyer);\r\n        if(success)\r\n        {\r\n              emit BuyGameEvent(buyer, amount, now, \"Buy\");\r\n        }\r\n    }\r\n\r\n\r\n    function calcGameRate(\r\n        address buyer,\r\n        uint256 prize_value,\r\n        uint256 used_bonus_value\r\n    ) private returns (bool) {\r\n        uint256 _now = now;\r\n        Entitys.GameStruct memory game = current_game;\r\n        current_game.last_buy_user_address = buyer;\r\n        current_game.prize_value = game.prize_value.add(prize_value); \r\n        uint256 current_buy_count = game.buy_count.add(1);\r\n        current_game.buy_count = current_buy_count; \r\n        game_user_buy_count[buyer] = game_user_buy_count[buyer].add(1);\r\n        current_game.last_buy_time = _now; \r\n        current_game.over_time = _now.add(game.game_times); \r\n        if (current_buy_count == game.next_change_rate_count) {\r\n            uint256 temp_price_rate = game.price_upper_rate.div(2); \r\n            game.price_upper_rate = temp_price_rate;\r\n            game.next_change_rate_count = game.next_change_rate_count.mul(2);\r\n            current_game.price_upper_rate = temp_price_rate;\r\n            current_game.next_change_rate_count = game.next_change_rate_count;\r\n        }\r\n        uint256 _price_upper_rate = game\r\n        .price_upper_rate\r\n        .div(10**_price_upper_decimals)\r\n        .add(100);\r\n        current_game.price = game.price.mul(_price_upper_rate).div(100);\r\n        current_game.bonus_value = current_game.bonus_value.add(\r\n            used_bonus_value\r\n        );\r\n    }\r\n\r\n\r\n    function GetEffectiveBuyCount(uint256 current_buy_count)\r\n        private\r\n        view\r\n        returns (uint256 effective_count)\r\n    {\r\n        effective_count = current_buy_count;\r\n        uint256 threshold_value = uint256(3).mul(10**_trx_decimals);\r\n        for (uint256 i = 0; i < game_buy_users.length; i++) {\r\n            address temp_user = game_buy_users[i];\r\n            if (temp_user == _owner) {\r\n                continue;\r\n            }\r\n            Entitys.UserBenefitAndInvestment memory temp_bi= game_investment_benefit[temp_user];\r\n            uint256 user_buy_count = game_user_buy_count[temp_user];\r\n            if (temp_bi.isValue && user_buy_count > 0) {\r\n                uint256 shouyilv = temp_bi.shouyi.div(temp_bi.touru).mul(\r\n                    10**_trx_decimals\r\n                );\r\n                if (shouyilv >= threshold_value) {\r\n                    effective_count = current_buy_count.sub(user_buy_count);\r\n                }\r\n            }\r\n        }\r\n        return effective_count;\r\n    }\r\n\r\n\r\n    function CheckUserCanBonus(address user)\r\n        private\r\n        view\r\n        returns (bool can_bonus)\r\n    {\r\n        can_bonus = true;\r\n        if (user == _owner) {\r\n            return true;\r\n        }\r\n\r\n        uint256 threshold_value = uint256(3).mul(10**_trx_decimals);\r\n\r\n            Entitys.UserBenefitAndInvestment memory temp_bi\r\n         = game_investment_benefit[user];\r\n   \r\n        uint256 user_buy_count = game_user_buy_count[user];\r\n        if (temp_bi.isValue && user_buy_count > 0) {\r\n\r\n            uint256 shouyilv = temp_bi.shouyi.div(temp_bi.touru).mul(\r\n                10**_trx_decimals\r\n            );\r\n            if (shouyilv >= threshold_value) {\r\n                can_bonus = false;\r\n            }\r\n        }\r\n        return can_bonus;\r\n    }\r\n\r\n    function getBuyerBuyCount(address buyer) public view returns (uint256) {\r\n        return game_user_buy_count[buyer];\r\n    }\r\n\r\n\r\n    function getBuerIncomeInvestment(address buyer)\r\n        public\r\n        view\r\n        returns (\r\n            uint256 income,\r\n            uint256 investment,\r\n            uint256 recommend_value,\r\n            uint256 buy_count\r\n        )\r\n    {\r\n        Entitys.UserBenefitAndInvestment memory bi = game_investment_benefit[\r\n            buyer\r\n        ];\r\n        income = bi.touru;\r\n        investment = bi.shouyi;\r\n        recommend_value = user_recommend_value[buyer];\r\n        buy_count = game_user_buy_count[buyer];\r\n        return (income, investment, recommend_value, buy_count);\r\n    }\r\n\r\n    function checkGameAndPrize() public view onlyOwner returns (bool) {\r\n        require(_owner == msg.sender, \"Must Owner Execute\");\r\n        uint256 _now = now;\r\n        Entitys.GameStruct memory game = current_game;\r\n        if (game.over_time <= _now) {\r\n            return true;\r\n        }\r\n        return false;\r\n    }\r\n\r\n    function PrizeGame() public onlyOwner returns (bool) {\r\n        require(_owner == msg.sender, \"Must Owner Execute\");\r\n        uint256 _now = now;\r\n        Entitys.GameStruct memory game = current_game;\r\n        if (game.over_time <= _now) {\r\n    \r\n            if (game.last_buy_user_address != address(0)) {\r\n                if (game.prize_value > 0) {\r\n        \r\n                    address(uint160(game.last_buy_user_address)).transfer(\r\n                        game.prize_value\r\n                    );\r\n                }\r\n            }\r\n\r\n            for (uint256 i = 0; i < game_buy_users.length; i++) {\r\n                address temp_user = game_buy_users[i];\r\n                delete game_investment_benefit[temp_user];\r\n                delete game_user_buy_count[temp_user];\r\n                delete user_recommend_value[temp_user];\r\n            }\r\n            delete game_buy_users;\r\n    \r\n\r\n            uint256 temp_now = now;\r\n            uint256 _last_buy_time = temp_now;\r\n            uint256 _over_time = temp_now.add(game.game_times);\r\n            uint256 _buy_price = game.base_prce; //1^6\r\n            uint256 price_upper_rate = game.base_price_upper_rate; //1^18\r\n            uint256 next_change_rate_count = 70;\r\n            uint256 game_id = game.game_id.add(1);\r\n            current_game = Entitys.GameStruct(\r\n                game_id,\r\n                game.name,\r\n                temp_now,\r\n                game.game_times,\r\n                _last_buy_time,\r\n                _over_time,\r\n                _buy_price,\r\n                _buy_price,\r\n                price_upper_rate,\r\n                price_upper_rate,\r\n                Entitys.GameStatus.Ing,\r\n                0,\r\n                0,\r\n                0,\r\n                _owner,\r\n                next_change_rate_count\r\n            );\r\n            return true;\r\n        }\r\n        return false;\r\n    }\r\n\r\n    function kill() public onlyOwner returns (bool) {\r\n        if (_owner == msg.sender) {\r\n            Entitys.GameStruct memory game = current_game;\r\n            if (game.prize_value > 0) {\r\n                address(uint160(_owner)).transfer(game.prize_value);\r\n                selfdestruct(msg.sender);\r\n                return true;\r\n            }\r\n        }\r\n        return false;\r\n    }\r\n\r\n\r\n    function freezeAccount(address target, bool freeze)\r\n        public\r\n        onlyOwner\r\n        returns (bool)\r\n    {\r\n        require(_owner != target, \"can not freeze owner\");\r\n        return _freezeAccount(target, freeze);\r\n    }\r\n\r\n\r\n    function mintToken(uint256 mintedAmount) public onlyOwner returns (bool) {\r\n        _mint(_owner, mintedAmount * (10**uint256(decimals())));\r\n        return true;\r\n    }\r\n}\r\n",
  "sourcePath": "F:/OtherProducts/tron/bsc_token/contracts/lira.sol",
  "compiler": {
    "name": "solc",
    "version": "0.5.17+commit.d19bba13.Emscripten.clang"
  },
  "schemaVersion": "3.4.1",
  "updatedAt": "2021-07-08T07:33:12.651Z",
  "networkType": "ethereum",
  "devdoc": {
    "methods": {
      "allowance(address,address)": {
        "details": "See {IERC20-allowance}."
      },
      "approve(address,uint256)": {
        "details": " A1000TRXB100TRX:      * Aapproveapprove(B,100) B100TRX10ETHCtransferFrom(A, C, 10) allowance(A, B)BAtoken      * Requirements:      * - `spender` cannot be the zero address."
      },
      "balanceOf(address)": {
        "details": "See {IERC20-balanceOf}."
      },
      "decimals()": {
        "details": "Returns the number of decimals used to get its user representation. For example, if `decimals` equals `2`, a balance of `505` tokens should be displayed to a user as `5,05` (`505 / 10 ** 2`).      * Tokens usually opt for a value of 18, imitating the relationship between Ether and Wei.      * NOTE: This information is only used for _display_ purposes: it in no way affects any of the arithmetic of the contract, including {IERC20-balanceOf} and {IERC20-transfer}."
      },
      "decreaseAllowance(address,uint256)": {
        "details": "Atomically decreases the allowance granted to `spender` by the caller.      * This is an alternative to {approve} that can be used as a mitigation for problems described in {IERC20-approve}.      * Emits an {Approval} event indicating the updated allowance.      * Requirements:      * - `spender` cannot be the zero address. - `spender` must have allowance for the caller of at least `subtractedValue`."
      },
      "increaseAllowance(address,uint256)": {
        "details": "spender      * {approve}{IERC20 approve}      * Emits an {Approval} event indicating the updated allowance.      * Requirements:      * - `spender` cannot be the zero address."
      },
      "name()": {
        "details": "Returns the name of the token."
      },
      "symbol()": {
        "details": "Returns the symbol of the token, usually a shorter version of the name."
      },
      "totalSupply()": {
        "details": "See {IERC20-totalSupply}."
      },
      "transfer(address,uint256)": {
        "details": "See {IERC20-transfer}.      * Requirements:      * - `recipient` cannot be the zero address. - the caller must have a balance of at least `amount`."
      },
      "transferFrom(address,address,uint256)": {
        "details": "See {IERC20-transferFrom}.      * Emits an {Approval} event indicating the updated allowance. This is not required by the EIP. See the note at the beginning of {ERC20};      * Requirements: - `sender` and `recipient` cannot be the zero address. - `sender` must have a balance of at least `value`. - the caller must have allowance for `sender`'s tokens of at least `amount`."
      }
    }
  },
  "userdoc": {
    "methods": {
      "checkFreeze(address)": {
        "notice": ""
      },
      "getNow()": {
        "notice": " "
      }
    },
    "notice": "* game contract"
  }
}